###############################################################################
#
# IAR ELF Linker V8.40.1.212/W32 for ARM                  12/Jul/2021  13:42:23
# Copyright 2007-2019 IAR Systems AB.
#
#    Output file  =
#        D:\00-githubFiles\HC32F460_FreeRTOS\HC32F460Temp_FreeRTOS\Debug\Exe\HC32F460_Temp_IAR.out
#    Map file     =
#        D:\00-githubFiles\HC32F460_FreeRTOS\HC32F460Temp_FreeRTOS\Debug\List\HC32F460_Temp_IAR.map
#    Command line =
#        -f C:\Users\Michael\AppData\Local\Temp\EW1A78.tmp
#        (D:\00-githubFiles\HC32F460_FreeRTOS\HC32F460Temp_FreeRTOS\Debug\Obj\bsp_dma.o
#        D:\00-githubFiles\HC32F460_FreeRTOS\HC32F460Temp_FreeRTOS\Debug\Obj\bsp_i2c_dma.o
#        D:\00-githubFiles\HC32F460_FreeRTOS\HC32F460Temp_FreeRTOS\Debug\Obj\bsp_interrupt.o
#        D:\00-githubFiles\HC32F460_FreeRTOS\HC32F460Temp_FreeRTOS\Debug\Obj\bsp_rtc.o
#        D:\00-githubFiles\HC32F460_FreeRTOS\HC32F460Temp_FreeRTOS\Debug\Obj\cmsis_os.o
#        D:\00-githubFiles\HC32F460_FreeRTOS\HC32F460Temp_FreeRTOS\Debug\Obj\croutine.o
#        D:\00-githubFiles\HC32F460_FreeRTOS\HC32F460Temp_FreeRTOS\Debug\Obj\data_sound_441_i2s.o
#        D:\00-githubFiles\HC32F460_FreeRTOS\HC32F460Temp_FreeRTOS\Debug\Obj\data_sound_8k_i2s.o
#        D:\00-githubFiles\HC32F460_FreeRTOS\HC32F460Temp_FreeRTOS\Debug\Obj\diskio.o
#        D:\00-githubFiles\HC32F460_FreeRTOS\HC32F460Temp_FreeRTOS\Debug\Obj\event_groups.o
#        D:\00-githubFiles\HC32F460_FreeRTOS\HC32F460Temp_FreeRTOS\Debug\Obj\fattime.o
#        D:\00-githubFiles\HC32F460_FreeRTOS\HC32F460Temp_FreeRTOS\Debug\Obj\ff.o
#        D:\00-githubFiles\HC32F460_FreeRTOS\HC32F460Temp_FreeRTOS\Debug\Obj\hc32f46x_adc.o
#        D:\00-githubFiles\HC32F460_FreeRTOS\HC32F460Temp_FreeRTOS\Debug\Obj\hc32f46x_aes.o
#        D:\00-githubFiles\HC32F460_FreeRTOS\HC32F460Temp_FreeRTOS\Debug\Obj\hc32f46x_can.o
#        D:\00-githubFiles\HC32F460_FreeRTOS\HC32F460Temp_FreeRTOS\Debug\Obj\hc32f46x_clk.o
#        D:\00-githubFiles\HC32F460_FreeRTOS\HC32F460Temp_FreeRTOS\Debug\Obj\hc32f46x_cmp.o
#        D:\00-githubFiles\HC32F460_FreeRTOS\HC32F460Temp_FreeRTOS\Debug\Obj\hc32f46x_dcu.o
#        D:\00-githubFiles\HC32F460_FreeRTOS\HC32F460Temp_FreeRTOS\Debug\Obj\hc32f46x_dmac.o
#        D:\00-githubFiles\HC32F460_FreeRTOS\HC32F460Temp_FreeRTOS\Debug\Obj\hc32f46x_efm.o
#        D:\00-githubFiles\HC32F460_FreeRTOS\HC32F460Temp_FreeRTOS\Debug\Obj\hc32f46x_emb.o
#        D:\00-githubFiles\HC32F460_FreeRTOS\HC32F460Temp_FreeRTOS\Debug\Obj\hc32f46x_event_port.o
#        D:\00-githubFiles\HC32F460_FreeRTOS\HC32F460Temp_FreeRTOS\Debug\Obj\hc32f46x_exint_nmi_swi.o
#        D:\00-githubFiles\HC32F460_FreeRTOS\HC32F460Temp_FreeRTOS\Debug\Obj\hc32f46x_gpio.o
#        D:\00-githubFiles\HC32F460_FreeRTOS\HC32F460Temp_FreeRTOS\Debug\Obj\hc32f46x_hash.o
#        D:\00-githubFiles\HC32F460_FreeRTOS\HC32F460Temp_FreeRTOS\Debug\Obj\hc32f46x_i2c.o
#        D:\00-githubFiles\HC32F460_FreeRTOS\HC32F460Temp_FreeRTOS\Debug\Obj\hc32f46x_i2s.o
#        D:\00-githubFiles\HC32F460_FreeRTOS\HC32F460Temp_FreeRTOS\Debug\Obj\hc32f46x_icg.o
#        D:\00-githubFiles\HC32F460_FreeRTOS\HC32F460Temp_FreeRTOS\Debug\Obj\hc32f46x_interrupts.o
#        D:\00-githubFiles\HC32F460_FreeRTOS\HC32F460Temp_FreeRTOS\Debug\Obj\hc32f46x_keyscan.o
#        D:\00-githubFiles\HC32F460_FreeRTOS\HC32F460Temp_FreeRTOS\Debug\Obj\hc32f46x_mpu.o
#        D:\00-githubFiles\HC32F460_FreeRTOS\HC32F460Temp_FreeRTOS\Debug\Obj\hc32f46x_ots.o
#        D:\00-githubFiles\HC32F460_FreeRTOS\HC32F460Temp_FreeRTOS\Debug\Obj\hc32f46x_pwc.o
#        D:\00-githubFiles\HC32F460_FreeRTOS\HC32F460Temp_FreeRTOS\Debug\Obj\hc32f46x_qspi.o
#        D:\00-githubFiles\HC32F460_FreeRTOS\HC32F460Temp_FreeRTOS\Debug\Obj\hc32f46x_rmu.o
#        D:\00-githubFiles\HC32F460_FreeRTOS\HC32F460Temp_FreeRTOS\Debug\Obj\hc32f46x_rtc.o
#        D:\00-githubFiles\HC32F460_FreeRTOS\HC32F460Temp_FreeRTOS\Debug\Obj\hc32f46x_sdioc.o
#        D:\00-githubFiles\HC32F460_FreeRTOS\HC32F460Temp_FreeRTOS\Debug\Obj\hc32f46x_spi.o
#        D:\00-githubFiles\HC32F460_FreeRTOS\HC32F460Temp_FreeRTOS\Debug\Obj\hc32f46x_sram.o
#        D:\00-githubFiles\HC32F460_FreeRTOS\HC32F460Temp_FreeRTOS\Debug\Obj\hc32f46x_swdt.o
#        D:\00-githubFiles\HC32F460_FreeRTOS\HC32F460Temp_FreeRTOS\Debug\Obj\hc32f46x_timer0.o
#        D:\00-githubFiles\HC32F460_FreeRTOS\HC32F460Temp_FreeRTOS\Debug\Obj\hc32f46x_timer4_cnt.o
#        D:\00-githubFiles\HC32F460_FreeRTOS\HC32F460Temp_FreeRTOS\Debug\Obj\hc32f46x_timer4_emb.o
#        D:\00-githubFiles\HC32F460_FreeRTOS\HC32F460Temp_FreeRTOS\Debug\Obj\hc32f46x_timer4_oco.o
#        D:\00-githubFiles\HC32F460_FreeRTOS\HC32F460Temp_FreeRTOS\Debug\Obj\hc32f46x_timer4_pwm.o
#        D:\00-githubFiles\HC32F460_FreeRTOS\HC32F460Temp_FreeRTOS\Debug\Obj\hc32f46x_timer4_sevt.o
#        D:\00-githubFiles\HC32F460_FreeRTOS\HC32F460Temp_FreeRTOS\Debug\Obj\hc32f46x_timer6.o
#        D:\00-githubFiles\HC32F460_FreeRTOS\HC32F460Temp_FreeRTOS\Debug\Obj\hc32f46x_timera.o
#        D:\00-githubFiles\HC32F460_FreeRTOS\HC32F460Temp_FreeRTOS\Debug\Obj\hc32f46x_trng.o
#        D:\00-githubFiles\HC32F460_FreeRTOS\HC32F460Temp_FreeRTOS\Debug\Obj\hc32f46x_usart.o
#        D:\00-githubFiles\HC32F460_FreeRTOS\HC32F460Temp_FreeRTOS\Debug\Obj\hc32f46x_utility.o
#        D:\00-githubFiles\HC32F460_FreeRTOS\HC32F460Temp_FreeRTOS\Debug\Obj\hc32f46x_wdt.o
#        D:\00-githubFiles\HC32F460_FreeRTOS\HC32F460Temp_FreeRTOS\Debug\Obj\heap_4.o
#        D:\00-githubFiles\HC32F460_FreeRTOS\HC32F460Temp_FreeRTOS\Debug\Obj\HW_I2C.o
#        D:\00-githubFiles\HC32F460_FreeRTOS\HC32F460Temp_FreeRTOS\Debug\Obj\Hw_MPU.o
#        D:\00-githubFiles\HC32F460_FreeRTOS\HC32F460Temp_FreeRTOS\Debug\Obj\Hw_SPI3.o
#        D:\00-githubFiles\HC32F460_FreeRTOS\HC32F460Temp_FreeRTOS\Debug\Obj\Hw_Uart4.o
#        D:\00-githubFiles\HC32F460_FreeRTOS\HC32F460Temp_FreeRTOS\Debug\Obj\list.o
#        D:\00-githubFiles\HC32F460_FreeRTOS\HC32F460Temp_FreeRTOS\Debug\Obj\main.o
#        D:\00-githubFiles\HC32F460_FreeRTOS\HC32F460Temp_FreeRTOS\Debug\Obj\OLED.o
#        D:\00-githubFiles\HC32F460_FreeRTOS\HC32F460Temp_FreeRTOS\Debug\Obj\OLED_port.o
#        D:\00-githubFiles\HC32F460_FreeRTOS\HC32F460Temp_FreeRTOS\Debug\Obj\port.o
#        D:\00-githubFiles\HC32F460_FreeRTOS\HC32F460Temp_FreeRTOS\Debug\Obj\portasm.o
#        D:\00-githubFiles\HC32F460_FreeRTOS\HC32F460Temp_FreeRTOS\Debug\Obj\queue.o
#        D:\00-githubFiles\HC32F460_FreeRTOS\HC32F460Temp_FreeRTOS\Debug\Obj\sd_card.o
#        D:\00-githubFiles\HC32F460_FreeRTOS\HC32F460Temp_FreeRTOS\Debug\Obj\sdmmc_cmd.o
#        D:\00-githubFiles\HC32F460_FreeRTOS\HC32F460Temp_FreeRTOS\Debug\Obj\SEGGER_RTT.o
#        D:\00-githubFiles\HC32F460_FreeRTOS\HC32F460Temp_FreeRTOS\Debug\Obj\SEGGER_RTT_printf.o
#        D:\00-githubFiles\HC32F460_FreeRTOS\HC32F460Temp_FreeRTOS\Debug\Obj\startup_hc32f46x.o
#        D:\00-githubFiles\HC32F460_FreeRTOS\HC32F460Temp_FreeRTOS\Debug\Obj\System_Clk.o
#        D:\00-githubFiles\HC32F460_FreeRTOS\HC32F460Temp_FreeRTOS\Debug\Obj\system_hc32f46x.o
#        D:\00-githubFiles\HC32F460_FreeRTOS\HC32F460Temp_FreeRTOS\Debug\Obj\System_PowerDown.o
#        D:\00-githubFiles\HC32F460_FreeRTOS\HC32F460Temp_FreeRTOS\Debug\Obj\Task_ADC.o
#        D:\00-githubFiles\HC32F460_FreeRTOS\HC32F460Temp_FreeRTOS\Debug\Obj\Task_display.o
#        D:\00-githubFiles\HC32F460_FreeRTOS\HC32F460Temp_FreeRTOS\Debug\Obj\Task_FileSystem.o
#        D:\00-githubFiles\HC32F460_FreeRTOS\HC32F460Temp_FreeRTOS\Debug\Obj\Task_Key.o
#        D:\00-githubFiles\HC32F460_FreeRTOS\HC32F460Temp_FreeRTOS\Debug\Obj\Task_LED.o
#        D:\00-githubFiles\HC32F460_FreeRTOS\HC32F460Temp_FreeRTOS\Debug\Obj\Task_USB.o
#        D:\00-githubFiles\HC32F460_FreeRTOS\HC32F460Temp_FreeRTOS\Debug\Obj\tasks.o
#        D:\00-githubFiles\HC32F460_FreeRTOS\HC32F460Temp_FreeRTOS\Debug\Obj\timers.o
#        D:\00-githubFiles\HC32F460_FreeRTOS\HC32F460Temp_FreeRTOS\Debug\Obj\usb_bsp_template.o
#        D:\00-githubFiles\HC32F460_FreeRTOS\HC32F460Temp_FreeRTOS\Debug\Obj\usb_core.o
#        D:\00-githubFiles\HC32F460_FreeRTOS\HC32F460Temp_FreeRTOS\Debug\Obj\usb_dcd.o
#        D:\00-githubFiles\HC32F460_FreeRTOS\HC32F460Temp_FreeRTOS\Debug\Obj\usb_dcd_int.o
#        D:\00-githubFiles\HC32F460_FreeRTOS\HC32F460Temp_FreeRTOS\Debug\Obj\usb_otg.o
#        D:\00-githubFiles\HC32F460_FreeRTOS\HC32F460Temp_FreeRTOS\Debug\Obj\usbd_core.o
#        D:\00-githubFiles\HC32F460_FreeRTOS\HC32F460Temp_FreeRTOS\Debug\Obj\usbd_desc.o
#        D:\00-githubFiles\HC32F460_FreeRTOS\HC32F460Temp_FreeRTOS\Debug\Obj\usbd_ioreq.o
#        D:\00-githubFiles\HC32F460_FreeRTOS\HC32F460Temp_FreeRTOS\Debug\Obj\usbd_msc_bot.o
#        D:\00-githubFiles\HC32F460_FreeRTOS\HC32F460Temp_FreeRTOS\Debug\Obj\usbd_msc_core.o
#        D:\00-githubFiles\HC32F460_FreeRTOS\HC32F460Temp_FreeRTOS\Debug\Obj\usbd_msc_data.o
#        D:\00-githubFiles\HC32F460_FreeRTOS\HC32F460Temp_FreeRTOS\Debug\Obj\usbd_msc_scsi.o
#        D:\00-githubFiles\HC32F460_FreeRTOS\HC32F460Temp_FreeRTOS\Debug\Obj\usbd_req.o
#        D:\00-githubFiles\HC32F460_FreeRTOS\HC32F460Temp_FreeRTOS\Debug\Obj\usbd_storage_msd.o
#        D:\00-githubFiles\HC32F460_FreeRTOS\HC32F460Temp_FreeRTOS\Debug\Obj\usbd_usr.o
#        D:\00-githubFiles\HC32F460_FreeRTOS\HC32F460Temp_FreeRTOS\Debug\Obj\User_ADC.o
#        D:\00-githubFiles\HC32F460_FreeRTOS\HC32F460Temp_FreeRTOS\Debug\Obj\User_CAN.o
#        D:\00-githubFiles\HC32F460_FreeRTOS\HC32F460Temp_FreeRTOS\Debug\Obj\User_Crypto.o
#        D:\00-githubFiles\HC32F460_FreeRTOS\HC32F460Temp_FreeRTOS\Debug\Obj\User_DCU.o
#        D:\00-githubFiles\HC32F460_FreeRTOS\HC32F460Temp_FreeRTOS\Debug\Obj\User_DMA.o
#        D:\00-githubFiles\HC32F460_FreeRTOS\HC32F460Temp_FreeRTOS\Debug\Obj\User_Gpio.o
#        D:\00-githubFiles\HC32F460_FreeRTOS\HC32F460Temp_FreeRTOS\Debug\Obj\User_I2C.o
#        D:\00-githubFiles\HC32F460_FreeRTOS\HC32F460Temp_FreeRTOS\Debug\Obj\User_I2S.o
#        D:\00-githubFiles\HC32F460_FreeRTOS\HC32F460Temp_FreeRTOS\Debug\Obj\User_OTS.o
#        D:\00-githubFiles\HC32F460_FreeRTOS\HC32F460Temp_FreeRTOS\Debug\Obj\User_PWC.o
#        D:\00-githubFiles\HC32F460_FreeRTOS\HC32F460Temp_FreeRTOS\Debug\Obj\User_QSPI.o
#        D:\00-githubFiles\HC32F460_FreeRTOS\HC32F460Temp_FreeRTOS\Debug\Obj\User_RTC.o
#        D:\00-githubFiles\HC32F460_FreeRTOS\HC32F460Temp_FreeRTOS\Debug\Obj\User_SDIO.o
#        D:\00-githubFiles\HC32F460_FreeRTOS\HC32F460Temp_FreeRTOS\Debug\Obj\User_Task.o
#        D:\00-githubFiles\HC32F460_FreeRTOS\HC32F460Temp_FreeRTOS\Debug\Obj\User_Timer.o
#        D:\00-githubFiles\HC32F460_FreeRTOS\HC32F460Temp_FreeRTOS\Debug\Obj\User_Timer4.o
#        D:\00-githubFiles\HC32F460_FreeRTOS\HC32F460Temp_FreeRTOS\Debug\Obj\User_Timer6.o
#        D:\00-githubFiles\HC32F460_FreeRTOS\HC32F460Temp_FreeRTOS\Debug\Obj\User_TimerA.o
#        D:\00-githubFiles\HC32F460_FreeRTOS\HC32F460Temp_FreeRTOS\Debug\Obj\User_TRNG.o
#        D:\00-githubFiles\HC32F460_FreeRTOS\HC32F460Temp_FreeRTOS\Debug\Obj\User_Uart.o
#        D:\00-githubFiles\HC32F460_FreeRTOS\HC32F460Temp_FreeRTOS\Debug\Obj\w25qxx.o
#        D:\00-githubFiles\HC32F460_FreeRTOS\HC32F460Temp_FreeRTOS\Debug\Obj\wm8731.o
#        --no_out_extension -o
#        D:\00-githubFiles\HC32F460_FreeRTOS\HC32F460Temp_FreeRTOS\Debug\Exe\HC32F460_Temp_IAR.out
#        --redirect _Printf=_PrintfFull --redirect _Scanf=_ScanfFull --map
#        D:\00-githubFiles\HC32F460_FreeRTOS\HC32F460Temp_FreeRTOS\Debug\List\HC32F460_Temp_IAR.map
#        --config
#        D:\00-githubFiles\HC32F460_FreeRTOS\HC32F460Temp_FreeRTOS\HC32F46x.icf
#        --semihosting --entry __iar_program_start "C:\Program Files (x86)\IAR
#        Systems\Embedded Workbench
#        8.3\arm\CMSIS\Lib\IAR\iar_cortexM4lf_math.a" --vfe --text_out locale)
#
###############################################################################

*******************************************************************************
*** RUNTIME MODEL ATTRIBUTES
***

CppFlavor       = *
__SystemLibrary = DLib
__dlib_version  = 6


*******************************************************************************
*** HEAP SELECTION
***

The basic heap was selected because no calls to memory allocation
functions were found in the application outside of system library
functions, and there are calls to deallocation functions in the
application.


*******************************************************************************
*** PLACEMENT SUMMARY
***

"A0":  place at address 0x0 { ro section .intvec };
"P1":  place in [from 0x0 to 0x7'ffff] { ro };
define block CSTACK with size = 1K, alignment = 8 { };
define block HEAP with size = 1K, alignment = 8 { };
"P2":  place in [from 0x1fff'8000 to 0x1fff'ffff] |
                [from 0x2000'0000 to 0x2000'ffff repeat 2] |
                [from 0x2002'0000 to 0x2002'6fff] |
                [from 0x200f'0000 to 0x200f'0fff] {
          rw, block CSTACK, block HEAP };
initialize by copy { rw };

  Section            Kind         Address    Size  Object
  -------            ----         -------    ----  ------
"A0":                                       0x280
  .intvec            ro code          0x0   0x280  startup_hc32f46x.o [1]
                                  - 0x280   0x280

"P1", part 1 of 2:                          0x11c
  .text              ro code        0x280    0x38  hc32f46x_exint_nmi_swi.o [1]
  .text              ro code        0x2b8    0x14  cmsis_os.o [1]
  .text              ro code        0x2cc     0x2  User_PWC.o [1]
  .text              ro code        0x2ce    0x3a  zero_init3.o [5]
  .text              ro code        0x308    0x94  list.o [1]
                                  - 0x39c   0x11c

Absolute sections:                           0x20
  .rodata            const          0x400    0x20  hc32f46x_icg.o [1]
                                  - 0x420    0x20

"P1", part 2 of 2:                         0x7a28
  .text              ro code        0x420  0x1c94  hc32f46x_interrupts.o [1]
  .text              ro code       0x20b4   0x51c  tasks.o [1]
  .text              ro code       0x25d0   0x1c8  port.o [1]
  .text              ro code       0x2798   0x1c4  heap_4.o [1]
  CODE               ro code       0x295c    0xb0  portasm.o [1]
  .text              ro code       0x2a0c  0x10c6  xprintffull.o [2]
  .text              ro code       0x3ad2    0x2e  copy_init3.o [5]
  .text              ro code       0x3b00    0x7c  xlocale_c.o [2]
  .text              ro code       0x3b7c    0x16  strchr.o [5]
  .text              ro code       0x3b92    0x1e  xencoding_8859_1.o [2]
  .text              ro code       0x3bb0    0x40  xfail_s.o [2]
  .text              ro code       0x3bf0    0x36  strlen.o [5]
  .text              ro code       0x3c26     0xa  xsprout.o [2]
  .text              ro code       0x3c30    0x58  memchr.o [5]
  .text              ro code       0x3c88    0xa6  ABImemcpy.o [5]
  .rodata            const         0x3d2e     0x2  xlocale_c.o [2]
  .text              ro code       0x3d30    0x70  frexp.o [4]
  .text              ro code       0x3da0    0x2e  DblCmpLe.o [4]
  .rodata            const         0x3dce     0x2  xlocale_c.o [2]
  .text              ro code       0x3dd0    0x2e  DblCmpGe.o [4]
  .rodata            const         0x3dfe     0x1  xlocale_c.o [2]
  .text              ro code       0x3e00   0x13a  ldexp.o [4]
  .text              ro code       0x3f3c    0x3a  DblToS32.o [4]
  .text              ro code       0x3f78    0x22  S32ToDbl.o [4]
  .text              ro code       0x3f9c    0xe2  DblSub.o [4]
  .text              ro code       0x4080   0x246  DblDiv.o [4]
  .text              ro code       0x42c8    0x28  DblToU32.o [4]
  .text              ro code       0x42f0    0x1a  U32ToDbl.o [4]
  .text              ro code       0x430c   0x1a2  DblMul.o [4]
  .text              ro code       0x44ae     0xa  xmbcurmax.o [2]
  .text              ro code       0x44b8   0x230  I64DivMod.o [5]
  .text              ro code       0x46e8     0x6  abort.o [2]
  .text              ro code       0x46f0   0x16a  DblAdd.o [4]
  .text              ro code       0x485c     0x2  I64DivZer.o [5]
  .text              ro code       0x4860    0x14  exit.o [6]
  .text              ro code       0x4874   0x83c  hc32f46x_clk.o [1]
  .text              ro code       0x50b0    0xa8  system_hc32f46x.o [1]
  .text              ro code       0x5158   0x704  hc32f46x_pwc.o [1]
  .text              ro code       0x585c   0x20c  hc32f46x_utility.o [1]
  .rodata            const         0x5a68   0x5f0  OLED_port.o [1]
  .text              ro code       0x6058   0x428  OLED.o [1]
  .text              ro code       0x6480    0xda  OLED_port.o [1]
  .text              ro code       0x655c   0x164  hc32f46x_gpio.o [1]
  .text              ro code       0x66c0   0x208  HW_I2C.o [1]
  .text              ro code       0x68c8   0x1d4  hc32f46x_i2c.o [1]
  .text              ro code       0x6a9c   0x41c  SEGGER_RTT_printf.o [1]
  .text              ro code       0x6eb8   0x1a4  SEGGER_RTT.o [1]
  .text              ro code       0x705c   0x214  System_Clk.o [1]
  .text              ro code       0x7270     0x6  ABImemclr4.o [5]
  .text              ro code       0x7278    0x4c  hc32f46x_efm.o [1]
  .text              ro code       0x72c4    0x24  hc32f46x_sram.o [1]
  .text              ro code       0x72e8    0x32  ABImemset48.o [5]
  .text              ro code       0x731c   0x1e4  User_Gpio.o [1]
  .text              ro code       0x7500    0x28  printf.o [2]
  .text              ro code       0x7528    0x70  System_PowerDown.o [1]
  .text              ro code       0x7598   0x114  User_ADC.o [1]
  .text              ro code       0x76ac    0xd8  hc32f46x_adc.o [1]
  .text              ro code       0x7784   0x104  Task_ADC.o [1]
  .text              ro code       0x7888    0x86  queue.o [1]
  .text              ro code       0x7910    0x40  sprintf.o [2]
  .text              ro code       0x7950    0x66  ABImemset.o [5]
  .text              ro code       0x79b8    0x84  main.o [1]
  .text              ro code       0x7a3c    0x34  bsp_rtc.o [1]
  .text              ro code       0x7a70    0x44  User_Task.o [1]
  .text              ro code       0x7ab4    0x7c  hc32f46x_rtc.o [1]
  .text              ro code       0x7b30    0x48  Task_LED.o [1]
  .text              ro code       0x7b78    0x4c  Task_display.o [1]
  .rodata            const         0x7bc4    0x78  main.o [1]
  .text              ro code       0x7c40    0x44  startup_hc32f46x.o [1]
  .text              ro code       0x7c84    0x28  data_init.o [5]
  .text              ro code       0x7cac    0x22  fpinit_M.o [4]
  .iar.init_table    const         0x7cd0    0x24  - Linker created -
  .text              ro code       0x7cf4    0x1e  cmain.o [5]
  .text              ro code       0x7d12     0x4  low_level_init.o [2]
  .text              ro code       0x7d16     0x4  exit.o [2]
  .text              ro code       0x7d1c     0xa  cexit.o [5]
  .text              ro code       0x7d26    0x16  xprout.o [2]
  .text              ro code       0x7d3c     0xc  putchar.o [2]
  .text              ro code       0x7d48     0xc  cstartup_M.o [5]
  .text              ro code       0x7d54     0x4  startup_hc32f46x.o [1]
  .text              ro code       0x7d58     0x4  startup_hc32f46x.o [1]
  .text              ro code       0x7d5c     0x4  startup_hc32f46x.o [1]
  .rodata            const         0x7d60     0x0  zero_init3.o [5]
  .rodata            const         0x7d60     0x0  copy_init3.o [5]
  Initializer bytes  const         0x7d60    0xe8  <for P2 s0>
                                 - 0x7e48  0x7a28

"P2", part 1 of 3:                           0xe8
  P2 s0                       0x1fff'8000    0xe8  <Init block>
    .data            inited   0x1fff'8000    0x48  xlocale_c.o [2]
    .data            inited   0x1fff'8048    0x48  xfiles.o [2]
    .data            inited   0x1fff'8090    0x38  xlocale_c.o [2]
    .data            inited   0x1fff'80c8     0xc  port.o [1]
    .data            inited   0x1fff'80d4     0x8  hc32f46x_i2c.o [1]
    .data            inited   0x1fff'80dc     0x8  system_hc32f46x.o [1]
    .data            inited   0x1fff'80e4     0x3  hc32f46x_pwc.o [1]
                            - 0x1fff'80e8    0xe8

"P2", part 2 of 3:                         0x4ad8
  .bss               zero     0x1fff'80e8  0x3c18  heap_4.o [1]
  .bss               zero     0x1fff'bd00   0x4b8  SEGGER_RTT.o [1]
  .bss               zero     0x1fff'c1b8   0x400  OLED.o [1]
  .bss               zero     0x1fff'c5b8   0x200  hc32f46x_interrupts.o [1]
  .bss               zero     0x1fff'c7b8   0x200  OLED.o [1]
  .bss               zero     0x1fff'c9b8    0xa0  tasks.o [1]
  .bss               zero     0x1fff'ca58    0x8c  tasks.o [1]
  .bss               zero     0x1fff'cae4    0x50  xfiles.o [2]
  .bss               zero     0x1fff'cb34    0x38  main.o [1]
  .bss               zero     0x1fff'cb6c    0x1c  Task_ADC.o [1]
  .bss               zero     0x1fff'cb88    0x18  hc32f46x_pwc.o [1]
  .bss               zero     0x1fff'cba0     0x4  hc32f46x_exint_nmi_swi.o [1]
  .bss               zero     0x1fff'cba4     0x4  Task_ADC.o [1]
  .bss               zero     0x1fff'cba8     0x4  Task_display.o [1]
  .bss               zero     0x1fff'cbac     0x4  Task_LED.o [1]
  .bss               zero     0x1fff'cbb0     0x4  User_Task.o [1]
  .bss               zero     0x1fff'cbb4     0x4  xfail_s.o [2]
  .bss               zero     0x1fff'cbb8     0x2  User_ADC.o [1]
  .bss               zero     0x1fff'cbba     0x1  User_Gpio.o [1]
  .bss               zero     0x1fff'cbbb     0x1  User_Gpio.o [1]
  .bss               zero     0x1fff'cbbc     0x1  User_Gpio.o [1]
                            - 0x1fff'cbbd  0x4ad5

"P2", part 3 of 3:                          0x400
  CSTACK                      0x1fff'cbc0   0x400  <Block>
    CSTACK           uninit   0x1fff'cbc0   0x400  <Block tail>
                            - 0x1fff'cfc0   0x400

Unused ranges:

         From           To      Size
         ----           --      ----
        0x39c        0x3ff      0x64
       0x7e48     0x7'ffff  0x7'81b8
  0x1fff'cfc0  0x1fff'ffff    0x3040
  0x2000'0000  0x2000'ffff  0x1'0000
  0x2001'0000  0x2001'ffff  0x1'0000
  0x2002'0000  0x2002'6fff    0x7000
  0x200f'0000  0x200f'0fff    0x1000


*******************************************************************************
*** INIT TABLE
***

          Address      Size
          -------      ----
Zero (__iar_zero_init3)
    1 destination range, total size 0x4ad5:
          0x1fff'80e8  0x4ad5

Copy (__iar_copy_init3)
    1 source range, total size 0xe8 (100% of destination):
               0x7d60    0xe8
    1 destination range, total size 0xe7:
          0x1fff'8000    0xe7



*******************************************************************************
*** MODULE SUMMARY
***

    Module                    ro code  ro data  rw data  ro data
                                                          (abs)
    ------                    -------  -------  -------  -------
command line/config:
    ------------------------------------------------------------
    Total:

D:\00-githubFiles\HC32F460_FreeRTOS\HC32F460Temp_FreeRTOS\Debug\Obj: [1]
    HW_I2C.o                      520
    OLED.o                      1'064             1'536
    OLED_port.o                   218    1'520
    SEGGER_RTT.o                  420             1'208
    SEGGER_RTT_printf.o         1'052
    System_Clk.o                  532
    System_PowerDown.o            112
    Task_ADC.o                    260                32
    Task_LED.o                     72                 4
    Task_display.o                 76                 4
    User_ADC.o                    276                 2
    User_Gpio.o                   484                 3
    User_PWC.o                      2
    User_Task.o                    68                 4
    bsp_rtc.o                      52
    cmsis_os.o                     20
    hc32f46x_adc.o                216
    hc32f46x_clk.o              2'108
    hc32f46x_efm.o                 76
    hc32f46x_exint_nmi_swi.o       56                 4
    hc32f46x_gpio.o               356
    hc32f46x_i2c.o                468        8        8
    hc32f46x_icg.o                                            32
    hc32f46x_interrupts.o       7'316               512
    hc32f46x_pwc.o              1'796        3       27
    hc32f46x_rtc.o                124
    hc32f46x_sram.o                36
    hc32f46x_utility.o            524
    heap_4.o                      452            15'384
    list.o                        148
    main.o                        132      120       56
    port.o                        456       12       12
    portasm.o                     176
    queue.o                       134
    startup_hc32f46x.o            720
    system_hc32f46x.o             168        8        8
    tasks.o                     1'308               300
    ------------------------------------------------------------
    Total:                     21'998    1'671   19'104       32

dl7M_tlf.a: [2]
    abort.o                         6
    exit.o                          4
    low_level_init.o                4
    printf.o                       40
    putchar.o                      12
    sprintf.o                      64
    xencoding_8859_1.o             30
    xfail_s.o                      64                 4
    xfiles.o                                72      152
    xlocale_c.o                   124      133      128
    xmbcurmax.o                    10
    xprintffull.o               4'294
    xprout.o                       22
    xsprout.o                      10
    ------------------------------------------------------------
    Total:                      4'684      205      284

iar_cortexM4lf_math.a: [3]
    ------------------------------------------------------------
    Total:

m7M_tls.a: [4]
    DblAdd.o                      362
    DblCmpGe.o                     46
    DblCmpLe.o                     46
    DblDiv.o                      582
    DblMul.o                      418
    DblSub.o                      226
    DblToS32.o                     58
    DblToU32.o                     40
    S32ToDbl.o                     34
    U32ToDbl.o                     26
    fpinit_M.o                     34
    frexp.o                       112
    ldexp.o                       314
    ------------------------------------------------------------
    Total:                      2'298

rt7M_tl.a: [5]
    ABImemclr4.o                    6
    ABImemcpy.o                   166
    ABImemset.o                   102
    ABImemset48.o                  50
    I64DivMod.o                   560
    I64DivZer.o                     2
    cexit.o                        10
    cmain.o                        30
    copy_init3.o                   46
    cstartup_M.o                   12
    data_init.o                    40
    memchr.o                       88
    strchr.o                       22
    strlen.o                       54
    zero_init3.o                   58
    ------------------------------------------------------------
    Total:                      1'246

shb_l.a: [6]
    exit.o                         20
    ------------------------------------------------------------
    Total:                         20

    Gaps                           35        2
    Linker created                          37    1'024
----------------------------------------------------------------
    Grand Total:               30'281    1'915   20'412       32


*******************************************************************************
*** ENTRY LIST
***

Entry                       Address    Size  Type      Object
-----                       -------    ----  ----      ------
.iar.init_table$$Base        0x7cd0           --   Gb  - Linker created -
.iar.init_table$$Limit       0x7cf4           --   Gb  - Linker created -
?main                        0x7cf5          Code  Gb  cmain.o [5]
ADC1_AIN10_Data         0x1fff'cbb8     0x2  Data  Gb  User_ADC.o [1]
ADC1_Start_convert           0x75b1     0x8  Code  Gb  User_ADC.o [1]
ADC_AddAdcChannel            0x76f9    0x84  Code  Gb  hc32f46x_adc.o [1]
ADC_EOCA_CallBack            0x75a7     0xa  Code  Gb  User_ADC.o [1]
ADC_Init                     0x76ad    0x4c  Code  Gb  hc32f46x_adc.o [1]
BusFault_Handler              0x4c5     0x8  Code  Gb  hc32f46x_interrupts.o [1]
CLK_ClearXtalStdFlag         0x502d    0x2e  Code  Gb  hc32f46x_clk.o [1]
CLK_GetClockFreq             0x4dc9    0xd4  Code  Gb  hc32f46x_clk.o [1]
CLK_GetFlagStatus            0x4fed    0x36  Code  Gb  hc32f46x_clk.o [1]
CLK_GetPllClockFreq          0x4e9d   0x100  Code  Gb  hc32f46x_clk.o [1]
CLK_HrcCmd                   0x4a1b    0x62  Code  Gb  hc32f46x_clk.o [1]
CLK_LrcCmd                   0x4aa1    0x54  Code  Gb  hc32f46x_clk.o [1]
CLK_MpllCmd                  0x4b25    0x56  Code  Gb  hc32f46x_clk.o [1]
CLK_MpllConfig               0x4b13    0x12  Code  Gb  hc32f46x_clk.o [1]
CLK_SetPeriClkSource         0x4fcd    0x20  Code  Gb  hc32f46x_clk.o [1]
CLK_SetPllSource             0x4af5    0x1e  Code  Gb  hc32f46x_clk.o [1]
CLK_SetSysClkSource          0x4c43    0xb2  Code  Gb  hc32f46x_clk.o [1]
CLK_SetUsbClkSource          0x4f9d    0x1e  Code  Gb  hc32f46x_clk.o [1]
CLK_SysClkConfig             0x4cf5    0xd4  Code  Gb  hc32f46x_clk.o [1]
CLK_UpllCmd                  0x4be5    0x5e  Code  Gb  hc32f46x_clk.o [1]
CLK_UpllConfig               0x4b7b    0x10  Code  Gb  hc32f46x_clk.o [1]
CLK_Xtal32Cmd                0x49c7    0x54  Code  Gb  hc32f46x_clk.o [1]
CLK_Xtal32Config             0x4989    0x3e  Code  Gb  hc32f46x_clk.o [1]
CLK_XtalCmd                  0x491f    0x6a  Code  Gb  hc32f46x_clk.o [1]
CLK_XtalConfig               0x4875    0x44  Code  Gb  hc32f46x_clk.o [1]
CLK_XtalStbConfig            0x48b9    0x1c  Code  Gb  hc32f46x_clk.o [1]
CLK_XtalStpConfig            0x48d5    0x4a  Code  Gb  hc32f46x_clk.o [1]
CSTACK$$Base            0x1fff'cbc0           --   Gb  - Linker created -
CSTACK$$Limit           0x1fff'cfc0           --   Gb  - Linker created -
CacheMore                    0x3b05    0x28  Code  Lc  xlocale_c.o [2]
Clkdata                 0x1fff'cb34    0x20  Data  Gb  main.o [1]
Ddl_Delay1ms                 0x59d7    0x2c  Code  Gb  hc32f46x_utility.o [1]
Ddl_Delay1us                 0x5a03    0x32  Code  Gb  hc32f46x_utility.o [1]
Ddl_UartInit                 0x5871   0x166  Code  Gb  hc32f46x_utility.o [1]
DebugMon_Handler              0x4d5     0x8  Code  Gb  hc32f46x_interrupts.o [1]
EFM_InstructionCacheCmd
                             0x72ad     0xe  Code  Gb  hc32f46x_efm.o [1]
EFM_Lock                     0x728b    0x14  Code  Gb  hc32f46x_efm.o [1]
EFM_SetLatency               0x729f     0xe  Code  Gb  hc32f46x_efm.o [1]
EFM_Unlock                   0x7279    0x12  Code  Gb  hc32f46x_efm.o [1]
EXINT_Init                    0x281    0x2a  Code  Gb  hc32f46x_exint_nmi_swi.o [1]
F8X16                        0x5a68   0x5f0  Data  Gb  OLED_port.o [1]
Get_ADC_V11                  0x759f     0x2  Code  Gb  User_ADC.o [1]
Get_AIN10Data                0x7599     0x6  Code  Gb  User_ADC.o [1]
HRC_VALUE               0x1fff'80dc     0x4  Data  Gb  system_hc32f46x.o [1]
HW_I2C_Init                  0x66c1    0x6c  Code  Gb  HW_I2C.o [1]
H_Task_ADC              0x1fff'cba4     0x4  Data  Gb  Task_ADC.o [1]
H_Task_Display          0x1fff'cba8     0x4  Data  Gb  Task_display.o [1]
H_Task_LED              0x1fff'cbac     0x4  Data  Gb  Task_LED.o [1]
HardFault_Handler             0x4a5    0x18  Code  Gb  hc32f46x_interrupts.o [1]
Hd_Task_Start           0x1fff'cbb0     0x4  Data  Gb  User_Task.o [1]
I2C_BaudrateConfig           0x68c9   0x124  Code  Gb  hc32f46x_i2c.o [1]
I2C_ClearStatus              0x6a83     0xc  Code  Gb  hc32f46x_i2c.o [1]
I2C_Cmd                      0x6a51     0xa  Code  Gb  hc32f46x_i2c.o [1]
I2C_DeInit                   0x69ed    0x14  Code  Gb  hc32f46x_i2c.o [1]
I2C_GenerateStart            0x6a5b     0xa  Code  Gb  hc32f46x_i2c.o [1]
I2C_GenerateStop             0x6a65     0xa  Code  Gb  hc32f46x_i2c.o [1]
I2C_GetStatus                0x6a75     0xe  Code  Gb  hc32f46x_i2c.o [1]
I2C_Init                     0x6a01    0x50  Code  Gb  hc32f46x_i2c.o [1]
I2C_SendData                 0x6a6f     0x6  Code  Gb  hc32f46x_i2c.o [1]
I2C_Write_data               0x673d   0x140  Code  Gb  HW_I2C.o [1]
IRQ000_Handler                0x4eb     0xe  Code  Gb  hc32f46x_interrupts.o [1]
IRQ001_Handler                0x4f9     0xe  Code  Gb  hc32f46x_interrupts.o [1]
IRQ002_Handler                0x507     0xe  Code  Gb  hc32f46x_interrupts.o [1]
IRQ003_Handler                0x515     0xe  Code  Gb  hc32f46x_interrupts.o [1]
IRQ004_Handler                0x523     0xe  Code  Gb  hc32f46x_interrupts.o [1]
IRQ005_Handler                0x531     0xe  Code  Gb  hc32f46x_interrupts.o [1]
IRQ006_Handler                0x53f     0xe  Code  Gb  hc32f46x_interrupts.o [1]
IRQ007_Handler                0x54d     0xe  Code  Gb  hc32f46x_interrupts.o [1]
IRQ008_Handler                0x55b     0xe  Code  Gb  hc32f46x_interrupts.o [1]
IRQ009_Handler                0x569     0xe  Code  Gb  hc32f46x_interrupts.o [1]
IRQ010_Handler                0x577     0xe  Code  Gb  hc32f46x_interrupts.o [1]
IRQ011_Handler                0x585     0xe  Code  Gb  hc32f46x_interrupts.o [1]
IRQ012_Handler                0x593     0xe  Code  Gb  hc32f46x_interrupts.o [1]
IRQ013_Handler                0x5a1     0xe  Code  Gb  hc32f46x_interrupts.o [1]
IRQ014_Handler                0x5af     0xe  Code  Gb  hc32f46x_interrupts.o [1]
IRQ015_Handler                0x5bd     0xe  Code  Gb  hc32f46x_interrupts.o [1]
IRQ016_Handler                0x5cb     0xe  Code  Gb  hc32f46x_interrupts.o [1]
IRQ017_Handler                0x5d9     0xe  Code  Gb  hc32f46x_interrupts.o [1]
IRQ018_Handler                0x5e7     0xe  Code  Gb  hc32f46x_interrupts.o [1]
IRQ019_Handler                0x5f5     0xe  Code  Gb  hc32f46x_interrupts.o [1]
IRQ020_Handler                0x603     0xe  Code  Gb  hc32f46x_interrupts.o [1]
IRQ021_Handler                0x611     0xe  Code  Gb  hc32f46x_interrupts.o [1]
IRQ022_Handler                0x61f     0xe  Code  Gb  hc32f46x_interrupts.o [1]
IRQ023_Handler                0x62d     0xe  Code  Gb  hc32f46x_interrupts.o [1]
IRQ024_Handler                0x63b     0xe  Code  Gb  hc32f46x_interrupts.o [1]
IRQ025_Handler                0x649     0xe  Code  Gb  hc32f46x_interrupts.o [1]
IRQ026_Handler                0x657     0xe  Code  Gb  hc32f46x_interrupts.o [1]
IRQ027_Handler                0x665     0xe  Code  Gb  hc32f46x_interrupts.o [1]
IRQ028_Handler                0x673     0xe  Code  Gb  hc32f46x_interrupts.o [1]
IRQ029_Handler                0x681     0xe  Code  Gb  hc32f46x_interrupts.o [1]
IRQ030_Handler                0x68f     0xe  Code  Gb  hc32f46x_interrupts.o [1]
IRQ031_Handler                0x69d     0xe  Code  Gb  hc32f46x_interrupts.o [1]
IRQ032_Handler                0x6ab    0x10  Code  Gb  hc32f46x_interrupts.o [1]
IRQ033_Handler                0x6bb    0x10  Code  Gb  hc32f46x_interrupts.o [1]
IRQ034_Handler                0x6cb    0x10  Code  Gb  hc32f46x_interrupts.o [1]
IRQ035_Handler                0x6db    0x10  Code  Gb  hc32f46x_interrupts.o [1]
IRQ036_Handler                0x6eb    0x10  Code  Gb  hc32f46x_interrupts.o [1]
IRQ037_Handler                0x6fb    0x10  Code  Gb  hc32f46x_interrupts.o [1]
IRQ038_Handler                0x70b    0x10  Code  Gb  hc32f46x_interrupts.o [1]
IRQ039_Handler                0x71b    0x10  Code  Gb  hc32f46x_interrupts.o [1]
IRQ040_Handler                0x72b    0x10  Code  Gb  hc32f46x_interrupts.o [1]
IRQ041_Handler                0x73b    0x10  Code  Gb  hc32f46x_interrupts.o [1]
IRQ042_Handler                0x74b    0x10  Code  Gb  hc32f46x_interrupts.o [1]
IRQ043_Handler                0x75b    0x10  Code  Gb  hc32f46x_interrupts.o [1]
IRQ044_Handler                0x76b    0x10  Code  Gb  hc32f46x_interrupts.o [1]
IRQ045_Handler                0x77b    0x10  Code  Gb  hc32f46x_interrupts.o [1]
IRQ046_Handler                0x78b    0x10  Code  Gb  hc32f46x_interrupts.o [1]
IRQ047_Handler                0x79b    0x10  Code  Gb  hc32f46x_interrupts.o [1]
IRQ048_Handler                0x7ab    0x10  Code  Gb  hc32f46x_interrupts.o [1]
IRQ049_Handler                0x7bb    0x10  Code  Gb  hc32f46x_interrupts.o [1]
IRQ050_Handler                0x7cb    0x10  Code  Gb  hc32f46x_interrupts.o [1]
IRQ051_Handler                0x7db    0x10  Code  Gb  hc32f46x_interrupts.o [1]
IRQ052_Handler                0x7eb    0x10  Code  Gb  hc32f46x_interrupts.o [1]
IRQ053_Handler                0x7fb    0x10  Code  Gb  hc32f46x_interrupts.o [1]
IRQ054_Handler                0x80b    0x10  Code  Gb  hc32f46x_interrupts.o [1]
IRQ055_Handler                0x81b    0x10  Code  Gb  hc32f46x_interrupts.o [1]
IRQ056_Handler                0x82b    0x10  Code  Gb  hc32f46x_interrupts.o [1]
IRQ057_Handler                0x83b    0x10  Code  Gb  hc32f46x_interrupts.o [1]
IRQ058_Handler                0x84b    0x10  Code  Gb  hc32f46x_interrupts.o [1]
IRQ059_Handler                0x85b    0x10  Code  Gb  hc32f46x_interrupts.o [1]
IRQ060_Handler                0x86b    0x10  Code  Gb  hc32f46x_interrupts.o [1]
IRQ061_Handler                0x87b    0x10  Code  Gb  hc32f46x_interrupts.o [1]
IRQ062_Handler                0x88b    0x10  Code  Gb  hc32f46x_interrupts.o [1]
IRQ063_Handler                0x89b    0x10  Code  Gb  hc32f46x_interrupts.o [1]
IRQ064_Handler                0x8ab    0x10  Code  Gb  hc32f46x_interrupts.o [1]
IRQ065_Handler                0x8bb    0x10  Code  Gb  hc32f46x_interrupts.o [1]
IRQ066_Handler                0x8cb    0x10  Code  Gb  hc32f46x_interrupts.o [1]
IRQ067_Handler                0x8db    0x10  Code  Gb  hc32f46x_interrupts.o [1]
IRQ068_Handler                0x8eb    0x10  Code  Gb  hc32f46x_interrupts.o [1]
IRQ069_Handler                0x8fb    0x10  Code  Gb  hc32f46x_interrupts.o [1]
IRQ070_Handler                0x90b    0x10  Code  Gb  hc32f46x_interrupts.o [1]
IRQ071_Handler                0x91b    0x10  Code  Gb  hc32f46x_interrupts.o [1]
IRQ072_Handler                0x92b    0x10  Code  Gb  hc32f46x_interrupts.o [1]
IRQ073_Handler                0x93b    0x10  Code  Gb  hc32f46x_interrupts.o [1]
IRQ074_Handler                0x94b    0x10  Code  Gb  hc32f46x_interrupts.o [1]
IRQ075_Handler                0x95b    0x10  Code  Gb  hc32f46x_interrupts.o [1]
IRQ076_Handler                0x96b    0x10  Code  Gb  hc32f46x_interrupts.o [1]
IRQ077_Handler                0x97b    0x10  Code  Gb  hc32f46x_interrupts.o [1]
IRQ078_Handler                0x98b    0x10  Code  Gb  hc32f46x_interrupts.o [1]
IRQ079_Handler                0x99b    0x10  Code  Gb  hc32f46x_interrupts.o [1]
IRQ080_Handler                0x9ab    0x10  Code  Gb  hc32f46x_interrupts.o [1]
IRQ081_Handler                0x9bb    0x10  Code  Gb  hc32f46x_interrupts.o [1]
IRQ082_Handler                0x9cb    0x10  Code  Gb  hc32f46x_interrupts.o [1]
IRQ083_Handler                0x9db    0x10  Code  Gb  hc32f46x_interrupts.o [1]
IRQ084_Handler                0x9eb    0x10  Code  Gb  hc32f46x_interrupts.o [1]
IRQ085_Handler                0x9fb     0xe  Code  Gb  hc32f46x_interrupts.o [1]
IRQ086_Handler                0xa09     0xe  Code  Gb  hc32f46x_interrupts.o [1]
IRQ087_Handler                0xa17     0xe  Code  Gb  hc32f46x_interrupts.o [1]
IRQ088_Handler                0xa25     0xe  Code  Gb  hc32f46x_interrupts.o [1]
IRQ089_Handler                0xa33     0xe  Code  Gb  hc32f46x_interrupts.o [1]
IRQ090_Handler                0xa41     0xe  Code  Gb  hc32f46x_interrupts.o [1]
IRQ091_Handler                0xa4f     0xe  Code  Gb  hc32f46x_interrupts.o [1]
IRQ092_Handler                0xa5d     0xe  Code  Gb  hc32f46x_interrupts.o [1]
IRQ093_Handler                0xa6b     0xe  Code  Gb  hc32f46x_interrupts.o [1]
IRQ094_Handler                0xa79     0xe  Code  Gb  hc32f46x_interrupts.o [1]
IRQ095_Handler                0xa87     0xe  Code  Gb  hc32f46x_interrupts.o [1]
IRQ096_Handler                0xa95     0xe  Code  Gb  hc32f46x_interrupts.o [1]
IRQ097_Handler                0xaa3     0xe  Code  Gb  hc32f46x_interrupts.o [1]
IRQ098_Handler                0xab1     0xe  Code  Gb  hc32f46x_interrupts.o [1]
IRQ099_Handler                0xabf     0xe  Code  Gb  hc32f46x_interrupts.o [1]
IRQ100_Handler                0xacd     0xe  Code  Gb  hc32f46x_interrupts.o [1]
IRQ101_Handler                0xadb     0xe  Code  Gb  hc32f46x_interrupts.o [1]
IRQ102_Handler                0xae9     0xe  Code  Gb  hc32f46x_interrupts.o [1]
IRQ103_Handler                0xaf7     0xe  Code  Gb  hc32f46x_interrupts.o [1]
IRQ104_Handler                0xb05     0xe  Code  Gb  hc32f46x_interrupts.o [1]
IRQ105_Handler                0xb13     0xe  Code  Gb  hc32f46x_interrupts.o [1]
IRQ106_Handler                0xb21     0xe  Code  Gb  hc32f46x_interrupts.o [1]
IRQ107_Handler                0xb2f     0xe  Code  Gb  hc32f46x_interrupts.o [1]
IRQ108_Handler                0xb3d     0xe  Code  Gb  hc32f46x_interrupts.o [1]
IRQ109_Handler                0xb4b     0xe  Code  Gb  hc32f46x_interrupts.o [1]
IRQ110_Handler                0xb59     0xe  Code  Gb  hc32f46x_interrupts.o [1]
IRQ111_Handler                0xb67     0xe  Code  Gb  hc32f46x_interrupts.o [1]
IRQ112_Handler                0xb75     0xe  Code  Gb  hc32f46x_interrupts.o [1]
IRQ113_Handler                0xb83     0xe  Code  Gb  hc32f46x_interrupts.o [1]
IRQ114_Handler                0xb91     0xe  Code  Gb  hc32f46x_interrupts.o [1]
IRQ115_Handler                0xb9f     0xe  Code  Gb  hc32f46x_interrupts.o [1]
IRQ116_Handler                0xbad     0xe  Code  Gb  hc32f46x_interrupts.o [1]
IRQ117_Handler                0xbbb     0xe  Code  Gb  hc32f46x_interrupts.o [1]
IRQ118_Handler                0xbc9     0xe  Code  Gb  hc32f46x_interrupts.o [1]
IRQ119_Handler                0xbd7     0xe  Code  Gb  hc32f46x_interrupts.o [1]
IRQ120_Handler                0xbe5     0xe  Code  Gb  hc32f46x_interrupts.o [1]
IRQ121_Handler                0xbf3     0xe  Code  Gb  hc32f46x_interrupts.o [1]
IRQ122_Handler                0xc01     0xe  Code  Gb  hc32f46x_interrupts.o [1]
IRQ123_Handler                0xc0f     0xe  Code  Gb  hc32f46x_interrupts.o [1]
IRQ124_Handler                0xc1d     0xe  Code  Gb  hc32f46x_interrupts.o [1]
IRQ125_Handler                0xc2b     0xe  Code  Gb  hc32f46x_interrupts.o [1]
IRQ126_Handler                0xc39     0xe  Code  Gb  hc32f46x_interrupts.o [1]
IRQ127_Handler                0xc47     0xe  Code  Gb  hc32f46x_interrupts.o [1]
IRQ128_Handler                0xc55    0xec  Code  Gb  hc32f46x_interrupts.o [1]
IRQ129_Handler                0xd59   0x33a  Code  Gb  hc32f46x_interrupts.o [1]
IRQ130_Handler               0x1093    0xa8  Code  Gb  hc32f46x_interrupts.o [1]
IRQ131_Handler               0x113b   0x1e2  Code  Gb  hc32f46x_interrupts.o [1]
IRQ132_Handler               0x131d    0xf6  Code  Gb  hc32f46x_interrupts.o [1]
IRQ136_Handler               0x1413   0x238  Code  Gb  hc32f46x_interrupts.o [1]
IRQ137_Handler               0x164b   0x1d6  Code  Gb  hc32f46x_interrupts.o [1]
IRQ138_Handler               0x1851   0x17e  Code  Gb  hc32f46x_interrupts.o [1]
IRQ139_Handler               0x19e1    0xc4  Code  Gb  hc32f46x_interrupts.o [1]
IRQ140_Handler               0x1ae5   0x186  Code  Gb  hc32f46x_interrupts.o [1]
IRQ141_Handler               0x1c91   0x1aa  Code  Gb  hc32f46x_interrupts.o [1]
IRQ142_Handler               0x1e49    0xc0  Code  Gb  hc32f46x_interrupts.o [1]
IRQ143_Handler               0x1f1d    0x9c  Code  Gb  hc32f46x_interrupts.o [1]
IrqHandler              0x1fff'c5b8   0x200  Data  Gb  hc32f46x_interrupts.o [1]
LED0_Toggle                  0x7441    0x96  Code  Gb  User_Gpio.o [1]
LED_Status              0x1fff'cbbc     0x1  Data  Gb  User_Gpio.o [1]
LPM_TEST                     0x7551    0x1e  Code  Gb  System_PowerDown.o [1]
MemManage_Handler             0x4bd     0x8  Code  Gb  hc32f46x_interrupts.o [1]
NMI_Handler                   0x49d     0x8  Code  Gb  hc32f46x_interrupts.o [1]
NMI_IrqHandler                0x2ab     0x6  Code  Gb  hc32f46x_exint_nmi_swi.o [1]
NVIC_ISER_BAK           0x1fff'cb8c    0x14  Data  Gb  hc32f46x_pwc.o [1]
OLED_Clear                   0x61ed    0x44  Code  Gb  OLED.o [1]
OLED_Display_On              0x6059    0x1e  Code  Gb  OLED.o [1]
OLED_Init                    0x6077    0xce  Code  Gb  OLED.o [1]
OLED_Port_init               0x6481    0x26  Code  Gb  OLED_port.o [1]
OLED_Refresh                 0x6145    0xa8  Code  Gb  OLED.o [1]
OLED_ShowChar2               0x62b1   0x192  Code  Gb  OLED.o [1]
OLED_ShowString2             0x6443    0x2c  Code  Gb  OLED.o [1]
OLED_WR_Byte                 0x6551     0xa  Code  Gb  OLED_port.o [1]
PORT_DebugPortSetting        0x660d    0x26  Code  Gb  hc32f46x_gpio.o [1]
PORT_Init                    0x655d    0xb0  Code  Gb  hc32f46x_gpio.o [1]
PORT_ResetBits               0x6643     0x4  Code  Gb  hc32f46x_gpio.o [1]
PORT_SetBits                 0x6633     0x2  Code  Gb  hc32f46x_gpio.o [1]
PORT_SetFunc                 0x6647    0x60  Code  Gb  hc32f46x_gpio.o [1]
PWC_EnterStopMd              0x5451   0x3ca  Code  Gb  hc32f46x_pwc.o [1]
PWC_Fcg1PeriphClockCmd       0x51a1    0x16  Code  Gb  hc32f46x_pwc.o [1]
PWC_Fcg3PeriphClockCmd       0x51b7    0x16  Code  Gb  hc32f46x_pwc.o [1]
PWC_IrqClkBackup             0x541f    0x1c  Code  Gb  hc32f46x_pwc.o [1]
PWC_IrqClkRecover            0x543b    0x16  Code  Gb  hc32f46x_pwc.o [1]
PWC_PwrMonitorCmd            0x5179    0x28  Code  Gb  hc32f46x_pwc.o [1]
PWC_SetSysClk                0x5251    0x8e  Code  Lc  hc32f46x_pwc.o [1]
PWC_StopModeCfg              0x51cd    0x78  Code  Gb  hc32f46x_pwc.o [1]
PWC_enClockBackup            0x52df    0xee  Code  Lc  hc32f46x_pwc.o [1]
PWC_enClockRecover           0x53cd    0x52  Code  Lc  hc32f46x_pwc.o [1]
PendSV_Handler               0x295d          Code  Gb  portasm.o [1]
Pvd2_IrqHandler               0x2cd     0x2  Code  Gb  User_PWC.o [1]
RTC_Cmd                      0x7b1b     0x6  Code  Gb  hc32f46x_rtc.o [1]
RTC_Init                     0x7ab5    0x66  Code  Gb  hc32f46x_rtc.o [1]
Region$$Table$$Base          0x7cd0           --   Gb  - Linker created -
Region$$Table$$Limit         0x7cf4           --   Gb  - Linker created -
SEGGER_RTT_Write             0x700f    0x2e  Code  Gb  SEGGER_RTT.o [1]
SEGGER_RTT_WriteNoLock       0x6fb5    0x5a  Code  Gb  SEGGER_RTT.o [1]
SEGGER_RTT_printf            0x6e95    0x14  Code  Gb  SEGGER_RTT_printf.o [1]
SEGGER_RTT_vprintf           0x6ba7   0x2ea  Code  Gb  SEGGER_RTT_printf.o [1]
SRAM_CK_Disable              0x72cf     0x2  Code  Gb  hc32f46x_sram.o [1]
SRAM_CK_Enable               0x72d9     0x6  Code  Gb  hc32f46x_sram.o [1]
SRAM_WT_Disable              0x72c5     0x4  Code  Gb  hc32f46x_sram.o [1]
SRAM_WT_Enable               0x72c9     0x6  Code  Gb  hc32f46x_sram.o [1]
SVC_Handler                  0x29b5          Code  Gb  portasm.o [1]
SysTick_Handler               0x4dd     0xe  Code  Gb  hc32f46x_interrupts.o [1]
SystemCoreClock         0x1fff'80e0     0x4  Data  Gb  system_hc32f46x.o [1]
SystemCoreClockUpdate        0x50bd    0x7a  Code  Gb  system_hc32f46x.o [1]
SystemInit                   0x50b1     0xc  Code  Gb  system_hc32f46x.o [1]
System_Enter_StopMode        0x7529    0x26  Code  Gb  System_PowerDown.o [1]
Task_ADC                     0x7785    0xa6  Code  Lc  Task_ADC.o [1]
Task_ADC_Start               0x782d    0x1e  Code  Gb  Task_ADC.o [1]
Task_Display                 0x7b79    0x12  Code  Lc  Task_display.o [1]
Task_Display_Start           0x7b8d    0x1e  Code  Gb  Task_display.o [1]
Task_LED                     0x7b31    0x14  Code  Lc  Task_LED.o [1]
Task_LED_Start               0x7b45    0x1e  Code  Gb  Task_LED.o [1]
Task_START                   0x7a71    0x18  Code  Gb  User_Task.o [1]
UsageFault_Handler            0x4cd     0x8  Code  Gb  hc32f46x_interrupts.o [1]
User_ADC_Init                0x75bd    0xcc  Code  Gb  User_ADC.o [1]
User_Gpio_Init               0x734f    0xf2  Code  Gb  User_Gpio.o [1]
User_Task_Create             0x7a89    0x20  Code  Gb  User_Task.o [1]
Write_IIC_Command            0x64a7    0x50  Code  Gb  OLED_port.o [1]
Write_IIC_Data               0x64f7    0x50  Code  Gb  OLED_port.o [1]
XTAL_FAULT_Callback          0x71c7    0x44  Code  Lc  System_Clk.o [1]
XTAL_FAULT_Config            0x720b    0x56  Code  Gb  System_Clk.o [1]
_DoInit                      0x6eb9    0x54  Code  Lc  SEGGER_RTT.o [1]
_Encoding_8859_1_Mbrlen
                             0x3ba5     0x2  Code  Gb  xencoding_8859_1.o [2]
_Encoding_8859_1_Wctomb
                             0x3b93    0x12  Code  Gb  xencoding_8859_1.o [2]
_GetAvailWriteSpace          0x6f9b    0x1a  Code  Lc  SEGGER_RTT.o [1]
_LitobFull                   0x391f   0x10a  Code  Lc  xprintffull.o [2]
_Locale_lconv           0x1fff'8090    0x38  Data  Lc  xlocale_c.o [2]
_PrintUnsigned               0x6adb    0xcc  Code  Lc  SEGGER_RTT_printf.o [1]
_PrintUnsigned::_aV2C        0x6ea8    0x10  Data  Lc  SEGGER_RTT_printf.o [1]
_PrintfFull                  0x2a0d   0xcc4  Code  Gb  xprintffull.o [2]
_Prout                       0x7d27    0x16  Code  Gb  xprout.o [2]
_PutcharsFull                0x3a91    0x2e  Code  Lc  xprintffull.o [2]
_PutstrFull                  0x385f    0xc0  Code  Lc  xprintffull.o [2]
_PuttxtFull                  0x3753   0x10c  Code  Lc  xprintffull.o [2]
_SEGGER_RTT             0x1fff'bd00    0xa8  Data  Gb  SEGGER_RTT.o [1]
_SProut                      0x3c27     0xa  Code  Gb  xsprout.o [2]
_StoreChar                   0x6a9d    0x3e  Code  Lc  SEGGER_RTT_printf.o [1]
_WriteBlocking               0x6f0d    0x54  Code  Lc  SEGGER_RTT.o [1]
_WriteNoCheck                0x6f61    0x3a  Code  Lc  SEGGER_RTT.o [1]
__NVIC_DisableIRQ            0x5159    0x20  Code  Lc  hc32f46x_pwc.o [1]
__aeabi_cdcmple              0x3da1          Code  Gb  DblCmpLe.o [4]
__aeabi_cdrcmple             0x3dd1          Code  Gb  DblCmpGe.o [4]
__aeabi_d2iz                 0x3f3d          Code  Gb  DblToS32.o [4]
__aeabi_d2uiz                0x42c9          Code  Gb  DblToU32.o [4]
__aeabi_ddiv                 0x4081          Code  Gb  DblDiv.o [4]
__aeabi_dmul                 0x430d          Code  Gb  DblMul.o [4]
__aeabi_dsub                 0x3f9d          Code  Gb  DblSub.o [4]
__aeabi_i2d                  0x3f79          Code  Gb  S32ToDbl.o [4]
__aeabi_ldiv0                0x485d          Code  Gb  I64DivZer.o [5]
__aeabi_memclr4              0x7271          Code  Gb  ABImemclr4.o [5]
__aeabi_memcpy               0x3c89          Code  Gb  ABImemcpy.o [5]
__aeabi_memcpy4              0x3ca9          Code  Gb  ABImemcpy.o [5]
__aeabi_memcpy8              0x3ca9          Code  Gb  ABImemcpy.o [5]
__aeabi_memset               0x7951          Code  Gb  ABImemset.o [5]
__aeabi_ui2d                 0x42f1          Code  Gb  U32ToDbl.o [4]
__aeabi_uldivmod             0x44b9          Code  Gb  I64DivMod.o [5]
__cmain                      0x7cf5          Code  Gb  cmain.o [5]
__exit                       0x4861    0x14  Code  Gb  exit.o [6]
__iar_Fail_s                 0x3bb1    0x1c  Code  Gb  xfail_s.o [2]
__iar_Mbcurmax               0x44af     0xa  Code  Gb  xmbcurmax.o [2]
__iar_Memchr                 0x3c31          Code  Gb  memchr.o [5]
__iar_Memset                 0x7951          Code  Gb  ABImemset.o [5]
__iar_Memset4_word           0x72e9          Code  Gb  ABImemset48.o [5]
__iar_Memset8_word           0x72e9          Code  Gb  ABImemset48.o [5]
__iar_Memset_word            0x7959          Code  Gb  ABImemset.o [5]
__iar_Stdout            0x1fff'8048    0x48  Data  Gb  xfiles.o [2]
__iar_Strchr                 0x3b7d          Code  Gb  strchr.o [5]
__iar_copy_init3             0x3ad3    0x2e  Code  Gb  copy_init3.o [5]
__iar_dadd                   0x3fad          Code  Gb  DblSub.o [4]
__iar_data_init3             0x7c85    0x28  Code  Gb  data_init.o [5]
__iar_dsub                   0x46f1          Code  Gb  DblAdd.o [4]
__iar_dsubStart              0x4703          Code  Gb  DblAdd.o [4]
__iar_frexp                  0x3d3d          Code  Gb  frexp.o [4]
__iar_frexpl                 0x3d3d          Code  Gb  frexp.o [4]
__iar_globLocale        0x1fff'8000    0x48  Data  Lc  xlocale_c.o [2]
__iar_global_Locale          0x3b01     0x4  Code  Gb  xlocale_c.o [2]
__iar_init_vfp               0x7cad          Code  Gb  fpinit_M.o [4]
__iar_ldexp64                0x3e01          Code  Gb  ldexp.o [4]
__iar_program_start          0x7d49          Code  Gb  cstartup_M.o [5]
__iar_scalbln64              0x3e01          Code  Gb  ldexp.o [4]
__iar_scalbn64               0x3e01          Code  Gb  ldexp.o [4]
__iar_softfp___iar_frexp64
                             0x3d31          Code  Gb  frexp.o [4]
__iar_softfp_frexp           0x3d31          Code  Gb  frexp.o [4]
__iar_softfp_frexpl          0x3d31          Code  Gb  frexp.o [4]
__iar_zero_init3              0x2cf    0x3a  Code  Gb  zero_init3.o [5]
__low_level_init             0x7d13     0x4  Code  Gb  low_level_init.o [2]
__vector_table                  0x0          Data  Gb  startup_hc32f46x.o [1]
_acDownBuffer           0x1fff'c1a8    0x10  Data  Lc  SEGGER_RTT.o [1]
_acUpBuffer             0x1fff'bda8   0x400  Data  Lc  SEGGER_RTT.o [1]
_call_main                   0x7d01          Code  Gb  cmain.o [5]
_exit                        0x7d1d          Code  Gb  cexit.o [5]
_gLocale_mblen               0x3b69     0x4  Code  Gb  xlocale_c.o [2]
_gLocale_mblenInt            0x3b2d    0x2c  Code  Gb  xlocale_c.o [2]
_gLocale_wctomb              0x3b6d     0x4  Code  Gb  xlocale_c.o [2]
_gLocale_wctombInt           0x3b65     0x4  Code  Gb  xlocale_c.o [2]
_main                        0x7d0f          Code  Gb  cmain.o [5]
abort                        0x46e9     0x6  Code  Gb  abort.o [2]
adc_ch10                0x1fff'cb80     0x2  Data  Gb  Task_ADC.o [1]
adc_v11                 0x1fff'cb7e     0x2  Data  Gb  Task_ADC.o [1]
bsp_rtc_init                 0x7a3d    0x2e  Code  Gb  bsp_rtc.o [1]
display_Char            0x1fff'c7b8   0x200  Data  Gb  OLED.o [1]
display_Line            0x1fff'c1b8   0x200  Data  Gb  OLED.o [1]
display_data            0x1fff'c3b8   0x200  Data  Gb  OLED.o [1]
enIntWakeupEnable             0x483    0x1a  Code  Gb  hc32f46x_interrupts.o [1]
enIrqRegistration             0x421    0x62  Code  Gb  hc32f46x_interrupts.o [1]
exit                         0x7d17     0x4  Code  Gb  exit.o [2]
flag_key0               0x1fff'cbba     0x1  Data  Gb  User_Gpio.o [1]
flag_key1               0x1fff'cbbb     0x1  Data  Gb  User_Gpio.o [1]
fputc                        0x585d    0x12  Code  Gb  hc32f46x_utility.o [1]
insertdisplaydata            0x6231    0x80  Code  Gb  OLED.o [1]
key0_int_callback            0x731d    0x18  Code  Gb  User_Gpio.o [1]
key1_int_callback            0x7335    0x1a  Code  Gb  User_Gpio.o [1]
ldexp                        0x3e01          Code  Gb  ldexp.o [4]
ldexpl                       0x3e01          Code  Gb  ldexp.o [4]
localeconv                   0x3b71     0x4  Code  Gb  xlocale_c.o [2]
main                         0x79b9    0x84  Code  Gb  main.o [1]
memchr                       0x3c31          Code  Gb  memchr.o [5]
num                     0x1fff'cb7c     0x1  Data  Gb  Task_ADC.o [1]
obuf                    0x1fff'cae4    0x50  Data  Lc  xfiles.o [2]
osSystickHandler              0x2b9    0x14  Code  Gb  cmsis_os.o [1]
pfnNmiCallback          0x1fff'cba0     0x4  Data  Lc  hc32f46x_exint_nmi_swi.o [1]
pllfreq                 0x1fff'cb54    0x18  Data  Gb  main.o [1]
printf                       0x7501    0x28  Code  Gb  printf.o [2]
prvIdleTask                  0x2519    0x6a  Code  Lc  tasks.o [1]
prvInsertBlockIntoFreeList
                             0x290f    0x48  Code  Lc  heap_4.o [1]
prvResetNextTaskUnblockTime
                             0x2583    0x1a  Code  Lc  tasks.o [1]
prvTaskExitError             0x25f9    0x1c  Code  Lc  port.o [1]
putchar                      0x7d3d     0xc  Code  Gb  putchar.o [2]
pvPortMalloc                 0x2799   0x11e  Code  Gb  heap_4.o [1]
pxCurrentTCB            0x1fff'c9e0     0x4  Data  Gb  tasks.o [1]
pxDelayedTaskList       0x1fff'c9e4     0x4  Data  Lc  tasks.o [1]
pxEnd                   0x1fff'80f0     0x4  Data  Lc  heap_4.o [1]
pxOverflowDelayedTaskList
                        0x1fff'c9e8     0x4  Data  Lc  tasks.o [1]
pxPortInitialiseStack        0x25d1    0x26  Code  Gb  port.o [1]
pxReadyTasksLists       0x1fff'ca58    0x8c  Data  Lc  tasks.o [1]
scalbln                      0x3e01          Code  Gb  ldexp.o [4]
scalblnl                     0x3e01          Code  Gb  ldexp.o [4]
scalbn                       0x3e01          Code  Gb  ldexp.o [4]
scalbnl                      0x3e01          Code  Gb  ldexp.o [4]
scale                        0x3a29    0x46  Code  Lc  xprintffull.o [2]
sec_hand                0x1fff'cbb4     0x4  Data  Lc  xfail_s.o [2]
sprintf                      0x7911    0x40  Code  Gb  sprintf.o [2]
strchr                       0x3b7d          Code  Gb  strchr.o [5]
string                  0x1fff'cb6c    0x10  Data  Gb  Task_ADC.o [1]
strlen                       0x3bf1          Code  Gb  strlen.o [5]
system_clk_init              0x705d   0x16a  Code  Gb  System_Clk.o [1]
u32ICG                        0x400    0x20  Data  Gb  hc32f46x_icg.o [1]
u8FreqDiv               0x1fff'80d4     0x8  Data  Lc  hc32f46x_i2c.o [1]
u8HrcState              0x1fff'80e4     0x1  Data  Gb  hc32f46x_pwc.o [1]
u8MrcState              0x1fff'80e5     0x1  Data  Gb  hc32f46x_pwc.o [1]
u8StopFlag              0x1fff'cb89     0x1  Data  Gb  hc32f46x_pwc.o [1]
u8SysClkSrc             0x1fff'80e6     0x1  Data  Gb  hc32f46x_pwc.o [1]
u8WkupIntCnt            0x1fff'cb88     0x1  Data  Gb  hc32f46x_pwc.o [1]
ucHeap                  0x1fff'8100  0x3c00  Data  Lc  heap_4.o [1]
ucMaxSysCallPriority    0x1fff'80c8     0x1  Data  Lc  port.o [1]
ulMaxPRIGROUPValue      0x1fff'80d0     0x4  Data  Lc  port.o [1]
uxCriticalNesting       0x1fff'80cc     0x4  Data  Lc  port.o [1]
uxCurrentNumberOfTasks  0x1fff'ca04     0x4  Data  Lc  tasks.o [1]
uxDeletedTasksWaitingCleanUp
                        0x1fff'c9ec     0x4  Data  Lc  tasks.o [1]
uxListRemove                  0x379    0x24  Code  Gb  list.o [1]
uxPendedTicks           0x1fff'ca14     0x4  Data  Lc  tasks.o [1]
uxSchedulerSuspended    0x1fff'ca28     0x4  Data  Lc  tasks.o [1]
uxTaskNumber            0x1fff'ca20     0x4  Data  Lc  tasks.o [1]
uxTopReadyPriority      0x1fff'ca0c     0x4  Data  Lc  tasks.o [1]
vListInitialise               0x309    0x1a  Code  Gb  list.o [1]
vListInitialiseItem           0x323     0x6  Code  Gb  list.o [1]
vListInsert                   0x345    0x34  Code  Gb  list.o [1]
vListInsertEnd                0x329    0x1c  Code  Gb  list.o [1]
vPortEnableVFP               0x29f1          Code  Gb  portasm.o [1]
vPortEnterCritical           0x26d7    0x32  Code  Gb  port.o [1]
vPortExitCritical            0x2709    0x22  Code  Gb  port.o [1]
vPortFree                    0x28b7    0x58  Code  Gb  heap_4.o [1]
vPortStartFirstTask          0x29d1          Code  Gb  portasm.o [1]
vTaskDelay                   0x2261    0x7e  Code  Gb  tasks.o [1]
vTaskStartScheduler          0x22df    0x62  Code  Gb  tasks.o [1]
vTaskSuspendAll              0x2341     0xc  Code  Gb  tasks.o [1]
vTaskSwitchContext           0x24c3    0x54  Code  Gb  tasks.o [1]
xBlockAllocatedBit      0x1fff'80fc     0x4  Data  Lc  heap_4.o [1]
xDelayedTaskList1       0x1fff'ca2c    0x14  Data  Lc  tasks.o [1]
xDelayedTaskList2       0x1fff'ca40    0x14  Data  Lc  tasks.o [1]
xFreeBytesRemaining     0x1fff'80f4     0x4  Data  Lc  heap_4.o [1]
xIdleTaskHandle         0x1fff'ca54     0x4  Data  Lc  tasks.o [1]
xMinimumEverFreeBytesRemaining
                        0x1fff'80f8     0x4  Data  Lc  heap_4.o [1]
xNextTaskUnblockTime    0x1fff'ca24     0x4  Data  Lc  tasks.o [1]
xNumOfOverflows         0x1fff'ca1c     0x4  Data  Lc  tasks.o [1]
xPendingReadyList       0x1fff'c9b8    0x14  Data  Lc  tasks.o [1]
xPortStartScheduler          0x2615    0xc2  Code  Gb  port.o [1]
xPortSysTickHandler          0x272b    0x26  Code  Gb  port.o [1]
xQueueGenericCreate          0x7889    0x86  Code  Gb  queue.o [1]
xQueue_ADC              0x1fff'cb84     0x4  Data  Gb  Task_ADC.o [1]
xSchedulerRunning       0x1fff'ca10     0x4  Data  Lc  tasks.o [1]
xStart                  0x1fff'80e8     0x8  Data  Lc  heap_4.o [1]
xSuspendedTaskList      0x1fff'c9f0    0x14  Data  Lc  tasks.o [1]
xTaskCreate                  0x20b5   0x1ac  Code  Gb  tasks.o [1]
xTaskGetSchedulerState       0x259d    0x18  Code  Gb  tasks.o [1]
xTaskIncrementTick           0x23ff    0xc4  Code  Gb  tasks.o [1]
xTaskResumeAll               0x234d    0xb2  Code  Gb  tasks.o [1]
xTasksWaitingTermination
                        0x1fff'c9cc    0x14  Data  Lc  tasks.o [1]
xTickCount              0x1fff'ca08     0x4  Data  Lc  tasks.o [1]
xYieldPending           0x1fff'ca18     0x4  Data  Lc  tasks.o [1]


[1] = D:\00-githubFiles\HC32F460_FreeRTOS\HC32F460Temp_FreeRTOS\Debug\Obj
[2] = dl7M_tlf.a
[3] = iar_cortexM4lf_math.a
[4] = m7M_tls.a
[5] = rt7M_tl.a
[6] = shb_l.a

  30'281 bytes of readonly  code memory
   1'915 bytes of readonly  data memory (+ 32 absolute)
  20'412 bytes of readwrite data memory

Errors: none
Warnings: none
