Component: ARM Compiler 5.06 update 7 (build 960) Tool: armlink [4d3601]

==============================================================================

Section Cross References

    startup_hc32f460.o(RESET) refers to startup_hc32f460.o(STACK) for __initial_sp
    startup_hc32f460.o(RESET) refers to startup_hc32f460.o(.text) for Reset_Handler
    startup_hc32f460.o(.text) refers to system_hc32f460.o(i.SystemInit) for SystemInit
    startup_hc32f460.o(.text) refers to entry.o(.ARM.Collect$$$$00000000) for __main
    system_hc32f460.o(i.SystemCoreClockUpdate) refers to system_hc32f460.o(.data) for HRC_VALUE
    system_hc32f460.o(i.SystemInit) refers to system_hc32f460.o(i.SystemCoreClockUpdate) for SystemCoreClockUpdate
    main.o(i.main) refers to hc32f460_gpio.o(i.PORT_Init) for PORT_Init
    main.o(i.main) refers to hc32f460_gpio.o(i.PORT_Toggle) for PORT_Toggle
    main.o(i.main) refers to hc32f460_utility.o(i.Ddl_Delay1ms) for Ddl_Delay1ms
    hc32f460_utility.o(i.Ddl_Delay1ms) refers to system_hc32f460.o(.data) for SystemCoreClock
    hc32f460_utility.o(i.Ddl_Delay1us) refers to system_hc32f460.o(.data) for SystemCoreClock
    hc32f460_utility.o(i.SysTick_Delay) refers to hc32f460_utility.o(i.SysTick_GetTick) for SysTick_GetTick
    hc32f460_utility.o(i.SysTick_Delay) refers to hc32f460_utility.o(.data) for m_u32TickStep
    hc32f460_utility.o(i.SysTick_GetTick) refers to hc32f460_utility.o(.data) for m_u32TickCount
    hc32f460_utility.o(i.SysTick_IncTick) refers to hc32f460_utility.o(.data) for m_u32TickCount
    hc32f460_utility.o(i.SysTick_Init) refers to hc32f460_utility.o(.data) for m_u32TickStep
    hc32f460_utility.o(i.SysTick_Init) refers to system_hc32f460.o(.data) for SystemCoreClock
    hc32f460_exint_nmi_swi.o(i.EXINT_Init) refers to hc32f460_utility.o(i.Ddl_AssertHandler) for Ddl_AssertHandler
==============================================================================

Removing Unused input sections from the image.

    Removing startup_hc32f460.o(HEAP), (512 bytes).
    Removing system_hc32f460.o(.rev16_text), (4 bytes).
    Removing system_hc32f460.o(.revsh_text), (4 bytes).
    Removing system_hc32f460.o(.rrx_text), (6 bytes).
    Removing main.o(.rev16_text), (4 bytes).
    Removing main.o(.revsh_text), (4 bytes).
    Removing main.o(.rrx_text), (6 bytes).
    Removing hc32f460_icg.o(.rev16_text), (4 bytes).
    Removing hc32f460_icg.o(.revsh_text), (4 bytes).
    Removing hc32f460_icg.o(.rrx_text), (6 bytes).
    Removing hc32f460_utility.o(.rev16_text), (4 bytes).
    Removing hc32f460_utility.o(.revsh_text), (4 bytes).
    Removing hc32f460_utility.o(.rrx_text), (6 bytes).
    Removing hc32f460_utility.o(i.Ddl_Delay1us), (68 bytes).
    Removing hc32f460_utility.o(i.SysTick_Delay), (76 bytes).
    Removing hc32f460_utility.o(i.SysTick_GetTick), (12 bytes).
    Removing hc32f460_utility.o(i.SysTick_IncTick), (24 bytes).
    Removing hc32f460_utility.o(i.SysTick_Init), (128 bytes).
==============================================================================

Image Symbol Table

    Local Symbols

    Symbol Name                              Value     Ov Type        Size  Object(Section)

    RESET                                    0x00000000   Section      640  startup_hc32f460.o(RESET)
    ../clib/microlib/init/entry.s            0x00000000   Number         0  entry9a.o ABSOLUTE
    ../clib/microlib/init/entry.s            0x00000000   Number         0  entry12b.o ABSOLUTE
    ../clib/microlib/init/entry.s            0x00000000   Number         0  entry11b.o ABSOLUTE
    ../clib/microlib/init/entry.s            0x00000000   Number         0  entry5.o ABSOLUTE
    ../clib/microlib/init/entry.s            0x00000000   Number         0  entry7a.o ABSOLUTE
    ../clib/microlib/init/entry.s            0x00000000   Number         0  entry11a.o ABSOLUTE
    ../clib/microlib/init/entry.s            0x00000000   Number         0  entry10b.o ABSOLUTE
    ../clib/microlib/init/entry.s            0x00000000   Number         0  entry7b.o ABSOLUTE
    ../clib/microlib/init/entry.s            0x00000000   Number         0  entry8a.o ABSOLUTE
    ../clib/microlib/init/entry.s            0x00000000   Number         0  entry10a.o ABSOLUTE
    ../clib/microlib/init/entry.s            0x00000000   Number         0  entry9b.o ABSOLUTE
    ../clib/microlib/init/entry.s            0x00000000   Number         0  entry8b.o ABSOLUTE
    ../clib/microlib/init/entry.s            0x00000000   Number         0  entry12a.o ABSOLUTE
    ../clib/microlib/init/entry.s            0x00000000   Number         0  entry2.o ABSOLUTE
    ../clib/microlib/init/entry.s            0x00000000   Number         0  entry.o ABSOLUTE
    ..\..\..\..\..\driver\src\hc32f460_exint_nmi_swi.c 0x00000000   Number         0  hc32f460_exint_nmi_swi.o ABSOLUTE
    ..\..\..\..\..\driver\src\hc32f460_gpio.c 0x00000000   Number         0  hc32f460_gpio.o ABSOLUTE
    ..\..\..\..\..\driver\src\hc32f460_icg.c 0x00000000   Number         0  hc32f460_icg.o ABSOLUTE
    ..\..\..\..\..\driver\src\hc32f460_keyscan.c 0x00000000   Number         0  hc32f460_keyscan.o ABSOLUTE
    ..\..\..\..\..\driver\src\hc32f460_sram.c 0x00000000   Number         0  hc32f460_sram.o ABSOLUTE
    ..\..\..\..\..\driver\src\hc32f460_utility.c 0x00000000   Number         0  hc32f460_utility.o ABSOLUTE
    ..\..\..\..\..\mcu\common\system_hc32f460.c 0x00000000   Number         0  system_hc32f460.o ABSOLUTE
    ..\\..\\..\\..\\..\\driver\\src\\hc32f460_exint_nmi_swi.c 0x00000000   Number         0  hc32f460_exint_nmi_swi.o ABSOLUTE
    ..\\..\\..\\..\\..\\driver\\src\\hc32f460_gpio.c 0x00000000   Number         0  hc32f460_gpio.o ABSOLUTE
    ..\\..\\..\\..\\..\\driver\\src\\hc32f460_icg.c 0x00000000   Number         0  hc32f460_icg.o ABSOLUTE
    ..\\..\\..\\..\\..\\driver\\src\\hc32f460_keyscan.c 0x00000000   Number         0  hc32f460_keyscan.o ABSOLUTE
    ..\\..\\..\\..\\..\\driver\\src\\hc32f460_sram.c 0x00000000   Number         0  hc32f460_sram.o ABSOLUTE
    ..\\..\\..\\..\\..\\driver\\src\\hc32f460_utility.c 0x00000000   Number         0  hc32f460_utility.o ABSOLUTE
    ..\\..\\..\\..\\..\\mcu\\common\\system_hc32f460.c 0x00000000   Number         0  system_hc32f460.o ABSOLUTE
    ..\\source\\main.c                       0x00000000   Number         0  main.o ABSOLUTE
    ..\source\main.c                         0x00000000   Number         0  main.o ABSOLUTE
    dc.s                                     0x00000000   Number         0  dc.o ABSOLUTE
    handlers.s                               0x00000000   Number         0  handlers.o ABSOLUTE
    init.s                                   0x00000000   Number         0  init.o ABSOLUTE
    startup_hc32f460.s                       0x00000000   Number         0  startup_hc32f460.o ABSOLUTE
    .ARM.Collect$$$$00000000                 0x00000280   Section        0  entry.o(.ARM.Collect$$$$00000000)
    .ARM.Collect$$$$00000001                 0x00000280   Section        4  entry2.o(.ARM.Collect$$$$00000001)
    .ARM.Collect$$$$00000004                 0x00000284   Section        4  entry5.o(.ARM.Collect$$$$00000004)
    .ARM.Collect$$$$00000008                 0x00000288   Section        0  entry7b.o(.ARM.Collect$$$$00000008)
    .ARM.Collect$$$$0000000A                 0x00000288   Section        0  entry8b.o(.ARM.Collect$$$$0000000A)
    .ARM.Collect$$$$0000000B                 0x00000288   Section        8  entry9a.o(.ARM.Collect$$$$0000000B)
    .ARM.Collect$$$$0000000E                 0x00000290   Section        4  entry12b.o(.ARM.Collect$$$$0000000E)
    .ARM.Collect$$$$0000000F                 0x00000294   Section        0  entry10a.o(.ARM.Collect$$$$0000000F)
    .ARM.Collect$$$$00000011                 0x00000294   Section        0  entry11a.o(.ARM.Collect$$$$00000011)
    .ARM.Collect$$$$00002712                 0x00000294   Section        4  entry2.o(.ARM.Collect$$$$00002712)
    __lit__00000000                          0x00000294   Data           4  entry2.o(.ARM.Collect$$$$00002712)
    .text                                    0x00000298   Section       88  startup_hc32f460.o(.text)
    .text                                    0x000002f0   Section       36  init.o(.text)
    i.Ddl_AssertHandler                      0x00000314   Section        0  hc32f460_utility.o(i.Ddl_AssertHandler)
    i.Ddl_Delay1ms                           0x00000318   Section        0  hc32f460_utility.o(i.Ddl_Delay1ms)
    i.NMI_IrqHandler                         0x00000344   Section        0  hc32f460_exint_nmi_swi.o(i.NMI_IrqHandler)
    i.PORT_Lock                              0x0000039c   Section        0  hc32f460_gpio.o(i.PORT_Lock)
    i.PORT_Unlock                            0x000003ac   Section        0  hc32f460_gpio.o(i.PORT_Unlock)
    i.SystemInit                             0x000003bc   Section        0  system_hc32f460.o(i.SystemInit)
    i.__scatterload_copy                     0x000003c4   Section       14  handlers.o(i.__scatterload_copy)
    i.__scatterload_null                     0x000003d2   Section        2  handlers.o(i.__scatterload_null)
    i.__scatterload_zeroinit                 0x000003d4   Section       14  handlers.o(i.__scatterload_zeroinit)
    .ARM.__AT_0x00000400                     0x00000400   Section       32  hc32f460_icg.o(.ARM.__AT_0x00000400)
    i.PORT_Init                              0x00000420   Section        0  hc32f460_gpio.o(i.PORT_Init)
    i.PORT_Toggle                            0x00000618   Section        0  hc32f460_gpio.o(i.PORT_Toggle)
    i.SystemCoreClockUpdate                  0x00000688   Section        0  system_hc32f460.o(i.SystemCoreClockUpdate)
    i.main                                   0x00000774   Section        0  main.o(i.main)
    .data                                    0x1fff8000   Section        8  system_hc32f460.o(.data)
    .data                                    0x1fff8008   Section        4  hc32f460_exint_nmi_swi.o(.data)
    pfnNmiCallback                           0x1fff8008   Data           4  hc32f460_exint_nmi_swi.o(.data)
    STACK                                    0x1fff8010   Section     1024  startup_hc32f460.o(STACK)

    Global Symbols

    Symbol Name                              Value     Ov Type        Size  Object(Section)

    BuildAttributes$$THM_ISAv4$E$P$D$K$B$S$7EM$PE$A:L22UL41UL21$X:L11$S22US41US21$IEEE1$IW$USESV6$~STKCKD$USESV7$~SHL$OSPACE$EBA8$MICROLIB$REQ8$PRES8$EABIv2 0x00000000   Number         0  anon$$obj.o ABSOLUTE
    __ARM_use_no_argv                        0x00000000   Number         0  main.o ABSOLUTE
    __Vectors                                0x00000000   Data           4  startup_hc32f460.o(RESET)
    __arm_fini_                               - Undefined Weak Reference
    __cpp_initialize__aeabi_                  - Undefined Weak Reference
    __cxa_finalize                            - Undefined Weak Reference
    __decompress                              - Undefined Weak Reference
    _clock_init                               - Undefined Weak Reference
    _microlib_exit                            - Undefined Weak Reference
    __Vectors_End                            0x00000280   Data           0  startup_hc32f460.o(RESET)
    __Vectors_Size                           0x00000280   Number         0  startup_hc32f460.o ABSOLUTE
    __main                                   0x00000281   Thumb Code     0  entry.o(.ARM.Collect$$$$00000000)
    _main_stk                                0x00000281   Thumb Code     0  entry2.o(.ARM.Collect$$$$00000001)
    _main_scatterload                        0x00000285   Thumb Code     0  entry5.o(.ARM.Collect$$$$00000004)
    __main_after_scatterload                 0x00000289   Thumb Code     0  entry5.o(.ARM.Collect$$$$00000004)
    _main_clock                              0x00000289   Thumb Code     0  entry7b.o(.ARM.Collect$$$$00000008)
    _main_cpp_init                           0x00000289   Thumb Code     0  entry8b.o(.ARM.Collect$$$$0000000A)
    _main_init                               0x00000289   Thumb Code     0  entry9a.o(.ARM.Collect$$$$0000000B)
    __rt_lib_shutdown_fini                   0x00000291   Thumb Code     0  entry12b.o(.ARM.Collect$$$$0000000E)
    __rt_final_cpp                           0x00000295   Thumb Code     0  entry10a.o(.ARM.Collect$$$$0000000F)
    __rt_final_exit                          0x00000295   Thumb Code     0  entry11a.o(.ARM.Collect$$$$00000011)
    Reset_Handler                            0x00000299   Thumb Code    48  startup_hc32f460.o(.text)
    NMI_Handler                              0x000002c9   Thumb Code     2  startup_hc32f460.o(.text)
    HardFault_Handler                        0x000002cb   Thumb Code     2  startup_hc32f460.o(.text)
    MemManage_Handler                        0x000002cd   Thumb Code     2  startup_hc32f460.o(.text)
    BusFault_Handler                         0x000002cf   Thumb Code     2  startup_hc32f460.o(.text)
    UsageFault_Handler                       0x000002d1   Thumb Code     2  startup_hc32f460.o(.text)
    SVC_Handler                              0x000002d3   Thumb Code     2  startup_hc32f460.o(.text)
    DebugMon_Handler                         0x000002d5   Thumb Code     2  startup_hc32f460.o(.text)
    PendSV_Handler                           0x000002d7   Thumb Code     2  startup_hc32f460.o(.text)
    SysTick_Handler                          0x000002d9   Thumb Code     2  startup_hc32f460.o(.text)
    IRQ000_Handler                           0x000002db   Thumb Code     0  startup_hc32f460.o(.text)
    IRQ001_Handler                           0x000002db   Thumb Code     0  startup_hc32f460.o(.text)
    IRQ002_Handler                           0x000002db   Thumb Code     0  startup_hc32f460.o(.text)
    IRQ003_Handler                           0x000002db   Thumb Code     0  startup_hc32f460.o(.text)
    IRQ004_Handler                           0x000002db   Thumb Code     0  startup_hc32f460.o(.text)
    IRQ005_Handler                           0x000002db   Thumb Code     0  startup_hc32f460.o(.text)
    IRQ006_Handler                           0x000002db   Thumb Code     0  startup_hc32f460.o(.text)
    IRQ007_Handler                           0x000002db   Thumb Code     0  startup_hc32f460.o(.text)
    IRQ008_Handler                           0x000002db   Thumb Code     0  startup_hc32f460.o(.text)
    IRQ009_Handler                           0x000002db   Thumb Code     0  startup_hc32f460.o(.text)
    IRQ010_Handler                           0x000002db   Thumb Code     0  startup_hc32f460.o(.text)
    IRQ011_Handler                           0x000002db   Thumb Code     0  startup_hc32f460.o(.text)
    IRQ012_Handler                           0x000002db   Thumb Code     0  startup_hc32f460.o(.text)
    IRQ013_Handler                           0x000002db   Thumb Code     0  startup_hc32f460.o(.text)
    IRQ014_Handler                           0x000002db   Thumb Code     0  startup_hc32f460.o(.text)
    IRQ015_Handler                           0x000002db   Thumb Code     0  startup_hc32f460.o(.text)
    IRQ016_Handler                           0x000002db   Thumb Code     0  startup_hc32f460.o(.text)
    IRQ017_Handler                           0x000002db   Thumb Code     0  startup_hc32f460.o(.text)
    IRQ018_Handler                           0x000002db   Thumb Code     0  startup_hc32f460.o(.text)
    IRQ019_Handler                           0x000002db   Thumb Code     0  startup_hc32f460.o(.text)
    IRQ020_Handler                           0x000002db   Thumb Code     0  startup_hc32f460.o(.text)
    IRQ021_Handler                           0x000002db   Thumb Code     0  startup_hc32f460.o(.text)
    IRQ022_Handler                           0x000002db   Thumb Code     0  startup_hc32f460.o(.text)
    IRQ023_Handler                           0x000002db   Thumb Code     0  startup_hc32f460.o(.text)
    IRQ024_Handler                           0x000002db   Thumb Code     0  startup_hc32f460.o(.text)
    IRQ025_Handler                           0x000002db   Thumb Code     0  startup_hc32f460.o(.text)
    IRQ026_Handler                           0x000002db   Thumb Code     0  startup_hc32f460.o(.text)
    IRQ027_Handler                           0x000002db   Thumb Code     0  startup_hc32f460.o(.text)
    IRQ028_Handler                           0x000002db   Thumb Code     0  startup_hc32f460.o(.text)
    IRQ029_Handler                           0x000002db   Thumb Code     0  startup_hc32f460.o(.text)
    IRQ030_Handler                           0x000002db   Thumb Code     0  startup_hc32f460.o(.text)
    IRQ031_Handler                           0x000002db   Thumb Code     0  startup_hc32f460.o(.text)
    IRQ032_Handler                           0x000002db   Thumb Code     0  startup_hc32f460.o(.text)
    IRQ033_Handler                           0x000002db   Thumb Code     0  startup_hc32f460.o(.text)
    IRQ034_Handler                           0x000002db   Thumb Code     0  startup_hc32f460.o(.text)
    IRQ035_Handler                           0x000002db   Thumb Code     0  startup_hc32f460.o(.text)
    IRQ036_Handler                           0x000002db   Thumb Code     0  startup_hc32f460.o(.text)
    IRQ037_Handler                           0x000002db   Thumb Code     0  startup_hc32f460.o(.text)
    IRQ038_Handler                           0x000002db   Thumb Code     0  startup_hc32f460.o(.text)
    IRQ039_Handler                           0x000002db   Thumb Code     0  startup_hc32f460.o(.text)
    IRQ040_Handler                           0x000002db   Thumb Code     0  startup_hc32f460.o(.text)
    IRQ041_Handler                           0x000002db   Thumb Code     0  startup_hc32f460.o(.text)
    IRQ042_Handler                           0x000002db   Thumb Code     0  startup_hc32f460.o(.text)
    IRQ043_Handler                           0x000002db   Thumb Code     0  startup_hc32f460.o(.text)
    IRQ044_Handler                           0x000002db   Thumb Code     0  startup_hc32f460.o(.text)
    IRQ045_Handler                           0x000002db   Thumb Code     0  startup_hc32f460.o(.text)
    IRQ046_Handler                           0x000002db   Thumb Code     0  startup_hc32f460.o(.text)
    IRQ047_Handler                           0x000002db   Thumb Code     0  startup_hc32f460.o(.text)
    IRQ048_Handler                           0x000002db   Thumb Code     0  startup_hc32f460.o(.text)
    IRQ049_Handler                           0x000002db   Thumb Code     0  startup_hc32f460.o(.text)
    IRQ050_Handler                           0x000002db   Thumb Code     0  startup_hc32f460.o(.text)
    IRQ051_Handler                           0x000002db   Thumb Code     0  startup_hc32f460.o(.text)
    IRQ052_Handler                           0x000002db   Thumb Code     0  startup_hc32f460.o(.text)
    IRQ053_Handler                           0x000002db   Thumb Code     0  startup_hc32f460.o(.text)
    IRQ054_Handler                           0x000002db   Thumb Code     0  startup_hc32f460.o(.text)
    IRQ055_Handler                           0x000002db   Thumb Code     0  startup_hc32f460.o(.text)
    IRQ056_Handler                           0x000002db   Thumb Code     0  startup_hc32f460.o(.text)
    IRQ057_Handler                           0x000002db   Thumb Code     0  startup_hc32f460.o(.text)
    IRQ058_Handler                           0x000002db   Thumb Code     0  startup_hc32f460.o(.text)
    IRQ059_Handler                           0x000002db   Thumb Code     0  startup_hc32f460.o(.text)
    IRQ060_Handler                           0x000002db   Thumb Code     0  startup_hc32f460.o(.text)
    IRQ061_Handler                           0x000002db   Thumb Code     0  startup_hc32f460.o(.text)
    IRQ062_Handler                           0x000002db   Thumb Code     0  startup_hc32f460.o(.text)
    IRQ063_Handler                           0x000002db   Thumb Code     0  startup_hc32f460.o(.text)
    IRQ064_Handler                           0x000002db   Thumb Code     0  startup_hc32f460.o(.text)
    IRQ065_Handler                           0x000002db   Thumb Code     0  startup_hc32f460.o(.text)
    IRQ066_Handler                           0x000002db   Thumb Code     0  startup_hc32f460.o(.text)
    IRQ067_Handler                           0x000002db   Thumb Code     0  startup_hc32f460.o(.text)
    IRQ068_Handler                           0x000002db   Thumb Code     0  startup_hc32f460.o(.text)
    IRQ069_Handler                           0x000002db   Thumb Code     0  startup_hc32f460.o(.text)
    IRQ070_Handler                           0x000002db   Thumb Code     0  startup_hc32f460.o(.text)
    IRQ071_Handler                           0x000002db   Thumb Code     0  startup_hc32f460.o(.text)
    IRQ072_Handler                           0x000002db   Thumb Code     0  startup_hc32f460.o(.text)
    IRQ073_Handler                           0x000002db   Thumb Code     0  startup_hc32f460.o(.text)
    IRQ074_Handler                           0x000002db   Thumb Code     0  startup_hc32f460.o(.text)
    IRQ075_Handler                           0x000002db   Thumb Code     0  startup_hc32f460.o(.text)
    IRQ076_Handler                           0x000002db   Thumb Code     0  startup_hc32f460.o(.text)
    IRQ077_Handler                           0x000002db   Thumb Code     0  startup_hc32f460.o(.text)
    IRQ078_Handler                           0x000002db   Thumb Code     0  startup_hc32f460.o(.text)
    IRQ079_Handler                           0x000002db   Thumb Code     0  startup_hc32f460.o(.text)
    IRQ080_Handler                           0x000002db   Thumb Code     0  startup_hc32f460.o(.text)
    IRQ081_Handler                           0x000002db   Thumb Code     0  startup_hc32f460.o(.text)
    IRQ082_Handler                           0x000002db   Thumb Code     0  startup_hc32f460.o(.text)
    IRQ083_Handler                           0x000002db   Thumb Code     0  startup_hc32f460.o(.text)
    IRQ084_Handler                           0x000002db   Thumb Code     0  startup_hc32f460.o(.text)
    IRQ085_Handler                           0x000002db   Thumb Code     0  startup_hc32f460.o(.text)
    IRQ086_Handler                           0x000002db   Thumb Code     0  startup_hc32f460.o(.text)
    IRQ087_Handler                           0x000002db   Thumb Code     0  startup_hc32f460.o(.text)
    IRQ088_Handler                           0x000002db   Thumb Code     0  startup_hc32f460.o(.text)
    IRQ089_Handler                           0x000002db   Thumb Code     0  startup_hc32f460.o(.text)
    IRQ090_Handler                           0x000002db   Thumb Code     0  startup_hc32f460.o(.text)
    IRQ091_Handler                           0x000002db   Thumb Code     0  startup_hc32f460.o(.text)
    IRQ092_Handler                           0x000002db   Thumb Code     0  startup_hc32f460.o(.text)
    IRQ093_Handler                           0x000002db   Thumb Code     0  startup_hc32f460.o(.text)
    IRQ094_Handler                           0x000002db   Thumb Code     0  startup_hc32f460.o(.text)
    IRQ095_Handler                           0x000002db   Thumb Code     0  startup_hc32f460.o(.text)
    IRQ096_Handler                           0x000002db   Thumb Code     0  startup_hc32f460.o(.text)
    IRQ097_Handler                           0x000002db   Thumb Code     0  startup_hc32f460.o(.text)
    IRQ098_Handler                           0x000002db   Thumb Code     0  startup_hc32f460.o(.text)
    IRQ099_Handler                           0x000002db   Thumb Code     0  startup_hc32f460.o(.text)
    IRQ100_Handler                           0x000002db   Thumb Code     0  startup_hc32f460.o(.text)
    IRQ101_Handler                           0x000002db   Thumb Code     0  startup_hc32f460.o(.text)
    IRQ102_Handler                           0x000002db   Thumb Code     0  startup_hc32f460.o(.text)
    IRQ103_Handler                           0x000002db   Thumb Code     0  startup_hc32f460.o(.text)
    IRQ104_Handler                           0x000002db   Thumb Code     0  startup_hc32f460.o(.text)
    IRQ105_Handler                           0x000002db   Thumb Code     0  startup_hc32f460.o(.text)
    IRQ106_Handler                           0x000002db   Thumb Code     0  startup_hc32f460.o(.text)
    IRQ107_Handler                           0x000002db   Thumb Code     0  startup_hc32f460.o(.text)
    IRQ108_Handler                           0x000002db   Thumb Code     0  startup_hc32f460.o(.text)
    IRQ109_Handler                           0x000002db   Thumb Code     0  startup_hc32f460.o(.text)
    IRQ110_Handler                           0x000002db   Thumb Code     0  startup_hc32f460.o(.text)
    IRQ111_Handler                           0x000002db   Thumb Code     0  startup_hc32f460.o(.text)
    IRQ112_Handler                           0x000002db   Thumb Code     0  startup_hc32f460.o(.text)
    IRQ113_Handler                           0x000002db   Thumb Code     0  startup_hc32f460.o(.text)
    IRQ114_Handler                           0x000002db   Thumb Code     0  startup_hc32f460.o(.text)
    IRQ115_Handler                           0x000002db   Thumb Code     0  startup_hc32f460.o(.text)
    IRQ116_Handler                           0x000002db   Thumb Code     0  startup_hc32f460.o(.text)
    IRQ117_Handler                           0x000002db   Thumb Code     0  startup_hc32f460.o(.text)
    IRQ118_Handler                           0x000002db   Thumb Code     0  startup_hc32f460.o(.text)
    IRQ119_Handler                           0x000002db   Thumb Code     0  startup_hc32f460.o(.text)
    IRQ120_Handler                           0x000002db   Thumb Code     0  startup_hc32f460.o(.text)
    IRQ121_Handler                           0x000002db   Thumb Code     0  startup_hc32f460.o(.text)
    IRQ122_Handler                           0x000002db   Thumb Code     0  startup_hc32f460.o(.text)
    IRQ123_Handler                           0x000002db   Thumb Code     0  startup_hc32f460.o(.text)
    IRQ124_Handler                           0x000002db   Thumb Code     0  startup_hc32f460.o(.text)
    IRQ125_Handler                           0x000002db   Thumb Code     0  startup_hc32f460.o(.text)
    IRQ126_Handler                           0x000002db   Thumb Code     0  startup_hc32f460.o(.text)
    IRQ127_Handler                           0x000002db   Thumb Code     0  startup_hc32f460.o(.text)
    IRQ128_Handler                           0x000002db   Thumb Code     0  startup_hc32f460.o(.text)
    IRQ129_Handler                           0x000002db   Thumb Code     0  startup_hc32f460.o(.text)
    IRQ130_Handler                           0x000002db   Thumb Code     0  startup_hc32f460.o(.text)
    IRQ131_Handler                           0x000002db   Thumb Code     0  startup_hc32f460.o(.text)
    IRQ132_Handler                           0x000002db   Thumb Code     0  startup_hc32f460.o(.text)
    IRQ133_Handler                           0x000002db   Thumb Code     0  startup_hc32f460.o(.text)
    IRQ134_Handler                           0x000002db   Thumb Code     0  startup_hc32f460.o(.text)
    IRQ135_Handler                           0x000002db   Thumb Code     0  startup_hc32f460.o(.text)
    IRQ136_Handler                           0x000002db   Thumb Code     0  startup_hc32f460.o(.text)
    IRQ137_Handler                           0x000002db   Thumb Code     0  startup_hc32f460.o(.text)
    IRQ138_Handler                           0x000002db   Thumb Code     0  startup_hc32f460.o(.text)
    IRQ139_Handler                           0x000002db   Thumb Code     0  startup_hc32f460.o(.text)
    IRQ140_Handler                           0x000002db   Thumb Code     0  startup_hc32f460.o(.text)
    IRQ141_Handler                           0x000002db   Thumb Code     0  startup_hc32f460.o(.text)
    IRQ142_Handler                           0x000002db   Thumb Code     0  startup_hc32f460.o(.text)
    IRQ143_Handler                           0x000002db   Thumb Code     0  startup_hc32f460.o(.text)
    __scatterload                            0x000002f1   Thumb Code    28  init.o(.text)
    __scatterload_rt2                        0x000002f1   Thumb Code     0  init.o(.text)
    Ddl_AssertHandler                        0x00000315   Thumb Code     4  hc32f460_utility.o(i.Ddl_AssertHandler)
    Ddl_Delay1ms                             0x00000319   Thumb Code    40  hc32f460_utility.o(i.Ddl_Delay1ms)
    NMI_IrqHandler                           0x00000345   Thumb Code    32  hc32f460_exint_nmi_swi.o(i.NMI_IrqHandler)
    PORT_Lock                                0x0000039d   Thumb Code    10  hc32f460_gpio.o(i.PORT_Lock)
    PORT_Unlock                              0x000003ad   Thumb Code    10  hc32f460_gpio.o(i.PORT_Unlock)
    SystemInit                               0x000003bd   Thumb Code     8  system_hc32f460.o(i.SystemInit)
    __scatterload_copy                       0x000003c5   Thumb Code    14  handlers.o(i.__scatterload_copy)
    __scatterload_null                       0x000003d3   Thumb Code     2  handlers.o(i.__scatterload_null)
    __scatterload_zeroinit                   0x000003d5   Thumb Code    14  handlers.o(i.__scatterload_zeroinit)
    u32ICG                                   0x00000400   Data          32  hc32f460_icg.o(.ARM.__AT_0x00000400)
    PORT_Init                                0x00000421   Thumb Code   456  hc32f460_gpio.o(i.PORT_Init)
    PORT_Toggle                              0x00000619   Thumb Code    62  hc32f460_gpio.o(i.PORT_Toggle)
    SystemCoreClockUpdate                    0x00000689   Thumb Code   206  system_hc32f460.o(i.SystemCoreClockUpdate)
    main                                     0x00000775   Thumb Code   130  main.o(i.main)
    Region$$Table$$Base                      0x000007f8   Number         0  anon$$obj.o(Region$$Table)
    Region$$Table$$Limit                     0x00000818   Number         0  anon$$obj.o(Region$$Table)
    HRC_VALUE                                0x1fff8000   Data           4  system_hc32f460.o(.data)
    SystemCoreClock                          0x1fff8004   Data           4  system_hc32f460.o(.data)
    __initial_sp                             0x1fff8410   Data           0  startup_hc32f460.o(STACK)



==============================================================================

Memory Map of the image

  Image Entry point : 0x00000281

  Load Region LR_IROM1 (Base: 0x00000000, Size: 0x00000824, Max: 0x00080000, ABSOLUTE)

    Execution Region ER_IROM1 (Exec base: 0x00000000, Load base: 0x00000000, Size: 0x00000818, Max: 0x00080000, ABSOLUTE)

    Exec Addr    Load Addr    Size         Type   Attr      Idx    E Section Name        Object

    0x00000000   0x00000000   0x00000280   Data   RO            3    RESET               startup_hc32f460.o
    0x00000280   0x00000280   0x00000000   Code   RO          546  * .ARM.Collect$$$$00000000  mc_w.l(entry.o)
    0x00000280   0x00000280   0x00000004   Code   RO          549    .ARM.Collect$$$$00000001  mc_w.l(entry2.o)
    0x00000284   0x00000284   0x00000004   Code   RO          552    .ARM.Collect$$$$00000004  mc_w.l(entry5.o)
    0x00000288   0x00000288   0x00000000   Code   RO          554    .ARM.Collect$$$$00000008  mc_w.l(entry7b.o)
    0x00000288   0x00000288   0x00000000   Code   RO          556    .ARM.Collect$$$$0000000A  mc_w.l(entry8b.o)
    0x00000288   0x00000288   0x00000008   Code   RO          557    .ARM.Collect$$$$0000000B  mc_w.l(entry9a.o)
    0x00000290   0x00000290   0x00000004   Code   RO          564    .ARM.Collect$$$$0000000E  mc_w.l(entry12b.o)
    0x00000294   0x00000294   0x00000000   Code   RO          559    .ARM.Collect$$$$0000000F  mc_w.l(entry10a.o)
    0x00000294   0x00000294   0x00000000   Code   RO          561    .ARM.Collect$$$$00000011  mc_w.l(entry11a.o)
    0x00000294   0x00000294   0x00000004   Code   RO          550    .ARM.Collect$$$$00002712  mc_w.l(entry2.o)
    0x00000298   0x00000298   0x00000058   Code   RO            4    .text               startup_hc32f460.o
    0x000002f0   0x000002f0   0x00000024   Code   RO          565    .text               mc_w.l(init.o)
    0x00000314   0x00000314   0x00000004   Code   RO          157    i.Ddl_AssertHandler  hc32f460_utility.o
    0x00000318   0x00000318   0x0000002c   Code   RO          158    i.Ddl_Delay1ms      hc32f460_utility.o
    0x00000344   0x00000344   0x00000058   Code   RO          242    i.NMI_IrqHandler    hc32f460_exint_nmi_swi.o
    0x0000039c   0x0000039c   0x00000010   Code   RO          435    i.PORT_Lock         hc32f460_gpio.o
    0x000003ac   0x000003ac   0x00000010   Code   RO          445    i.PORT_Unlock       hc32f460_gpio.o
    0x000003bc   0x000003bc   0x00000008   Code   RO           14    i.SystemInit        system_hc32f460.o
    0x000003c4   0x000003c4   0x0000000e   Code   RO          569    i.__scatterload_copy  mc_w.l(handlers.o)
    0x000003d2   0x000003d2   0x00000002   Code   RO          570    i.__scatterload_null  mc_w.l(handlers.o)
    0x000003d4   0x000003d4   0x0000000e   Code   RO          571    i.__scatterload_zeroinit  mc_w.l(handlers.o)
    0x000003e2   0x000003e2   0x0000001e   PAD
    0x00000400   0x00000400   0x00000020   Data   RO          136    .ARM.__AT_0x00000400  hc32f460_icg.o
    0x00000420   0x00000420   0x000001f8   Code   RO          434    i.PORT_Init         hc32f460_gpio.o
    0x00000618   0x00000618   0x00000070   Code   RO          444    i.PORT_Toggle       hc32f460_gpio.o
    0x00000688   0x00000688   0x000000ec   Code   RO           13    i.SystemCoreClockUpdate  system_hc32f460.o
    0x00000774   0x00000774   0x00000082   Code   RO           84    i.main              main.o
    0x000007f6   0x000007f6   0x00000002   PAD
    0x000007f8   0x000007f8   0x00000020   Data   RO          567    Region$$Table       anon$$obj.o


    Execution Region RW_IRAM1 (Exec base: 0x1fff8000, Load base: 0x00000818, Size: 0x00000410, Max: 0x0002f000, ABSOLUTE)

    Exec Addr    Load Addr    Size         Type   Attr      Idx    E Section Name        Object

    0x1fff8000   0x00000818   0x00000008   Data   RW           15    .data               system_hc32f460.o
    0x1fff8008   0x00000820   0x00000004   Data   RW          245    .data               hc32f460_exint_nmi_swi.o
    0x1fff800c   0x00000824   0x00000004   PAD
    0x1fff8010        -       0x00000400   Zero   RW            1    STACK               startup_hc32f460.o


==============================================================================

Image component sizes


      Code (inc. data)   RO Data    RW Data    ZI Data      Debug   Object Name

        88         56          0          4          0        885   hc32f460_exint_nmi_swi.o
       648        110          0          0          0       5004   hc32f460_gpio.o
         0          0         32          0          0        729   hc32f460_icg.o
        48          4          0          0          0       1655   hc32f460_utility.o
       130          0          0          0          0       3359   main.o
        88         20        640          0       1024        876   startup_hc32f460.o
       244         36          0          8          0    1514361   system_hc32f460.o

    ----------------------------------------------------------------------
      1248        226        704         12       1028    1526869   Object Totals
         0          0         32          0          0          0   (incl. Generated)
         2          0          0          0          4          0   (incl. Padding)

    ----------------------------------------------------------------------

      Code (inc. data)   RO Data    RW Data    ZI Data      Debug   Library Member Name

         0          0          0          0          0          0   entry.o
         0          0          0          0          0          0   entry10a.o
         0          0          0          0          0          0   entry11a.o
         4          0          0          0          0          0   entry12b.o
         8          4          0          0          0          0   entry2.o
         4          0          0          0          0          0   entry5.o
         0          0          0          0          0          0   entry7b.o
         0          0          0          0          0          0   entry8b.o
         8          4          0          0          0          0   entry9a.o
        30          0          0          0          0          0   handlers.o
        36          8          0          0          0         68   init.o

    ----------------------------------------------------------------------
       120         16          0          0          0         68   Library Totals
        30          0          0          0          0          0   (incl. Padding)

    ----------------------------------------------------------------------

      Code (inc. data)   RO Data    RW Data    ZI Data      Debug   Library Name

        90         16          0          0          0         68   mc_w.l

    ----------------------------------------------------------------------
       120         16          0          0          0         68   Library Totals

    ----------------------------------------------------------------------

==============================================================================


      Code (inc. data)   RO Data    RW Data    ZI Data      Debug   

      1368        242        704         12       1028    1526673   Grand Totals
      1368        242        704         12       1028    1526673   ELF Image Totals
      1368        242        704         12          0          0   ROM Totals

==============================================================================

    Total RO  Size (Code + RO Data)                 2072 (   2.02kB)
    Total RW  Size (RW Data + ZI Data)              1040 (   1.02kB)
    Total ROM Size (Code + RO Data + RW Data)       2084 (   2.04kB)

==============================================================================

