Component: ARM Compiler 5.06 update 7 (build 960) Tool: armlink [4d3601]

==============================================================================

Memory Map of the image

  Image Entry point : 0x00000281

  Load Region LR_IROM1 (Base: 0x00000000, Size: 0x000083b0, Max: 0x00080000, ABSOLUTE, COMPRESSED[0x00008048])

    Execution Region ER_IROM1 (Exec base: 0x00000000, Load base: 0x00000000, Size: 0x0000800c, Max: 0x00080000, ABSOLUTE)

    Exec Addr    Load Addr    Size         Type   Attr      Idx    E Section Name        Object

    0x00000000   0x00000000   0x00000280   Data   RO         4193    RESET               startup_hc32f460.o
    0x00000280   0x00000280   0x00000000   Code   RO        13444  * .ARM.Collect$$$$00000000  mc_w.l(entry.o)
    0x00000280   0x00000280   0x00000004   Code   RO        13802    .ARM.Collect$$$$00000001  mc_w.l(entry2.o)
    0x00000284   0x00000284   0x00000004   Code   RO        13805    .ARM.Collect$$$$00000004  mc_w.l(entry5.o)
    0x00000288   0x00000288   0x00000000   Code   RO        13807    .ARM.Collect$$$$00000008  mc_w.l(entry7b.o)
    0x00000288   0x00000288   0x00000000   Code   RO        13809    .ARM.Collect$$$$0000000A  mc_w.l(entry8b.o)
    0x00000288   0x00000288   0x00000008   Code   RO        13810    .ARM.Collect$$$$0000000B  mc_w.l(entry9a.o)
    0x00000290   0x00000290   0x00000004   Code   RO        13817    .ARM.Collect$$$$0000000E  mc_w.l(entry12b.o)
    0x00000294   0x00000294   0x00000000   Code   RO        13812    .ARM.Collect$$$$0000000F  mc_w.l(entry10a.o)
    0x00000294   0x00000294   0x00000000   Code   RO        13814    .ARM.Collect$$$$00000011  mc_w.l(entry11a.o)
    0x00000294   0x00000294   0x00000004   Code   RO        13803    .ARM.Collect$$$$00002712  mc_w.l(entry2.o)
    0x00000298   0x00000298   0x000000ba   Code   RO         6175    .emb_text           port.o
    0x00000352   0x00000352   0x00000002   PAD
    0x00000354   0x00000354   0x00000058   Code   RO         4194    .text               startup_hc32f460.o
    0x000003ac   0x000003ac   0x0000001e   Code   RO        13451    .text               mc_w.l(llshl.o)
    0x000003ca   0x000003ca   0x00000024   Code   RO        13453    .text               mc_w.l(llsshr.o)
    0x000003ee   0x000003ee   0x00000000   Code   RO        13830    .text               mc_w.l(iusefp.o)
    0x000003ee   0x000003ee   0x00000004   Code   RO         7523    i.ANO_DT_Send_Data  ano_dt_lx.o
    0x000003f2   0x000003f2   0x0000000c   Code   RO         6843    i.BEESIGN_SendDataHandler  interface_beesign.o
    0x000003fe   0x000003fe   0x00000002   Code   RO        13848    i.__scatterload_null  mc_w.l(handlers.o)
    0x00000400   0x00000400   0x00000020   Data   RO         1523    .ARM.__AT_0x00000400  hc32f460_icg.o
    0x00000420   0x00000420   0x00000062   Code   RO        13447    .text               mc_w.l(uldiv.o)
    0x00000482   0x00000482   0x00000024   Code   RO        13457    .text               mc_w.l(memseta.o)
    0x000004a6   0x000004a6   0x00000018   Code   RO        13459    .text               mc_w.l(strncpy.o)
    0x000004be   0x000004be   0x0000014e   Code   RO        13728    .text               mf_w.l(dadd.o)
    0x0000060c   0x0000060c   0x000000e4   Code   RO        13730    .text               mf_w.l(dmul.o)
    0x000006f0   0x000006f0   0x000000de   Code   RO        13732    .text               mf_w.l(ddiv.o)
    0x000007ce   0x000007ce   0x00000022   Code   RO        13736    .text               mf_w.l(dflti.o)
    0x000007f0   0x000007f0   0x00000030   Code   RO        13746    .text               mf_w.l(cdrcmple.o)
    0x00000820   0x00000820   0x00000038   Code   RO        13748    .text               mf_w.l(d2f.o)
    0x00000858   0x00000858   0x0000002c   Code   RO        13819    .text               mc_w.l(uidiv.o)
    0x00000884   0x00000884   0x00000020   Code   RO        13821    .text               mc_w.l(llushr.o)
    0x000008a4   0x000008a4   0x0000006e   Code   RO        13831    .text               mf_w.l(fepilogue.o)
    0x00000912   0x00000912   0x000000ba   Code   RO        13833    .text               mf_w.l(depilogue.o)
    0x000009cc   0x000009cc   0x00000030   Code   RO        13839    .text               mf_w.l(dfixul.o)
    0x000009fc   0x000009fc   0x00000024   Code   RO        13843    .text               mc_w.l(init.o)
    0x00000a20   0x00000a20   0x00000056   Code   RO        13853    .text               mc_w.l(__dczerorl2.o)
    0x00000a76   0x00000a76   0x00000002   PAD
    0x00000a78   0x00000a78   0x00000e3c   Code   RO         2603    RAMCODE             hc32f460_pwc.o
    0x000018b4   0x000018b4   0x00000080   Code   RO            4    i.ADC_AddAdcChannel  hc32f460_adc.o
    0x00001934   0x00001934   0x00000048   Code   RO           31    i.ADC_Init          hc32f460_adc.o
    0x0000197c   0x0000197c   0x00000024   Code   RO           40    i.ADC_TriggerSrcCmd  hc32f460_adc.o
    0x000019a0   0x000019a0   0x00000428   Code   RO         7520    i.ANO_DT_Data_Receive_Anl  ano_dt_lx.o
    0x00001dc8   0x00001dc8   0x0000009c   Code   RO         7521    i.ANO_DT_Data_Receive_Prepare  ano_dt_lx.o
    0x00001e64   0x00001e64   0x00000038   Code   RO         7522    i.ANO_DT_Send_Check  ano_dt_lx.o
    0x00001e9c   0x00001e9c   0x00000130   Code   RO         7524    i.ANO_DT_Send_PID   ano_dt_lx.o
    0x00001fcc   0x00001fcc   0x000000dc   Code   RO         7525    i.ANO_DT_Send_Senser  ano_dt_lx.o
    0x000020a8   0x000020a8   0x000000b0   Code   RO         7526    i.ANO_DT_Send_Status  ano_dt_lx.o
    0x00002158   0x00002158   0x0000003c   Code   RO         4201    i.AdcChannelConfig  bsp_battery.o
    0x00002194   0x00002194   0x000000b0   Code   RO         4202    i.AdcDmaConfig      bsp_battery.o
    0x00002244   0x00002244   0x00000034   Code   RO         4203    i.AdcInitConfig     bsp_battery.o
    0x00002278   0x00002278   0x0000003c   Code   RO         4204    i.AdcSetChannelPinMode  bsp_battery.o
    0x000022b4   0x000022b4   0x00000090   Code   RO         4205    i.AdcSetPinMode     bsp_battery.o
    0x00002344   0x00002344   0x0000001c   Code   RO         4206    i.AdcTriggerConfig  bsp_battery.o
    0x00002360   0x00002360   0x00000090   Code   RO         6833    i.BEESIGN_AddBuffer  interface_beesign.o
    0x000023f0   0x000023f0   0x00000020   Code   RO         6835    i.BEESIGN_BufferGoNextPointer  interface_beesign.o
    0x00002410   0x00002410   0x0000013a   Code   RO         6836    i.BEESIGN_CRC       interface_beesign.o
    0x0000254a   0x0000254a   0x00000002   PAD
    0x0000254c   0x0000254c   0x0000012c   Code   RO         6839    i.BEESIGN_Init      interface_beesign.o
    0x00002678   0x00002678   0x00000014   Code   RO         6840    i.BEESIGN_SaveSetting  interface_beesign.o
    0x0000268c   0x0000268c   0x00000060   Code   RO         6842    i.BEESIGN_SendData  interface_beesign.o
    0x000026ec   0x000026ec   0x00000018   Code   RO         6844    i.BEESIGN_SetAlarmRssi  interface_beesign.o
    0x00002704   0x00002704   0x00000018   Code   RO         6845    i.BEESIGN_SetAlarmVoltage  interface_beesign.o
    0x0000271c   0x0000271c   0x00000010   Code   RO         6851    i.BEESIGN_SetFlyMode  interface_beesign.o
    0x0000272c   0x0000272c   0x00000050   Code   RO         6853    i.BEESIGN_SetMiniLayout  interface_beesign.o
    0x0000277c   0x0000277c   0x00000028   Code   RO         6854    i.BEESIGN_SetName   interface_beesign.o
    0x000027a4   0x000027a4   0x0000001c   Code   RO         6855    i.BEESIGN_SetOsdMode  interface_beesign.o
    0x000027c0   0x000027c0   0x0000001c   Code   RO         6857    i.BEESIGN_SetRssiSource  interface_beesign.o
    0x000027dc   0x000027dc   0x00000034   Code   RO         6858    i.BEESIGN_SetVTXBandAndChan  interface_beesign.o
    0x00002810   0x00002810   0x00000020   Code   RO         6862    i.BEESIGN_SetVTXPower  interface_beesign.o
    0x00002830   0x00002830   0x0000001c   Code   RO         6864    i.BEESIGN_SetVolSource  interface_beesign.o
    0x0000284c   0x0000284c   0x0000001a   Code   RO         6865    i.BEESIGN_SetVoltage  interface_beesign.o
    0x00002866   0x00002866   0x00000014   Code   RO         6867    i.BEESIGN_ValidateVTXBandAndChan  interface_beesign.o
    0x0000287a   0x0000287a   0x00000008   Code   RO         1547    i.BusFault_Handler  hc32f460_interrupts.o
    0x00002882   0x00002882   0x00000002   PAD
    0x00002884   0x00002884   0x00000048   Code   RO          342    i.CLK_GetFlagStatus  hc32f460_clk.o
    0x000028cc   0x000028cc   0x0000007c   Code   RO          350    i.CLK_MpllCmd       hc32f460_clk.o
    0x00002948   0x00002948   0x00000068   Code   RO          351    i.CLK_MpllConfig    hc32f460_clk.o
    0x000029b0   0x000029b0   0x00000030   Code   RO          358    i.CLK_SetPllSource  hc32f460_clk.o
    0x000029e0   0x000029e0   0x000000bc   Code   RO          359    i.CLK_SetSysClkSource  hc32f460_clk.o
    0x00002a9c   0x00002a9c   0x000000dc   Code   RO          361    i.CLK_SysClkConfig  hc32f460_clk.o
    0x00002b78   0x00002b78   0x0000009c   Code   RO          368    i.CLK_XtalCmd       hc32f460_clk.o
    0x00002c14   0x00002c14   0x00000048   Code   RO          369    i.CLK_XtalConfig    hc32f460_clk.o
    0x00002c5c   0x00002c5c   0x00000090   Code   RO          641    i.DMA_ChannelCfg    hc32f460_dmac.o
    0x00002cec   0x00002cec   0x00000150   Code   RO          642    i.DMA_ChannelCmd    hc32f460_dmac.o
    0x00002e3c   0x00002e3c   0x00000056   Code   RO          643    i.DMA_ClearIrqFlag  hc32f460_dmac.o
    0x00002e92   0x00002e92   0x0000000a   Code   RO          644    i.DMA_Cmd           hc32f460_dmac.o
    0x00002e9c   0x00002e9c   0x00000098   Code   RO          651    i.DMA_InitChannel   hc32f460_dmac.o
    0x00002f34   0x00002f34   0x0000002c   Code   RO          670    i.DMA_SetTriggerSrc  hc32f460_dmac.o
    0x00002f60   0x00002f60   0x00000124   Code   RO         7527    i.Data_Send_AngleRate  ano_dt_lx.o
    0x00003084   0x00003084   0x00000028   Code   RO         3823    i.Ddl_Delay1ms      hc32f460_utility.o
    0x000030ac   0x000030ac   0x00000034   Code   RO         3824    i.Ddl_Delay1us      hc32f460_utility.o
    0x000030e0   0x000030e0   0x00000008   Code   RO         1548    i.DebugMon_Handler  hc32f460_interrupts.o
    0x000030e8   0x000030e8   0x0000004c   Code   RO         7240    i.DefaultParams     interface_params.o
    0x00003134   0x00003134   0x00000018   Code   RO         7241    i.DefaultParams_WriteFlash  interface_params.o
    0x0000314c   0x0000314c   0x00000010   Code   RO         4821    i.DmaBtcIrqCallback  bsp_vtx_beesign.o
    0x0000315c   0x0000315c   0x000000b0   Code   RO         4822    i.DmaInit           bsp_vtx_beesign.o
    0x0000320c   0x0000320c   0x0000000c   Code   RO          844    i.EFM_ClearFlag     hc32f460_efm.o
    0x00003218   0x00003218   0x00000010   Code   RO          846    i.EFM_ErasePgmCmd   hc32f460_efm.o
    0x00003228   0x00003228   0x0000001c   Code   RO          847    i.EFM_FlashCmd      hc32f460_efm.o
    0x00003244   0x00003244   0x00000014   Code   RO          848    i.EFM_GetFlagStatus  hc32f460_efm.o
    0x00003258   0x00003258   0x00000018   Code   RO          853    i.EFM_Lock          hc32f460_efm.o
    0x00003270   0x00003270   0x00000074   Code   RO          858    i.EFM_SectorErase   hc32f460_efm.o
    0x000032e4   0x000032e4   0x00000010   Code   RO          862    i.EFM_SetLatency    hc32f460_efm.o
    0x000032f4   0x000032f4   0x00000080   Code   RO          865    i.EFM_SingleProgram  hc32f460_efm.o
    0x00003374   0x00003374   0x00000014   Code   RO          867    i.EFM_Unlock        hc32f460_efm.o
    0x00003388   0x00003388   0x00000030   Code   RO         1050    i.EXINT_Init        hc32f460_exint_nmi_swi.o
    0x000033b8   0x000033b8   0x00000014   Code   RO         1051    i.EXINT_IrqFlgClr   hc32f460_exint_nmi_swi.o
    0x000033cc   0x000033cc   0x00000018   Code   RO         1052    i.EXINT_IrqFlgGet   hc32f460_exint_nmi_swi.o
    0x000033e4   0x000033e4   0x00000070   Code   RO         7155    i.FindPos           interface_filter.o
    0x00003454   0x00003454   0x00000008   Code   RO         1549    i.HardFault_Handler  hc32f460_interrupts.o
    0x0000345c   0x0000345c   0x00000010   Code   RO         1550    i.IRQ000_Handler    hc32f460_interrupts.o
    0x0000346c   0x0000346c   0x00000010   Code   RO         1551    i.IRQ001_Handler    hc32f460_interrupts.o
    0x0000347c   0x0000347c   0x00000010   Code   RO         1552    i.IRQ002_Handler    hc32f460_interrupts.o
    0x0000348c   0x0000348c   0x00000010   Code   RO         1553    i.IRQ003_Handler    hc32f460_interrupts.o
    0x0000349c   0x0000349c   0x00000010   Code   RO         1554    i.IRQ004_Handler    hc32f460_interrupts.o
    0x000034ac   0x000034ac   0x00000010   Code   RO         1555    i.IRQ005_Handler    hc32f460_interrupts.o
    0x000034bc   0x000034bc   0x00000010   Code   RO         1556    i.IRQ006_Handler    hc32f460_interrupts.o
    0x000034cc   0x000034cc   0x00000010   Code   RO         1557    i.IRQ007_Handler    hc32f460_interrupts.o
    0x000034dc   0x000034dc   0x00000010   Code   RO         1558    i.IRQ008_Handler    hc32f460_interrupts.o
    0x000034ec   0x000034ec   0x00000010   Code   RO         1559    i.IRQ009_Handler    hc32f460_interrupts.o
    0x000034fc   0x000034fc   0x00000010   Code   RO         1560    i.IRQ010_Handler    hc32f460_interrupts.o
    0x0000350c   0x0000350c   0x00000010   Code   RO         1561    i.IRQ011_Handler    hc32f460_interrupts.o
    0x0000351c   0x0000351c   0x00000010   Code   RO         1562    i.IRQ012_Handler    hc32f460_interrupts.o
    0x0000352c   0x0000352c   0x00000010   Code   RO         1563    i.IRQ013_Handler    hc32f460_interrupts.o
    0x0000353c   0x0000353c   0x00000010   Code   RO         1564    i.IRQ014_Handler    hc32f460_interrupts.o
    0x0000354c   0x0000354c   0x00000010   Code   RO         1565    i.IRQ015_Handler    hc32f460_interrupts.o
    0x0000355c   0x0000355c   0x00000010   Code   RO         1566    i.IRQ016_Handler    hc32f460_interrupts.o
    0x0000356c   0x0000356c   0x00000010   Code   RO         1567    i.IRQ017_Handler    hc32f460_interrupts.o
    0x0000357c   0x0000357c   0x00000010   Code   RO         1568    i.IRQ018_Handler    hc32f460_interrupts.o
    0x0000358c   0x0000358c   0x00000010   Code   RO         1569    i.IRQ019_Handler    hc32f460_interrupts.o
    0x0000359c   0x0000359c   0x00000010   Code   RO         1570    i.IRQ020_Handler    hc32f460_interrupts.o
    0x000035ac   0x000035ac   0x00000010   Code   RO         1571    i.IRQ021_Handler    hc32f460_interrupts.o
    0x000035bc   0x000035bc   0x00000010   Code   RO         1572    i.IRQ022_Handler    hc32f460_interrupts.o
    0x000035cc   0x000035cc   0x00000010   Code   RO         1573    i.IRQ023_Handler    hc32f460_interrupts.o
    0x000035dc   0x000035dc   0x00000010   Code   RO         1574    i.IRQ024_Handler    hc32f460_interrupts.o
    0x000035ec   0x000035ec   0x00000010   Code   RO         1575    i.IRQ025_Handler    hc32f460_interrupts.o
    0x000035fc   0x000035fc   0x00000010   Code   RO         1576    i.IRQ026_Handler    hc32f460_interrupts.o
    0x0000360c   0x0000360c   0x00000010   Code   RO         1577    i.IRQ027_Handler    hc32f460_interrupts.o
    0x0000361c   0x0000361c   0x00000010   Code   RO         1578    i.IRQ028_Handler    hc32f460_interrupts.o
    0x0000362c   0x0000362c   0x00000010   Code   RO         1579    i.IRQ029_Handler    hc32f460_interrupts.o
    0x0000363c   0x0000363c   0x00000010   Code   RO         1580    i.IRQ030_Handler    hc32f460_interrupts.o
    0x0000364c   0x0000364c   0x00000010   Code   RO         1581    i.IRQ031_Handler    hc32f460_interrupts.o
    0x0000365c   0x0000365c   0x00000014   Code   RO         1582    i.IRQ032_Handler    hc32f460_interrupts.o
    0x00003670   0x00003670   0x00000014   Code   RO         1583    i.IRQ033_Handler    hc32f460_interrupts.o
    0x00003684   0x00003684   0x00000014   Code   RO         1584    i.IRQ034_Handler    hc32f460_interrupts.o
    0x00003698   0x00003698   0x00000014   Code   RO         1585    i.IRQ035_Handler    hc32f460_interrupts.o
    0x000036ac   0x000036ac   0x00000014   Code   RO         1586    i.IRQ036_Handler    hc32f460_interrupts.o
    0x000036c0   0x000036c0   0x00000014   Code   RO         1587    i.IRQ037_Handler    hc32f460_interrupts.o
    0x000036d4   0x000036d4   0x00000014   Code   RO         1588    i.IRQ038_Handler    hc32f460_interrupts.o
    0x000036e8   0x000036e8   0x00000014   Code   RO         1589    i.IRQ039_Handler    hc32f460_interrupts.o
    0x000036fc   0x000036fc   0x00000014   Code   RO         1590    i.IRQ040_Handler    hc32f460_interrupts.o
    0x00003710   0x00003710   0x00000014   Code   RO         1591    i.IRQ041_Handler    hc32f460_interrupts.o
    0x00003724   0x00003724   0x00000014   Code   RO         1592    i.IRQ042_Handler    hc32f460_interrupts.o
    0x00003738   0x00003738   0x00000014   Code   RO         1593    i.IRQ043_Handler    hc32f460_interrupts.o
    0x0000374c   0x0000374c   0x00000014   Code   RO         1594    i.IRQ044_Handler    hc32f460_interrupts.o
    0x00003760   0x00003760   0x00000014   Code   RO         1595    i.IRQ045_Handler    hc32f460_interrupts.o
    0x00003774   0x00003774   0x00000014   Code   RO         1596    i.IRQ046_Handler    hc32f460_interrupts.o
    0x00003788   0x00003788   0x00000014   Code   RO         1597    i.IRQ047_Handler    hc32f460_interrupts.o
    0x0000379c   0x0000379c   0x00000014   Code   RO         1598    i.IRQ048_Handler    hc32f460_interrupts.o
    0x000037b0   0x000037b0   0x00000014   Code   RO         1599    i.IRQ049_Handler    hc32f460_interrupts.o
    0x000037c4   0x000037c4   0x00000014   Code   RO         1600    i.IRQ050_Handler    hc32f460_interrupts.o
    0x000037d8   0x000037d8   0x00000014   Code   RO         1601    i.IRQ051_Handler    hc32f460_interrupts.o
    0x000037ec   0x000037ec   0x00000014   Code   RO         1602    i.IRQ052_Handler    hc32f460_interrupts.o
    0x00003800   0x00003800   0x00000014   Code   RO         1603    i.IRQ053_Handler    hc32f460_interrupts.o
    0x00003814   0x00003814   0x00000014   Code   RO         1604    i.IRQ054_Handler    hc32f460_interrupts.o
    0x00003828   0x00003828   0x00000014   Code   RO         1605    i.IRQ055_Handler    hc32f460_interrupts.o
    0x0000383c   0x0000383c   0x00000014   Code   RO         1606    i.IRQ056_Handler    hc32f460_interrupts.o
    0x00003850   0x00003850   0x00000014   Code   RO         1607    i.IRQ057_Handler    hc32f460_interrupts.o
    0x00003864   0x00003864   0x00000014   Code   RO         1608    i.IRQ058_Handler    hc32f460_interrupts.o
    0x00003878   0x00003878   0x00000014   Code   RO         1609    i.IRQ059_Handler    hc32f460_interrupts.o
    0x0000388c   0x0000388c   0x00000014   Code   RO         1610    i.IRQ060_Handler    hc32f460_interrupts.o
    0x000038a0   0x000038a0   0x00000014   Code   RO         1611    i.IRQ061_Handler    hc32f460_interrupts.o
    0x000038b4   0x000038b4   0x00000014   Code   RO         1612    i.IRQ062_Handler    hc32f460_interrupts.o
    0x000038c8   0x000038c8   0x00000014   Code   RO         1613    i.IRQ063_Handler    hc32f460_interrupts.o
    0x000038dc   0x000038dc   0x00000014   Code   RO         1614    i.IRQ064_Handler    hc32f460_interrupts.o
    0x000038f0   0x000038f0   0x00000014   Code   RO         1615    i.IRQ065_Handler    hc32f460_interrupts.o
    0x00003904   0x00003904   0x00000014   Code   RO         1616    i.IRQ066_Handler    hc32f460_interrupts.o
    0x00003918   0x00003918   0x00000014   Code   RO         1617    i.IRQ067_Handler    hc32f460_interrupts.o
    0x0000392c   0x0000392c   0x00000014   Code   RO         1618    i.IRQ068_Handler    hc32f460_interrupts.o
    0x00003940   0x00003940   0x00000014   Code   RO         1619    i.IRQ069_Handler    hc32f460_interrupts.o
    0x00003954   0x00003954   0x00000014   Code   RO         1620    i.IRQ070_Handler    hc32f460_interrupts.o
    0x00003968   0x00003968   0x00000014   Code   RO         1621    i.IRQ071_Handler    hc32f460_interrupts.o
    0x0000397c   0x0000397c   0x00000014   Code   RO         1622    i.IRQ072_Handler    hc32f460_interrupts.o
    0x00003990   0x00003990   0x00000014   Code   RO         1623    i.IRQ073_Handler    hc32f460_interrupts.o
    0x000039a4   0x000039a4   0x00000014   Code   RO         1624    i.IRQ074_Handler    hc32f460_interrupts.o
    0x000039b8   0x000039b8   0x00000014   Code   RO         1625    i.IRQ075_Handler    hc32f460_interrupts.o
    0x000039cc   0x000039cc   0x00000014   Code   RO         1626    i.IRQ076_Handler    hc32f460_interrupts.o
    0x000039e0   0x000039e0   0x00000014   Code   RO         1627    i.IRQ077_Handler    hc32f460_interrupts.o
    0x000039f4   0x000039f4   0x00000014   Code   RO         1628    i.IRQ078_Handler    hc32f460_interrupts.o
    0x00003a08   0x00003a08   0x00000014   Code   RO         1629    i.IRQ079_Handler    hc32f460_interrupts.o
    0x00003a1c   0x00003a1c   0x00000014   Code   RO         1630    i.IRQ080_Handler    hc32f460_interrupts.o
    0x00003a30   0x00003a30   0x00000014   Code   RO         1631    i.IRQ081_Handler    hc32f460_interrupts.o
    0x00003a44   0x00003a44   0x00000014   Code   RO         1632    i.IRQ082_Handler    hc32f460_interrupts.o
    0x00003a58   0x00003a58   0x00000014   Code   RO         1633    i.IRQ083_Handler    hc32f460_interrupts.o
    0x00003a6c   0x00003a6c   0x00000014   Code   RO         1634    i.IRQ084_Handler    hc32f460_interrupts.o
    0x00003a80   0x00003a80   0x00000014   Code   RO         1635    i.IRQ085_Handler    hc32f460_interrupts.o
    0x00003a94   0x00003a94   0x00000014   Code   RO         1636    i.IRQ086_Handler    hc32f460_interrupts.o
    0x00003aa8   0x00003aa8   0x00000014   Code   RO         1637    i.IRQ087_Handler    hc32f460_interrupts.o
    0x00003abc   0x00003abc   0x00000014   Code   RO         1638    i.IRQ088_Handler    hc32f460_interrupts.o
    0x00003ad0   0x00003ad0   0x00000014   Code   RO         1639    i.IRQ089_Handler    hc32f460_interrupts.o
    0x00003ae4   0x00003ae4   0x00000014   Code   RO         1640    i.IRQ090_Handler    hc32f460_interrupts.o
    0x00003af8   0x00003af8   0x00000014   Code   RO         1641    i.IRQ091_Handler    hc32f460_interrupts.o
    0x00003b0c   0x00003b0c   0x00000014   Code   RO         1642    i.IRQ092_Handler    hc32f460_interrupts.o
    0x00003b20   0x00003b20   0x00000014   Code   RO         1643    i.IRQ093_Handler    hc32f460_interrupts.o
    0x00003b34   0x00003b34   0x00000014   Code   RO         1644    i.IRQ094_Handler    hc32f460_interrupts.o
    0x00003b48   0x00003b48   0x00000014   Code   RO         1645    i.IRQ095_Handler    hc32f460_interrupts.o
    0x00003b5c   0x00003b5c   0x00000014   Code   RO         1646    i.IRQ096_Handler    hc32f460_interrupts.o
    0x00003b70   0x00003b70   0x00000014   Code   RO         1647    i.IRQ097_Handler    hc32f460_interrupts.o
    0x00003b84   0x00003b84   0x00000014   Code   RO         1648    i.IRQ098_Handler    hc32f460_interrupts.o
    0x00003b98   0x00003b98   0x00000014   Code   RO         1649    i.IRQ099_Handler    hc32f460_interrupts.o
    0x00003bac   0x00003bac   0x00000014   Code   RO         1650    i.IRQ100_Handler    hc32f460_interrupts.o
    0x00003bc0   0x00003bc0   0x00000014   Code   RO         1651    i.IRQ101_Handler    hc32f460_interrupts.o
    0x00003bd4   0x00003bd4   0x00000014   Code   RO         1652    i.IRQ102_Handler    hc32f460_interrupts.o
    0x00003be8   0x00003be8   0x00000014   Code   RO         1653    i.IRQ103_Handler    hc32f460_interrupts.o
    0x00003bfc   0x00003bfc   0x00000014   Code   RO         1654    i.IRQ104_Handler    hc32f460_interrupts.o
    0x00003c10   0x00003c10   0x00000014   Code   RO         1655    i.IRQ105_Handler    hc32f460_interrupts.o
    0x00003c24   0x00003c24   0x00000014   Code   RO         1656    i.IRQ106_Handler    hc32f460_interrupts.o
    0x00003c38   0x00003c38   0x00000014   Code   RO         1657    i.IRQ107_Handler    hc32f460_interrupts.o
    0x00003c4c   0x00003c4c   0x00000014   Code   RO         1658    i.IRQ108_Handler    hc32f460_interrupts.o
    0x00003c60   0x00003c60   0x00000014   Code   RO         1659    i.IRQ109_Handler    hc32f460_interrupts.o
    0x00003c74   0x00003c74   0x00000014   Code   RO         1660    i.IRQ110_Handler    hc32f460_interrupts.o
    0x00003c88   0x00003c88   0x00000014   Code   RO         1661    i.IRQ111_Handler    hc32f460_interrupts.o
    0x00003c9c   0x00003c9c   0x00000014   Code   RO         1662    i.IRQ112_Handler    hc32f460_interrupts.o
    0x00003cb0   0x00003cb0   0x00000014   Code   RO         1663    i.IRQ113_Handler    hc32f460_interrupts.o
    0x00003cc4   0x00003cc4   0x00000014   Code   RO         1664    i.IRQ114_Handler    hc32f460_interrupts.o
    0x00003cd8   0x00003cd8   0x00000014   Code   RO         1665    i.IRQ115_Handler    hc32f460_interrupts.o
    0x00003cec   0x00003cec   0x00000014   Code   RO         1666    i.IRQ116_Handler    hc32f460_interrupts.o
    0x00003d00   0x00003d00   0x00000014   Code   RO         1667    i.IRQ117_Handler    hc32f460_interrupts.o
    0x00003d14   0x00003d14   0x00000014   Code   RO         1668    i.IRQ118_Handler    hc32f460_interrupts.o
    0x00003d28   0x00003d28   0x00000014   Code   RO         1669    i.IRQ119_Handler    hc32f460_interrupts.o
    0x00003d3c   0x00003d3c   0x00000014   Code   RO         1670    i.IRQ120_Handler    hc32f460_interrupts.o
    0x00003d50   0x00003d50   0x00000014   Code   RO         1671    i.IRQ121_Handler    hc32f460_interrupts.o
    0x00003d64   0x00003d64   0x00000014   Code   RO         1672    i.IRQ122_Handler    hc32f460_interrupts.o
    0x00003d78   0x00003d78   0x00000014   Code   RO         1673    i.IRQ123_Handler    hc32f460_interrupts.o
    0x00003d8c   0x00003d8c   0x00000014   Code   RO         1674    i.IRQ124_Handler    hc32f460_interrupts.o
    0x00003da0   0x00003da0   0x00000014   Code   RO         1675    i.IRQ125_Handler    hc32f460_interrupts.o
    0x00003db4   0x00003db4   0x00000014   Code   RO         1676    i.IRQ126_Handler    hc32f460_interrupts.o
    0x00003dc8   0x00003dc8   0x00000014   Code   RO         1677    i.IRQ127_Handler    hc32f460_interrupts.o
    0x00003ddc   0x00003ddc   0x00000014   Code   RO         2516    i.KEYSCAN_Start     hc32f460_keyscan.o
    0x00003df0   0x00003df0   0x00000038   Code   RO         4543    i.Key_Callback      bsp_key.o
    0x00003e28   0x00003e28   0x00000078   Code   RO         4438    i.MPU6050_OffSet    bsp_imu.o
    0x00003ea0   0x00003ea0   0x000000e0   Code   RO         4439    i.MPU6050_Offset    bsp_imu.o
    0x00003f80   0x00003f80   0x00000008   Code   RO         1678    i.MemManage_Handler  hc32f460_interrupts.o
    0x00003f88   0x00003f88   0x0000002c   Code   RO         4342    i.MyI2C_Init        bsp_i2c.o
    0x00003fb4   0x00003fb4   0x0000000a   Code   RO         4343    i.MyI2C_R_SDA       bsp_i2c.o
    0x00003fbe   0x00003fbe   0x00000042   Code   RO         4344    i.MyI2C_ReadReg     bsp_i2c.o
    0x00004000   0x00004000   0x0000001e   Code   RO         4345    i.MyI2C_ReceiveAck  bsp_i2c.o
    0x0000401e   0x0000401e   0x00000034   Code   RO         4346    i.MyI2C_ReceiveByte  bsp_i2c.o
    0x00004052   0x00004052   0x00000016   Code   RO         4347    i.MyI2C_SendAck     bsp_i2c.o
    0x00004068   0x00004068   0x00000028   Code   RO         4348    i.MyI2C_SendByte    bsp_i2c.o
    0x00004090   0x00004090   0x0000001e   Code   RO         4349    i.MyI2C_Start       bsp_i2c.o
    0x000040ae   0x000040ae   0x00000018   Code   RO         4350    i.MyI2C_Stop        bsp_i2c.o
    0x000040c6   0x000040c6   0x00000014   Code   RO         4351    i.MyI2C_W_SCL       bsp_i2c.o
    0x000040da   0x000040da   0x00000014   Code   RO         4352    i.MyI2C_W_SDA       bsp_i2c.o
    0x000040ee   0x000040ee   0x00000032   Code   RO         4353    i.MyI2C_WriteReg    bsp_i2c.o
    0x00004120   0x00004120   0x00000008   Code   RO         1679    i.NMI_Handler       hc32f460_interrupts.o
    0x00004128   0x00004128   0x0000005c   Code   RO         7243    i.PID_ReadFlash     interface_params.o
    0x00004184   0x00004184   0x00000018   Code   RO         7244    i.PID_WriteFlash    interface_params.o
    0x0000419c   0x0000419c   0x00000030   Code   RO         1135    i.PORT_DebugPortSetting  hc32f460_gpio.o
    0x000041cc   0x000041cc   0x00000014   Code   RO         1136    i.PORT_GetBit       hc32f460_gpio.o
    0x000041e0   0x000041e0   0x000000c0   Code   RO         1138    i.PORT_Init         hc32f460_gpio.o
    0x000042a0   0x000042a0   0x00000010   Code   RO         1139    i.PORT_Lock         hc32f460_gpio.o
    0x000042b0   0x000042b0   0x00000014   Code   RO         1142    i.PORT_ResetBits    hc32f460_gpio.o
    0x000042c4   0x000042c4   0x00000014   Code   RO         1144    i.PORT_SetBits      hc32f460_gpio.o
    0x000042d8   0x000042d8   0x00000054   Code   RO         1145    i.PORT_SetFunc      hc32f460_gpio.o
    0x0000432c   0x0000432c   0x00000014   Code   RO         1148    i.PORT_Toggle       hc32f460_gpio.o
    0x00004340   0x00004340   0x00000010   Code   RO         1149    i.PORT_Unlock       hc32f460_gpio.o
    0x00004350   0x00004350   0x00000214   Code   RO         7246    i.ParamsToTable     interface_params.o
    0x00004564   0x00004564   0x000000c4   Code   RO         7320    i.PidParameter_init  interface_pid.o
    0x00004628   0x00004628   0x0000002e   Code   RO         7157    i.QuiteSort         interface_filter.o
    0x00004656   0x00004656   0x00000016   Code   RO         4904    i.RF_ClearFIFO      bsp_xn297l.o
    0x0000466c   0x0000466c   0x000000b4   Code   RO         4908    i.RF_Init           bsp_xn297l.o
    0x00004720   0x00004720   0x00000036   Code   RO         4915    i.RF_WriteBuf       bsp_xn297l.o
    0x00004756   0x00004756   0x00000026   Code   RO         4916    i.RF_WriteReg       bsp_xn297l.o
    0x0000477c   0x0000477c   0x00000032   Code   RO         4732    i.RingBufRead       bsp_uart1.o
    0x000047ae   0x000047ae   0x00000002   PAD
    0x000047b0   0x000047b0   0x00000034   Code   RO         4917    i.SPIWriteReadByte  bsp_xn297l.o
    0x000047e4   0x000047e4   0x00000038   Code   RO         2830    i.SPI_Cmd           hc32f460_spi.o
    0x0000481c   0x0000481c   0x0000004c   Code   RO         2831    i.SPI_DeInit        hc32f460_spi.o
    0x00004868   0x00004868   0x00000078   Code   RO         2833    i.SPI_GetFlag       hc32f460_spi.o
    0x000048e0   0x000048e0   0x000001ac   Code   RO         2834    i.SPI_Init          hc32f460_spi.o
    0x00004a8c   0x00004a8c   0x00000006   Code   RO         2838    i.SPI_ReceiveData8  hc32f460_spi.o
    0x00004a92   0x00004a92   0x00000002   PAD
    0x00004a94   0x00004a94   0x00000034   Code   RO         2842    i.SPI_SendData8     hc32f460_spi.o
    0x00004ac8   0x00004ac8   0x000000e4   Code   RO         4918    i.SPI_init          bsp_xn297l.o
    0x00004bac   0x00004bac   0x000000f8   Code   RO         3592    i.SetClkSyncBaudrate  hc32f460_usart.o
    0x00004ca4   0x00004ca4   0x00000130   Code   RO         3593    i.SetScBaudrate     hc32f460_usart.o
    0x00004dd4   0x00004dd4   0x0000012c   Code   RO         3594    i.SetUartBaudrate   hc32f460_usart.o
    0x00004f00   0x00004f00   0x00000120   Code   RO         7160    i.SortAver_FilterXYZ  interface_filter.o
    0x00005020   0x00005020   0x0000000e   Code   RO         1680    i.SysTick_Handler   hc32f460_interrupts.o
    0x0000502e   0x0000502e   0x00000002   PAD
    0x00005030   0x00005030   0x000000ac   Code   RO         4148    i.SystemCoreClockUpdate  system_hc32f460.o
    0x000050dc   0x000050dc   0x00000014   Code   RO         4149    i.SystemInit        system_hc32f460.o
    0x000050f0   0x000050f0   0x0000008c   Code   RO         3349    i.TIMERA_BaseInit   hc32f460_timera.o
    0x0000517c   0x0000517c   0x00000050   Code   RO         3354    i.TIMERA_Cmd        hc32f460_timera.o
    0x000051cc   0x000051cc   0x00000058   Code   RO         3356    i.TIMERA_CompareCmd  hc32f460_timera.o
    0x00005224   0x00005224   0x000000e0   Code   RO         3357    i.TIMERA_CompareInit  hc32f460_timera.o
    0x00005304   0x00005304   0x00000214   Code   RO         7247    i.TableToParams     interface_params.o
    0x00005518   0x00005518   0x00000008   Code   RO         6584    i.Task_ADC          task_adc.o
    0x00005520   0x00005520   0x00000034   Code   RO         6585    i.Task_ADC_Start    task_adc.o
    0x00005554   0x00005554   0x00000014   Code   RO         6549    i.Task_LED          task_led.o
    0x00005568   0x00005568   0x00000030   Code   RO         6550    i.Task_LED_Start    task_led.o
    0x00005598   0x00005598   0x0000000a   Code   RO         4083    i.Task_START        user_task.o
    0x000055a2   0x000055a2   0x0000001a   Code   RO         4733    i.USART1_Send_BUF   bsp_uart1.o
    0x000055bc   0x000055bc   0x00000024   Code   RO         4734    i.USART1_Send_Byte  bsp_uart1.o
    0x000055e0   0x000055e0   0x0000006c   Code   RO         3596    i.USART_ClearStatus  hc32f460_usart.o
    0x0000564c   0x0000564c   0x0000023c   Code   RO         3598    i.USART_FuncCmd     hc32f460_usart.o
    0x00005888   0x00005888   0x0000000e   Code   RO         3608    i.USART_GetStatus   hc32f460_usart.o
    0x00005896   0x00005896   0x00000008   Code   RO         3611    i.USART_RecData     hc32f460_usart.o
    0x0000589e   0x0000589e   0x0000000c   Code   RO         3613    i.USART_SendData    hc32f460_usart.o
    0x000058aa   0x000058aa   0x00000002   PAD
    0x000058ac   0x000058ac   0x00000054   Code   RO         3614    i.USART_SetBaudrate  hc32f460_usart.o
    0x00005900   0x00005900   0x00000294   Code   RO         3626    i.USART_UART_Init   hc32f460_usart.o
    0x00005b94   0x00005b94   0x00000008   Code   RO         1681    i.UsageFault_Handler  hc32f460_interrupts.o
    0x00005b9c   0x00005b9c   0x0000004c   Code   RO         4736    i.Usart1ErrIrqCallback  bsp_uart1.o
    0x00005be8   0x00005be8   0x00000018   Code   RO         4737    i.Usart1RxIrqCallback  bsp_uart1.o
    0x00005c00   0x00005c00   0x00000028   Code   RO         4738    i.Usart1TxCmpltIrqCallback  bsp_uart1.o
    0x00005c28   0x00005c28   0x00000044   Code   RO         4739    i.Usart1TxIrqCallback  bsp_uart1.o
    0x00005c6c   0x00005c6c   0x0000004c   Code   RO         4826    i.UsartErrIrqCallback  bsp_vtx_beesign.o
    0x00005cb8   0x00005cb8   0x00000030   Code   RO         3627    i.UsartGetClk       hc32f460_usart.o
    0x00005ce8   0x00005ce8   0x0000007c   Code   RO         4084    i.User_Task_Create  user_task.o
    0x00005d64   0x00005d64   0x00000020   Code   RO        13700    i.__0printf         mc_w.l(printfa.o)
    0x00005d84   0x00005d84   0x0000001a   Code   RO         4740    i.__NVIC_ClearPendingIRQ  bsp_uart1.o
    0x00005d9e   0x00005d9e   0x0000001a   Code   RO         4827    i.__NVIC_ClearPendingIRQ  bsp_vtx_beesign.o
    0x00005db8   0x00005db8   0x00000022   Code   RO         2605    i.__NVIC_DisableIRQ  hc32f460_pwc.o
    0x00005dda   0x00005dda   0x0000001a   Code   RO         4741    i.__NVIC_EnableIRQ  bsp_uart1.o
    0x00005df4   0x00005df4   0x0000001a   Code   RO         4828    i.__NVIC_EnableIRQ  bsp_vtx_beesign.o
    0x00005e0e   0x00005e0e   0x00000020   Code   RO         4742    i.__NVIC_SetPriority  bsp_uart1.o
    0x00005e2e   0x00005e2e   0x00000020   Code   RO         4829    i.__NVIC_SetPriority  bsp_vtx_beesign.o
    0x00005e4e   0x00005e4e   0x0000000e   Code   RO        13847    i.__scatterload_copy  mc_w.l(handlers.o)
    0x00005e5c   0x00005e5c   0x0000000e   Code   RO        13849    i.__scatterload_zeroinit  mc_w.l(handlers.o)
    0x00005e6a   0x00005e6a   0x00000002   PAD
    0x00005e6c   0x00005e6c   0x00000184   Code   RO        13707    i._fp_digits        mc_w.l(printfa.o)
    0x00005ff0   0x00005ff0   0x000006b4   Code   RO        13708    i._printf_core      mc_w.l(printfa.o)
    0x000066a4   0x000066a4   0x00000024   Code   RO        13709    i._printf_post_padding  mc_w.l(printfa.o)
    0x000066c8   0x000066c8   0x0000002e   Code   RO        13710    i._printf_pre_padding  mc_w.l(printfa.o)
    0x000066f6   0x000066f6   0x00000016   Code   RO         4209    i.battery_init      bsp_battery.o
    0x0000670c   0x0000670c   0x00000064   Code   RO         4210    i.current_init      bsp_battery.o
    0x00006770   0x00006770   0x00000064   Code   RO         1688    i.enIrqRegistration  hc32f460_interrupts.o
    0x000067d4   0x000067d4   0x00000024   Code   RO         4830    i.fputc             bsp_vtx_beesign.o
    0x000067f8   0x000067f8   0x00000098   Code   RO         4442    i.imu_read          bsp_imu.o
    0x00006890   0x00006890   0x000000b4   Code   RO         4544    i.key_init          bsp_key.o
    0x00006944   0x00006944   0x0000002a   Code   RO         4590    i.led_init          bsp_led.o
    0x0000696e   0x0000696e   0x00000002   PAD
    0x00006970   0x00006970   0x0000004c   Code   RO         3916    i.main              main.o
    0x000069bc   0x000069bc   0x00000096   Code   RO         4120    i.mcu_cfg_sys_clk_init  mcu_cfg.o
    0x00006a52   0x00006a52   0x00000002   PAD
    0x00006a54   0x00006a54   0x000000c8   Code   RO         4614    i.motor_PWM02_init  bsp_motor.o
    0x00006b1c   0x00006b1c   0x000000a8   Code   RO         4615    i.motor_PWM1_init   bsp_motor.o
    0x00006bc4   0x00006bc4   0x000000a8   Code   RO         4616    i.motor_PWM3_init   bsp_motor.o
    0x00006c6c   0x00006c6c   0x0000002a   Code   RO         4617    i.motor_dir_init    bsp_motor.o
    0x00006c96   0x00006c96   0x00000016   Code   RO         4618    i.motor_init        bsp_motor.o
    0x00006cac   0x00006cac   0x00000046   Code   RO         4444    i.mpu6050_init      bsp_imu.o
    0x00006cf2   0x00006cf2   0x00000014   Code   RO         5843    i.osSystickHandler  cmsis_os.o
    0x00006d06   0x00006d06   0x00000002   PAD
    0x00006d08   0x00006d08   0x00000104   Code   RO         7351    i.pan_init          interface_remote.o
    0x00006e0c   0x00006e0c   0x00000048   Code   RO         4305    i.params_to_flash   bsp_flash.o
    0x00006e54   0x00006e54   0x00000070   Code   RO         5415    i.prvAddCurrentTaskToDelayedList  tasks.o
    0x00006ec4   0x00006ec4   0x00000088   Code   RO         5416    i.prvAddNewTaskToReadyList  tasks.o
    0x00006f4c   0x00006f4c   0x00000054   Code   RO         5417    i.prvCheckTasksWaitingTermination  tasks.o
    0x00006fa0   0x00006fa0   0x00000014   Code   RO         5418    i.prvDeleteTCB      tasks.o
    0x00006fb4   0x00006fb4   0x0000004c   Code   RO         5730    i.prvHeapInit       heap_4.o
    0x00007000   0x00007000   0x00000028   Code   RO         5419    i.prvIdleTask       tasks.o
    0x00007028   0x00007028   0x0000008e   Code   RO         5420    i.prvInitialiseNewTask  tasks.o
    0x000070b6   0x000070b6   0x00000002   PAD
    0x000070b8   0x000070b8   0x00000058   Code   RO         5421    i.prvInitialiseTaskLists  tasks.o
    0x00007110   0x00007110   0x00000054   Code   RO         5731    i.prvInsertBlockIntoFreeList  heap_4.o
    0x00007164   0x00007164   0x00000024   Code   RO         5422    i.prvResetNextTaskUnblockTime  tasks.o
    0x00007188   0x00007188   0x0000002c   Code   RO         6176    i.prvTaskExitError  port.o
    0x000071b4   0x000071b4   0x000000d4   Code   RO         5732    i.pvPortMalloc      heap_4.o
    0x00007288   0x00007288   0x00000024   Code   RO         6177    i.pxPortInitialiseStack  port.o
    0x000072ac   0x000072ac   0x00000038   Code   RO         7352    i.remote_bind       interface_remote.o
    0x000072e4   0x000072e4   0x00000010   Code   RO         7356    i.remote_init       interface_remote.o
    0x000072f4   0x000072f4   0x00000088   Code   RO         4923    i.rf_pan2025_set_txrx_mode  bsp_xn297l.o
    0x0000737c   0x0000737c   0x00000164   Code   RO         4743    i.uart1_init        bsp_uart1.o
    0x000074e0   0x000074e0   0x000000c4   Code   RO         4831    i.uart2_init        bsp_vtx_beesign.o
    0x000075a4   0x000075a4   0x00000024   Code   RO         5202    i.uxListRemove      list.o
    0x000075c8   0x000075c8   0x00000318   Code   RO         7528    i.vANO_DT_Data_Exchange_Task  ano_dt_lx.o
    0x000078e0   0x000078e0   0x00000016   Code   RO         5203    i.vListInitialise   list.o
    0x000078f6   0x000078f6   0x00000006   Code   RO         5204    i.vListInitialiseItem  list.o
    0x000078fc   0x000078fc   0x00000030   Code   RO         5205    i.vListInsert       list.o
    0x0000792c   0x0000792c   0x00000018   Code   RO         5206    i.vListInsertEnd    list.o
    0x00007944   0x00007944   0x00000040   Code   RO         6179    i.vPortEnterCritical  port.o
    0x00007984   0x00007984   0x0000002c   Code   RO         6180    i.vPortExitCritical  port.o
    0x000079b0   0x000079b0   0x0000005c   Code   RO         5733    i.vPortFree         heap_4.o
    0x00007a0c   0x00007a0c   0x00000020   Code   RO         6181    i.vPortSetupTimerInterrupt  port.o
    0x00007a2c   0x00007a2c   0x00000150   Code   RO         4445    i.vPrepare_Data_Task  bsp_imu.o
    0x00007b7c   0x00007b7c   0x00000050   Code   RO         5430    i.vTaskDelay        tasks.o
    0x00007bcc   0x00007bcc   0x00000068   Code   RO         5441    i.vTaskStartScheduler  tasks.o
    0x00007c34   0x00007c34   0x00000010   Code   RO         5443    i.vTaskSuspendAll   tasks.o
    0x00007c44   0x00007c44   0x00000060   Code   RO         5444    i.vTaskSwitchContext  tasks.o
    0x00007ca4   0x00007ca4   0x000000e0   Code   RO         6183    i.xPortStartScheduler  port.o
    0x00007d84   0x00007d84   0x0000002c   Code   RO         6184    i.xPortSysTickHandler  port.o
    0x00007db0   0x00007db0   0x00000060   Code   RO         5446    i.xTaskCreate       tasks.o
    0x00007e10   0x00007e10   0x0000001c   Code   RO         5450    i.xTaskGetSchedulerState  tasks.o
    0x00007e2c   0x00007e2c   0x000000cc   Code   RO         5453    i.xTaskIncrementTick  tasks.o
    0x00007ef8   0x00007ef8   0x000000cc   Code   RO         5459    i.xTaskResumeAll    tasks.o
    0x00007fc4   0x00007fc4   0x00000010   Data   RO         3628    .constdata          hc32f460_usart.o
    0x00007fd4   0x00007fd4   0x00000009   Data   RO         4744    .constdata          bsp_uart1.o
    0x00007fdd   0x00007fdd   0x00000003   PAD
    0x00007fe0   0x00007fe0   0x00000009   Data   RO         4832    .constdata          bsp_vtx_beesign.o
    0x00007fe9   0x00007fe9   0x00000003   PAD
    0x00007fec   0x00007fec   0x00000020   Data   RO        13845    Region$$Table       anon$$obj.o


    Execution Region RW_IRAM1 (Exec base: 0x1fff8000, Load base: 0x0000800c, Size: 0x000050f8, Max: 0x0002f000, ABSOLUTE, COMPRESSED[0x0000003c])

    Exec Addr    Load Addr    Size         Type   Attr      Idx    E Section Name        Object

    0x1fff8000   COMPRESSED   0x00000001   Data   RW          671    .data               hc32f460_dmac.o
    0x1fff8001   COMPRESSED   0x00000005   Data   RW         2607    .data               hc32f460_pwc.o
    0x1fff8006   COMPRESSED   0x00000002   PAD
    0x1fff8008   COMPRESSED   0x00000004   Data   RW         4085    .data               user_task.o
    0x1fff800c   COMPRESSED   0x00000008   Data   RW         4150    .data               system_hc32f460.o
    0x1fff8014   COMPRESSED   0x00000054   Data   RW         4451    .data               bsp_imu.o
    0x1fff8068   COMPRESSED   0x00000001   Data   RW         4545    .data               bsp_key.o
    0x1fff8069   COMPRESSED   0x00000001   PAD
    0x1fff806a   COMPRESSED   0x000001fe   Data   RW         4745    .data               bsp_uart1.o
    0x1fff8268   COMPRESSED   0x0000003c   Data   RW         5462    .data               tasks.o
    0x1fff82a4   COMPRESSED   0x00000018   Data   RW         5738    .data               heap_4.o
    0x1fff82bc   COMPRESSED   0x0000000c   Data   RW         6185    .data               port.o
    0x1fff82c8   COMPRESSED   0x00000004   Data   RW         6551    .data               task_led.o
    0x1fff82cc   COMPRESSED   0x00000004   Data   RW         6588    .data               task_adc.o
    0x1fff82d0   COMPRESSED   0x00000014   Data   RW         6870    .data               interface_beesign.o
    0x1fff82e4   COMPRESSED   0x00000014   Data   RW         7079    .data               interface_contronl.o
    0x1fff82f8   COMPRESSED   0x0000000e   Data   RW         7163    .data               interface_filter.o
    0x1fff8306   COMPRESSED   0x00000002   PAD
    0x1fff8308   COMPRESSED   0x0000006c   Data   RW         7250    .data               interface_params.o
    0x1fff8374   COMPRESSED   0x00000022   Data   RW         7360    .data               interface_remote.o
    0x1fff8396   COMPRESSED   0x00000009   Data   RW         7530    .data               ano_dt_lx.o
    0x1fff839f   COMPRESSED   0x00000001   PAD
    0x1fff83a0   COMPRESSED   0x00000004   Data   RW        13818    .data               mc_w.l(stdout.o)
    0x1fff83a4        -       0x00000200   Zero   RW         1692    .bss                hc32f460_interrupts.o
    0x1fff85a4        -       0x00000014   Zero   RW         2606    .bss                hc32f460_pwc.o
    0x1fff85b8        -       0x00000044   Zero   RW         4215    .bss                bsp_battery.o
    0x1fff85fc        -       0x0000000c   Zero   RW         4446    .bss                bsp_imu.o
    0x1fff8608        -       0x00000054   Zero   RW         4447    .bss                bsp_imu.o
    0x1fff865c        -       0x00000040   Zero   RW         4673    .bss                bsp_spl06.o
    0x1fff869c        -       0x000000f0   Zero   RW         5461    .bss                tasks.o
    0x1fff878c        -       0x00003c00   Zero   RW         5737    .bss                heap_4.o
    0x1fffc38c        -       0x00000117   Zero   RW         6869    .bss                interface_beesign.o
    0x1fffc4a3   COMPRESSED   0x00000001   PAD
    0x1fffc4a4        -       0x00000168   Zero   RW         7076    .bss                interface_contronl.o
    0x1fffc60c        -       0x0000003c   Zero   RW         7077    .bss                interface_contronl.o
    0x1fffc648        -       0x0000003c   Zero   RW         7078    .bss                interface_contronl.o
    0x1fffc684        -       0x00000500   Zero   RW         7162    .bss                interface_filter.o
    0x1fffcb84        -       0x00000106   Zero   RW         7249    .bss                interface_params.o
    0x1fffcc8a        -       0x0000006e   Zero   RW         7529    .bss                ano_dt_lx.o
    0x1fffccf8        -       0x00000400   Zero   RW         4191    STACK               startup_hc32f460.o

