Component: ARM Compiler 5.06 update 7 (build 960) Tool: armlink [4d3601]

==============================================================================

Memory Map of the image

  Image Entry point : 0x00000281

  Load Region LR_IROM1 (Base: 0x00000000, Size: 0x00004bf4, Max: 0x00080000, ABSOLUTE, COMPRESSED[0x0000499c])

    Execution Region ER_IROM1 (Exec base: 0x00000000, Load base: 0x00000000, Size: 0x00004984, Max: 0x00080000, ABSOLUTE)

    Exec Addr    Load Addr    Size         Type   Attr      Idx    E Section Name        Object

    0x00000000   0x00000000   0x00000280   Data   RO         3712    RESET               startup_hc32f460.o
    0x00000280   0x00000280   0x00000000   Code   RO        11123  * .ARM.Collect$$$$00000000  mc_w.l(entry.o)
    0x00000280   0x00000280   0x00000004   Code   RO        11225    .ARM.Collect$$$$00000001  mc_w.l(entry2.o)
    0x00000284   0x00000284   0x00000004   Code   RO        11228    .ARM.Collect$$$$00000004  mc_w.l(entry5.o)
    0x00000288   0x00000288   0x00000000   Code   RO        11230    .ARM.Collect$$$$00000008  mc_w.l(entry7b.o)
    0x00000288   0x00000288   0x00000000   Code   RO        11232    .ARM.Collect$$$$0000000A  mc_w.l(entry8b.o)
    0x00000288   0x00000288   0x00000008   Code   RO        11233    .ARM.Collect$$$$0000000B  mc_w.l(entry9a.o)
    0x00000290   0x00000290   0x00000004   Code   RO        11240    .ARM.Collect$$$$0000000E  mc_w.l(entry12b.o)
    0x00000294   0x00000294   0x00000000   Code   RO        11235    .ARM.Collect$$$$0000000F  mc_w.l(entry10a.o)
    0x00000294   0x00000294   0x00000000   Code   RO        11237    .ARM.Collect$$$$00000011  mc_w.l(entry11a.o)
    0x00000294   0x00000294   0x00000004   Code   RO        11226    .ARM.Collect$$$$00002712  mc_w.l(entry2.o)
    0x00000298   0x00000298   0x000000ba   Code   RO         4835    .emb_text           port.o
    0x00000352   0x00000352   0x00000002   PAD
    0x00000354   0x00000354   0x00000058   Code   RO         3713    .text               startup_hc32f460.o
    0x000003ac   0x000003ac   0x0000001e   Code   RO        11130    .text               mc_w.l(llshl.o)
    0x000003ca   0x000003ca   0x00000024   Code   RO        11132    .text               mc_w.l(llsshr.o)
    0x000003ee   0x000003ee   0x00000000   Code   RO        11255    .text               mc_w.l(iusefp.o)
    0x000003ee   0x000003ee   0x00000008   Code   RO         1421    i.BusFault_Handler  hc32f460_interrupts.o
    0x000003f6   0x000003f6   0x00000008   Code   RO         1422    i.DebugMon_Handler  hc32f460_interrupts.o
    0x000003fe   0x000003fe   0x00000002   Code   RO        11277    i.__scatterload_null  mc_w.l(handlers.o)
    0x00000400   0x00000400   0x00000020   Data   RO         1397    .ARM.__AT_0x00000400  hc32f460_icg.o
    0x00000420   0x00000420   0x00000062   Code   RO        11126    .text               mc_w.l(uldiv.o)
    0x00000482   0x00000482   0x00000024   Code   RO        11136    .text               mc_w.l(memseta.o)
    0x000004a6   0x000004a6   0x0000014e   Code   RO        11172    .text               mf_w.l(dadd.o)
    0x000005f4   0x000005f4   0x000000e4   Code   RO        11174    .text               mf_w.l(dmul.o)
    0x000006d8   0x000006d8   0x000000de   Code   RO        11176    .text               mf_w.l(ddiv.o)
    0x000007b6   0x000007b6   0x00000002   PAD
    0x000007b8   0x000007b8   0x00000030   Code   RO        11186    .text               mf_w.l(cdrcmple.o)
    0x000007e8   0x000007e8   0x0000002c   Code   RO        11244    .text               mc_w.l(uidiv.o)
    0x00000814   0x00000814   0x00000020   Code   RO        11246    .text               mc_w.l(llushr.o)
    0x00000834   0x00000834   0x000000ba   Code   RO        11258    .text               mf_w.l(depilogue.o)
    0x000008ee   0x000008ee   0x00000030   Code   RO        11266    .text               mf_w.l(dfixul.o)
    0x0000091e   0x0000091e   0x00000002   PAD
    0x00000920   0x00000920   0x00000024   Code   RO        11270    .text               mc_w.l(init.o)
    0x00000944   0x00000944   0x0000003a   Code   RO        11282    .text               mc_w.l(__dczerorl.o)
    0x0000097e   0x0000097e   0x00000002   PAD
    0x00000980   0x00000980   0x00000e3c   Code   RO         2456    RAMCODE             hc32f460_pwc.o
    0x000017bc   0x000017bc   0x00000048   Code   RO          300    i.CLK_GetFlagStatus  hc32f460_clk.o
    0x00001804   0x00001804   0x0000007c   Code   RO          308    i.CLK_MpllCmd       hc32f460_clk.o
    0x00001880   0x00001880   0x00000068   Code   RO          309    i.CLK_MpllConfig    hc32f460_clk.o
    0x000018e8   0x000018e8   0x00000030   Code   RO          316    i.CLK_SetPllSource  hc32f460_clk.o
    0x00001918   0x00001918   0x000000bc   Code   RO          317    i.CLK_SetSysClkSource  hc32f460_clk.o
    0x000019d4   0x000019d4   0x000000dc   Code   RO          319    i.CLK_SysClkConfig  hc32f460_clk.o
    0x00001ab0   0x00001ab0   0x0000009c   Code   RO          326    i.CLK_XtalCmd       hc32f460_clk.o
    0x00001b4c   0x00001b4c   0x00000048   Code   RO          327    i.CLK_XtalConfig    hc32f460_clk.o
    0x00001b94   0x00001b94   0x00000028   Code   RO         3457    i.Ddl_Delay1ms      hc32f460_utility.o
    0x00001bbc   0x00001bbc   0x00000034   Code   RO         3458    i.Ddl_Delay1us      hc32f460_utility.o
    0x00001bf0   0x00001bf0   0x00000018   Code   RO          769    i.EFM_Lock          hc32f460_efm.o
    0x00001c08   0x00001c08   0x00000010   Code   RO          778    i.EFM_SetLatency    hc32f460_efm.o
    0x00001c18   0x00001c18   0x00000014   Code   RO          783    i.EFM_Unlock        hc32f460_efm.o
    0x00001c2c   0x00001c2c   0x00000008   Code   RO         1423    i.HardFault_Handler  hc32f460_interrupts.o
    0x00001c34   0x00001c34   0x00000010   Code   RO         1424    i.IRQ000_Handler    hc32f460_interrupts.o
    0x00001c44   0x00001c44   0x00000010   Code   RO         1425    i.IRQ001_Handler    hc32f460_interrupts.o
    0x00001c54   0x00001c54   0x00000010   Code   RO         1426    i.IRQ002_Handler    hc32f460_interrupts.o
    0x00001c64   0x00001c64   0x00000010   Code   RO         1427    i.IRQ003_Handler    hc32f460_interrupts.o
    0x00001c74   0x00001c74   0x00000010   Code   RO         1428    i.IRQ004_Handler    hc32f460_interrupts.o
    0x00001c84   0x00001c84   0x00000010   Code   RO         1429    i.IRQ005_Handler    hc32f460_interrupts.o
    0x00001c94   0x00001c94   0x00000010   Code   RO         1430    i.IRQ006_Handler    hc32f460_interrupts.o
    0x00001ca4   0x00001ca4   0x00000010   Code   RO         1431    i.IRQ007_Handler    hc32f460_interrupts.o
    0x00001cb4   0x00001cb4   0x00000010   Code   RO         1432    i.IRQ008_Handler    hc32f460_interrupts.o
    0x00001cc4   0x00001cc4   0x00000010   Code   RO         1433    i.IRQ009_Handler    hc32f460_interrupts.o
    0x00001cd4   0x00001cd4   0x00000010   Code   RO         1434    i.IRQ010_Handler    hc32f460_interrupts.o
    0x00001ce4   0x00001ce4   0x00000010   Code   RO         1435    i.IRQ011_Handler    hc32f460_interrupts.o
    0x00001cf4   0x00001cf4   0x00000010   Code   RO         1436    i.IRQ012_Handler    hc32f460_interrupts.o
    0x00001d04   0x00001d04   0x00000010   Code   RO         1437    i.IRQ013_Handler    hc32f460_interrupts.o
    0x00001d14   0x00001d14   0x00000010   Code   RO         1438    i.IRQ014_Handler    hc32f460_interrupts.o
    0x00001d24   0x00001d24   0x00000010   Code   RO         1439    i.IRQ015_Handler    hc32f460_interrupts.o
    0x00001d34   0x00001d34   0x00000010   Code   RO         1440    i.IRQ016_Handler    hc32f460_interrupts.o
    0x00001d44   0x00001d44   0x00000010   Code   RO         1441    i.IRQ017_Handler    hc32f460_interrupts.o
    0x00001d54   0x00001d54   0x00000010   Code   RO         1442    i.IRQ018_Handler    hc32f460_interrupts.o
    0x00001d64   0x00001d64   0x00000010   Code   RO         1443    i.IRQ019_Handler    hc32f460_interrupts.o
    0x00001d74   0x00001d74   0x00000010   Code   RO         1444    i.IRQ020_Handler    hc32f460_interrupts.o
    0x00001d84   0x00001d84   0x00000010   Code   RO         1445    i.IRQ021_Handler    hc32f460_interrupts.o
    0x00001d94   0x00001d94   0x00000010   Code   RO         1446    i.IRQ022_Handler    hc32f460_interrupts.o
    0x00001da4   0x00001da4   0x00000010   Code   RO         1447    i.IRQ023_Handler    hc32f460_interrupts.o
    0x00001db4   0x00001db4   0x00000010   Code   RO         1448    i.IRQ024_Handler    hc32f460_interrupts.o
    0x00001dc4   0x00001dc4   0x00000010   Code   RO         1449    i.IRQ025_Handler    hc32f460_interrupts.o
    0x00001dd4   0x00001dd4   0x00000010   Code   RO         1450    i.IRQ026_Handler    hc32f460_interrupts.o
    0x00001de4   0x00001de4   0x00000010   Code   RO         1451    i.IRQ027_Handler    hc32f460_interrupts.o
    0x00001df4   0x00001df4   0x00000010   Code   RO         1452    i.IRQ028_Handler    hc32f460_interrupts.o
    0x00001e04   0x00001e04   0x00000010   Code   RO         1453    i.IRQ029_Handler    hc32f460_interrupts.o
    0x00001e14   0x00001e14   0x00000010   Code   RO         1454    i.IRQ030_Handler    hc32f460_interrupts.o
    0x00001e24   0x00001e24   0x00000010   Code   RO         1455    i.IRQ031_Handler    hc32f460_interrupts.o
    0x00001e34   0x00001e34   0x00000014   Code   RO         1456    i.IRQ032_Handler    hc32f460_interrupts.o
    0x00001e48   0x00001e48   0x00000014   Code   RO         1457    i.IRQ033_Handler    hc32f460_interrupts.o
    0x00001e5c   0x00001e5c   0x00000014   Code   RO         1458    i.IRQ034_Handler    hc32f460_interrupts.o
    0x00001e70   0x00001e70   0x00000014   Code   RO         1459    i.IRQ035_Handler    hc32f460_interrupts.o
    0x00001e84   0x00001e84   0x00000014   Code   RO         1460    i.IRQ036_Handler    hc32f460_interrupts.o
    0x00001e98   0x00001e98   0x00000014   Code   RO         1461    i.IRQ037_Handler    hc32f460_interrupts.o
    0x00001eac   0x00001eac   0x00000014   Code   RO         1462    i.IRQ038_Handler    hc32f460_interrupts.o
    0x00001ec0   0x00001ec0   0x00000014   Code   RO         1463    i.IRQ039_Handler    hc32f460_interrupts.o
    0x00001ed4   0x00001ed4   0x00000014   Code   RO         1464    i.IRQ040_Handler    hc32f460_interrupts.o
    0x00001ee8   0x00001ee8   0x00000014   Code   RO         1465    i.IRQ041_Handler    hc32f460_interrupts.o
    0x00001efc   0x00001efc   0x00000014   Code   RO         1466    i.IRQ042_Handler    hc32f460_interrupts.o
    0x00001f10   0x00001f10   0x00000014   Code   RO         1467    i.IRQ043_Handler    hc32f460_interrupts.o
    0x00001f24   0x00001f24   0x00000014   Code   RO         1468    i.IRQ044_Handler    hc32f460_interrupts.o
    0x00001f38   0x00001f38   0x00000014   Code   RO         1469    i.IRQ045_Handler    hc32f460_interrupts.o
    0x00001f4c   0x00001f4c   0x00000014   Code   RO         1470    i.IRQ046_Handler    hc32f460_interrupts.o
    0x00001f60   0x00001f60   0x00000014   Code   RO         1471    i.IRQ047_Handler    hc32f460_interrupts.o
    0x00001f74   0x00001f74   0x00000014   Code   RO         1472    i.IRQ048_Handler    hc32f460_interrupts.o
    0x00001f88   0x00001f88   0x00000014   Code   RO         1473    i.IRQ049_Handler    hc32f460_interrupts.o
    0x00001f9c   0x00001f9c   0x00000014   Code   RO         1474    i.IRQ050_Handler    hc32f460_interrupts.o
    0x00001fb0   0x00001fb0   0x00000014   Code   RO         1475    i.IRQ051_Handler    hc32f460_interrupts.o
    0x00001fc4   0x00001fc4   0x00000014   Code   RO         1476    i.IRQ052_Handler    hc32f460_interrupts.o
    0x00001fd8   0x00001fd8   0x00000014   Code   RO         1477    i.IRQ053_Handler    hc32f460_interrupts.o
    0x00001fec   0x00001fec   0x00000014   Code   RO         1478    i.IRQ054_Handler    hc32f460_interrupts.o
    0x00002000   0x00002000   0x00000014   Code   RO         1479    i.IRQ055_Handler    hc32f460_interrupts.o
    0x00002014   0x00002014   0x00000014   Code   RO         1480    i.IRQ056_Handler    hc32f460_interrupts.o
    0x00002028   0x00002028   0x00000014   Code   RO         1481    i.IRQ057_Handler    hc32f460_interrupts.o
    0x0000203c   0x0000203c   0x00000014   Code   RO         1482    i.IRQ058_Handler    hc32f460_interrupts.o
    0x00002050   0x00002050   0x00000014   Code   RO         1483    i.IRQ059_Handler    hc32f460_interrupts.o
    0x00002064   0x00002064   0x00000014   Code   RO         1484    i.IRQ060_Handler    hc32f460_interrupts.o
    0x00002078   0x00002078   0x00000014   Code   RO         1485    i.IRQ061_Handler    hc32f460_interrupts.o
    0x0000208c   0x0000208c   0x00000014   Code   RO         1486    i.IRQ062_Handler    hc32f460_interrupts.o
    0x000020a0   0x000020a0   0x00000014   Code   RO         1487    i.IRQ063_Handler    hc32f460_interrupts.o
    0x000020b4   0x000020b4   0x00000014   Code   RO         1488    i.IRQ064_Handler    hc32f460_interrupts.o
    0x000020c8   0x000020c8   0x00000014   Code   RO         1489    i.IRQ065_Handler    hc32f460_interrupts.o
    0x000020dc   0x000020dc   0x00000014   Code   RO         1490    i.IRQ066_Handler    hc32f460_interrupts.o
    0x000020f0   0x000020f0   0x00000014   Code   RO         1491    i.IRQ067_Handler    hc32f460_interrupts.o
    0x00002104   0x00002104   0x00000014   Code   RO         1492    i.IRQ068_Handler    hc32f460_interrupts.o
    0x00002118   0x00002118   0x00000014   Code   RO         1493    i.IRQ069_Handler    hc32f460_interrupts.o
    0x0000212c   0x0000212c   0x00000014   Code   RO         1494    i.IRQ070_Handler    hc32f460_interrupts.o
    0x00002140   0x00002140   0x00000014   Code   RO         1495    i.IRQ071_Handler    hc32f460_interrupts.o
    0x00002154   0x00002154   0x00000014   Code   RO         1496    i.IRQ072_Handler    hc32f460_interrupts.o
    0x00002168   0x00002168   0x00000014   Code   RO         1497    i.IRQ073_Handler    hc32f460_interrupts.o
    0x0000217c   0x0000217c   0x00000014   Code   RO         1498    i.IRQ074_Handler    hc32f460_interrupts.o
    0x00002190   0x00002190   0x00000014   Code   RO         1499    i.IRQ075_Handler    hc32f460_interrupts.o
    0x000021a4   0x000021a4   0x00000014   Code   RO         1500    i.IRQ076_Handler    hc32f460_interrupts.o
    0x000021b8   0x000021b8   0x00000014   Code   RO         1501    i.IRQ077_Handler    hc32f460_interrupts.o
    0x000021cc   0x000021cc   0x00000014   Code   RO         1502    i.IRQ078_Handler    hc32f460_interrupts.o
    0x000021e0   0x000021e0   0x00000014   Code   RO         1503    i.IRQ079_Handler    hc32f460_interrupts.o
    0x000021f4   0x000021f4   0x00000014   Code   RO         1504    i.IRQ080_Handler    hc32f460_interrupts.o
    0x00002208   0x00002208   0x00000014   Code   RO         1505    i.IRQ081_Handler    hc32f460_interrupts.o
    0x0000221c   0x0000221c   0x00000014   Code   RO         1506    i.IRQ082_Handler    hc32f460_interrupts.o
    0x00002230   0x00002230   0x00000014   Code   RO         1507    i.IRQ083_Handler    hc32f460_interrupts.o
    0x00002244   0x00002244   0x00000014   Code   RO         1508    i.IRQ084_Handler    hc32f460_interrupts.o
    0x00002258   0x00002258   0x00000014   Code   RO         1509    i.IRQ085_Handler    hc32f460_interrupts.o
    0x0000226c   0x0000226c   0x00000014   Code   RO         1510    i.IRQ086_Handler    hc32f460_interrupts.o
    0x00002280   0x00002280   0x00000014   Code   RO         1511    i.IRQ087_Handler    hc32f460_interrupts.o
    0x00002294   0x00002294   0x00000014   Code   RO         1512    i.IRQ088_Handler    hc32f460_interrupts.o
    0x000022a8   0x000022a8   0x00000014   Code   RO         1513    i.IRQ089_Handler    hc32f460_interrupts.o
    0x000022bc   0x000022bc   0x00000014   Code   RO         1514    i.IRQ090_Handler    hc32f460_interrupts.o
    0x000022d0   0x000022d0   0x00000014   Code   RO         1515    i.IRQ091_Handler    hc32f460_interrupts.o
    0x000022e4   0x000022e4   0x00000014   Code   RO         1516    i.IRQ092_Handler    hc32f460_interrupts.o
    0x000022f8   0x000022f8   0x00000014   Code   RO         1517    i.IRQ093_Handler    hc32f460_interrupts.o
    0x0000230c   0x0000230c   0x00000014   Code   RO         1518    i.IRQ094_Handler    hc32f460_interrupts.o
    0x00002320   0x00002320   0x00000014   Code   RO         1519    i.IRQ095_Handler    hc32f460_interrupts.o
    0x00002334   0x00002334   0x00000014   Code   RO         1520    i.IRQ096_Handler    hc32f460_interrupts.o
    0x00002348   0x00002348   0x00000014   Code   RO         1521    i.IRQ097_Handler    hc32f460_interrupts.o
    0x0000235c   0x0000235c   0x00000014   Code   RO         1522    i.IRQ098_Handler    hc32f460_interrupts.o
    0x00002370   0x00002370   0x00000014   Code   RO         1523    i.IRQ099_Handler    hc32f460_interrupts.o
    0x00002384   0x00002384   0x00000014   Code   RO         1524    i.IRQ100_Handler    hc32f460_interrupts.o
    0x00002398   0x00002398   0x00000014   Code   RO         1525    i.IRQ101_Handler    hc32f460_interrupts.o
    0x000023ac   0x000023ac   0x00000014   Code   RO         1526    i.IRQ102_Handler    hc32f460_interrupts.o
    0x000023c0   0x000023c0   0x00000014   Code   RO         1527    i.IRQ103_Handler    hc32f460_interrupts.o
    0x000023d4   0x000023d4   0x00000014   Code   RO         1528    i.IRQ104_Handler    hc32f460_interrupts.o
    0x000023e8   0x000023e8   0x00000014   Code   RO         1529    i.IRQ105_Handler    hc32f460_interrupts.o
    0x000023fc   0x000023fc   0x00000014   Code   RO         1530    i.IRQ106_Handler    hc32f460_interrupts.o
    0x00002410   0x00002410   0x00000014   Code   RO         1531    i.IRQ107_Handler    hc32f460_interrupts.o
    0x00002424   0x00002424   0x00000014   Code   RO         1532    i.IRQ108_Handler    hc32f460_interrupts.o
    0x00002438   0x00002438   0x00000014   Code   RO         1533    i.IRQ109_Handler    hc32f460_interrupts.o
    0x0000244c   0x0000244c   0x00000014   Code   RO         1534    i.IRQ110_Handler    hc32f460_interrupts.o
    0x00002460   0x00002460   0x00000014   Code   RO         1535    i.IRQ111_Handler    hc32f460_interrupts.o
    0x00002474   0x00002474   0x00000014   Code   RO         1536    i.IRQ112_Handler    hc32f460_interrupts.o
    0x00002488   0x00002488   0x00000014   Code   RO         1537    i.IRQ113_Handler    hc32f460_interrupts.o
    0x0000249c   0x0000249c   0x00000014   Code   RO         1538    i.IRQ114_Handler    hc32f460_interrupts.o
    0x000024b0   0x000024b0   0x00000014   Code   RO         1539    i.IRQ115_Handler    hc32f460_interrupts.o
    0x000024c4   0x000024c4   0x00000014   Code   RO         1540    i.IRQ116_Handler    hc32f460_interrupts.o
    0x000024d8   0x000024d8   0x00000014   Code   RO         1541    i.IRQ117_Handler    hc32f460_interrupts.o
    0x000024ec   0x000024ec   0x00000014   Code   RO         1542    i.IRQ118_Handler    hc32f460_interrupts.o
    0x00002500   0x00002500   0x00000014   Code   RO         1543    i.IRQ119_Handler    hc32f460_interrupts.o
    0x00002514   0x00002514   0x00000014   Code   RO         1544    i.IRQ120_Handler    hc32f460_interrupts.o
    0x00002528   0x00002528   0x00000014   Code   RO         1545    i.IRQ121_Handler    hc32f460_interrupts.o
    0x0000253c   0x0000253c   0x00000014   Code   RO         1546    i.IRQ122_Handler    hc32f460_interrupts.o
    0x00002550   0x00002550   0x00000014   Code   RO         1547    i.IRQ123_Handler    hc32f460_interrupts.o
    0x00002564   0x00002564   0x00000014   Code   RO         1548    i.IRQ124_Handler    hc32f460_interrupts.o
    0x00002578   0x00002578   0x00000014   Code   RO         1549    i.IRQ125_Handler    hc32f460_interrupts.o
    0x0000258c   0x0000258c   0x00000014   Code   RO         1550    i.IRQ126_Handler    hc32f460_interrupts.o
    0x000025a0   0x000025a0   0x00000014   Code   RO         1551    i.IRQ127_Handler    hc32f460_interrupts.o
    0x000025b4   0x000025b4   0x00000008   Code   RO         1552    i.MemManage_Handler  hc32f460_interrupts.o
    0x000025bc   0x000025bc   0x00000008   Code   RO         1553    i.NMI_Handler       hc32f460_interrupts.o
    0x000025c4   0x000025c4   0x000000c0   Code   RO         1054    i.PORT_Init         hc32f460_gpio.o
    0x00002684   0x00002684   0x00000010   Code   RO         1055    i.PORT_Lock         hc32f460_gpio.o
    0x00002694   0x00002694   0x00000014   Code   RO         1060    i.PORT_SetBits      hc32f460_gpio.o
    0x000026a8   0x000026a8   0x00000054   Code   RO         1061    i.PORT_SetFunc      hc32f460_gpio.o
    0x000026fc   0x000026fc   0x00000014   Code   RO         1064    i.PORT_Toggle       hc32f460_gpio.o
    0x00002710   0x00002710   0x00000010   Code   RO         1065    i.PORT_Unlock       hc32f460_gpio.o
    0x00002720   0x00002720   0x00000032   Code   RO         5237    i.RingBufRead       bsp_uart1.o
    0x00002752   0x00002752   0x00000002   PAD
    0x00002754   0x00002754   0x00000024   Code   RO         5238    i.Send_Log          bsp_uart1.o
    0x00002778   0x00002778   0x000000f8   Code   RO         3226    i.SetClkSyncBaudrate  hc32f460_usart.o
    0x00002870   0x00002870   0x00000130   Code   RO         3227    i.SetScBaudrate     hc32f460_usart.o
    0x000029a0   0x000029a0   0x0000012c   Code   RO         3228    i.SetUartBaudrate   hc32f460_usart.o
    0x00002acc   0x00002acc   0x0000000e   Code   RO         1554    i.SysTick_Handler   hc32f460_interrupts.o
    0x00002ada   0x00002ada   0x00000002   PAD
    0x00002adc   0x00002adc   0x000000ac   Code   RO         3667    i.SystemCoreClockUpdate  system_hc32f460.o
    0x00002b88   0x00002b88   0x00000014   Code   RO         3668    i.SystemInit        system_hc32f460.o
    0x00002b9c   0x00002b9c   0x00000014   Code   RO         5156    i.Task_LED          task_led.o
    0x00002bb0   0x00002bb0   0x0000002c   Code   RO         5183    i.Task_UART         task_uart.o
    0x00002bdc   0x00002bdc   0x0000001a   Code   RO         5239    i.USART1_Send_BUF   bsp_uart1.o
    0x00002bf6   0x00002bf6   0x00000002   PAD
    0x00002bf8   0x00002bf8   0x00000024   Code   RO         5240    i.USART1_Send_Byte  bsp_uart1.o
    0x00002c1c   0x00002c1c   0x0000006c   Code   RO         3230    i.USART_ClearStatus  hc32f460_usart.o
    0x00002c88   0x00002c88   0x0000023c   Code   RO         3232    i.USART_FuncCmd     hc32f460_usart.o
    0x00002ec4   0x00002ec4   0x0000000e   Code   RO         3242    i.USART_GetStatus   hc32f460_usart.o
    0x00002ed2   0x00002ed2   0x00000008   Code   RO         3245    i.USART_RecData     hc32f460_usart.o
    0x00002eda   0x00002eda   0x0000000c   Code   RO         3247    i.USART_SendData    hc32f460_usart.o
    0x00002ee6   0x00002ee6   0x00000002   PAD
    0x00002ee8   0x00002ee8   0x00000054   Code   RO         3248    i.USART_SetBaudrate  hc32f460_usart.o
    0x00002f3c   0x00002f3c   0x00000294   Code   RO         3260    i.USART_UART_Init   hc32f460_usart.o
    0x000031d0   0x000031d0   0x00000008   Code   RO         1555    i.UsageFault_Handler  hc32f460_interrupts.o
    0x000031d8   0x000031d8   0x0000004c   Code   RO         5242    i.Usart1ErrIrqCallback  bsp_uart1.o
    0x00003224   0x00003224   0x0000000c   Code   RO         5243    i.Usart1RxIrqCallback  bsp_uart1.o
    0x00003230   0x00003230   0x00000028   Code   RO         5244    i.Usart1TxCmpltIrqCallback  bsp_uart1.o
    0x00003258   0x00003258   0x00000044   Code   RO         5245    i.Usart1TxIrqCallback  bsp_uart1.o
    0x0000329c   0x0000329c   0x00000030   Code   RO         3261    i.UsartGetClk       hc32f460_usart.o
    0x000032cc   0x000032cc   0x00000048   Code   RO         3613    i.User_Task_Create  user_task.o
    0x00003314   0x00003314   0x00000034   Code   RO        11150    i.__0vsnprintf      mc_w.l(printfa.o)
    0x00003348   0x00003348   0x0000001a   Code   RO         5246    i.__NVIC_ClearPendingIRQ  bsp_uart1.o
    0x00003362   0x00003362   0x00000022   Code   RO         2458    i.__NVIC_DisableIRQ  hc32f460_pwc.o
    0x00003384   0x00003384   0x0000001a   Code   RO         5247    i.__NVIC_EnableIRQ  bsp_uart1.o
    0x0000339e   0x0000339e   0x00000020   Code   RO         5248    i.__NVIC_SetPriority  bsp_uart1.o
    0x000033be   0x000033be   0x0000000e   Code   RO        11276    i.__scatterload_copy  mc_w.l(handlers.o)
    0x000033cc   0x000033cc   0x0000000e   Code   RO        11278    i.__scatterload_zeroinit  mc_w.l(handlers.o)
    0x000033da   0x000033da   0x00000002   PAD
    0x000033dc   0x000033dc   0x00000184   Code   RO        11152    i._fp_digits        mc_w.l(printfa.o)
    0x00003560   0x00003560   0x000006b4   Code   RO        11153    i._printf_core      mc_w.l(printfa.o)
    0x00003c14   0x00003c14   0x00000024   Code   RO        11154    i._printf_post_padding  mc_w.l(printfa.o)
    0x00003c38   0x00003c38   0x0000002e   Code   RO        11155    i._printf_pre_padding  mc_w.l(printfa.o)
    0x00003c66   0x00003c66   0x00000016   Code   RO        11156    i._snputc           mc_w.l(printfa.o)
    0x00003c7c   0x00003c7c   0x00000064   Code   RO         1562    i.enIrqRegistration  hc32f460_interrupts.o
    0x00003ce0   0x00003ce0   0x0000002a   Code   RO         5210    i.led_init          bsp_led.o
    0x00003d0a   0x00003d0a   0x0000001e   Code   RO         3529    i.main              main.o
    0x00003d28   0x00003d28   0x00000014   Code   RO         4503    i.osSystickHandler  cmsis_os.o
    0x00003d3c   0x00003d3c   0x00000070   Code   RO         4075    i.prvAddCurrentTaskToDelayedList  tasks.o
    0x00003dac   0x00003dac   0x00000088   Code   RO         4076    i.prvAddNewTaskToReadyList  tasks.o
    0x00003e34   0x00003e34   0x00000054   Code   RO         4077    i.prvCheckTasksWaitingTermination  tasks.o
    0x00003e88   0x00003e88   0x00000014   Code   RO         4078    i.prvDeleteTCB      tasks.o
    0x00003e9c   0x00003e9c   0x0000004c   Code   RO         4390    i.prvHeapInit       heap_4.o
    0x00003ee8   0x00003ee8   0x00000028   Code   RO         4079    i.prvIdleTask       tasks.o
    0x00003f10   0x00003f10   0x0000008e   Code   RO         4080    i.prvInitialiseNewTask  tasks.o
    0x00003f9e   0x00003f9e   0x00000002   PAD
    0x00003fa0   0x00003fa0   0x00000058   Code   RO         4081    i.prvInitialiseTaskLists  tasks.o
    0x00003ff8   0x00003ff8   0x00000054   Code   RO         4391    i.prvInsertBlockIntoFreeList  heap_4.o
    0x0000404c   0x0000404c   0x00000024   Code   RO         4082    i.prvResetNextTaskUnblockTime  tasks.o
    0x00004070   0x00004070   0x0000002c   Code   RO         4836    i.prvTaskExitError  port.o
    0x0000409c   0x0000409c   0x000000d4   Code   RO         4392    i.pvPortMalloc      heap_4.o
    0x00004170   0x00004170   0x00000024   Code   RO         4837    i.pxPortInitialiseStack  port.o
    0x00004194   0x00004194   0x00000096   Code   RO         3640    i.sys_clk_init      mcu_cfg.o
    0x0000422a   0x0000422a   0x00000002   PAD
    0x0000422c   0x0000422c   0x00000164   Code   RO         5249    i.uart1_init        bsp_uart1.o
    0x00004390   0x00004390   0x00000024   Code   RO         3862    i.uxListRemove      list.o
    0x000043b4   0x000043b4   0x00000016   Code   RO         3863    i.vListInitialise   list.o
    0x000043ca   0x000043ca   0x00000006   Code   RO         3864    i.vListInitialiseItem  list.o
    0x000043d0   0x000043d0   0x00000030   Code   RO         3865    i.vListInsert       list.o
    0x00004400   0x00004400   0x00000018   Code   RO         3866    i.vListInsertEnd    list.o
    0x00004418   0x00004418   0x00000040   Code   RO         4839    i.vPortEnterCritical  port.o
    0x00004458   0x00004458   0x0000002c   Code   RO         4840    i.vPortExitCritical  port.o
    0x00004484   0x00004484   0x0000005c   Code   RO         4393    i.vPortFree         heap_4.o
    0x000044e0   0x000044e0   0x00000020   Code   RO         4841    i.vPortSetupTimerInterrupt  port.o
    0x00004500   0x00004500   0x00000050   Code   RO         4090    i.vTaskDelay        tasks.o
    0x00004550   0x00004550   0x00000068   Code   RO         4101    i.vTaskStartScheduler  tasks.o
    0x000045b8   0x000045b8   0x00000010   Code   RO         4103    i.vTaskSuspendAll   tasks.o
    0x000045c8   0x000045c8   0x00000060   Code   RO         4104    i.vTaskSwitchContext  tasks.o
    0x00004628   0x00004628   0x000000e0   Code   RO         4843    i.xPortStartScheduler  port.o
    0x00004708   0x00004708   0x0000002c   Code   RO         4844    i.xPortSysTickHandler  port.o
    0x00004734   0x00004734   0x00000060   Code   RO         4106    i.xTaskCreate       tasks.o
    0x00004794   0x00004794   0x0000001c   Code   RO         4110    i.xTaskGetSchedulerState  tasks.o
    0x000047b0   0x000047b0   0x000000cc   Code   RO         4113    i.xTaskIncrementTick  tasks.o
    0x0000487c   0x0000487c   0x000000cc   Code   RO         4119    i.xTaskResumeAll    tasks.o
    0x00004948   0x00004948   0x00000010   Data   RO         3262    .constdata          hc32f460_usart.o
    0x00004958   0x00004958   0x00000009   Data   RO         5251    .constdata          bsp_uart1.o
    0x00004961   0x00004961   0x00000003   PAD
    0x00004964   0x00004964   0x00000020   Data   RO        11274    Region$$Table       anon$$obj.o


    Execution Region RW_IRAM1 (Exec base: 0x1fff8000, Load base: 0x00004984, Size: 0x000045f8, Max: 0x0002f000, ABSOLUTE, COMPRESSED[0x00000018])

    Exec Addr    Load Addr    Size         Type   Attr      Idx    E Section Name        Object

    0x1fff8000   COMPRESSED   0x00000005   Data   RW         2460    .data               hc32f460_pwc.o
    0x1fff8005   COMPRESSED   0x00000003   PAD
    0x1fff8008   COMPRESSED   0x00000008   Data   RW         3669    .data               system_hc32f460.o
    0x1fff8010   COMPRESSED   0x0000003c   Data   RW         4122    .data               tasks.o
    0x1fff804c   COMPRESSED   0x00000018   Data   RW         4398    .data               heap_4.o
    0x1fff8064   COMPRESSED   0x0000000c   Data   RW         4845    .data               port.o
    0x1fff8070   COMPRESSED   0x000001fe   Data   RW         5252    .data               bsp_uart1.o
    0x1fff826e   COMPRESSED   0x00000002   PAD
    0x1fff8270        -       0x00000200   Zero   RW         1566    .bss                hc32f460_interrupts.o
    0x1fff8470        -       0x00000014   Zero   RW         2459    .bss                hc32f460_pwc.o
    0x1fff8484        -       0x000000f0   Zero   RW         4121    .bss                tasks.o
    0x1fff8574        -       0x00003c00   Zero   RW         4397    .bss                heap_4.o
    0x1fffc174        -       0x00000080   Zero   RW         5250    .bss                bsp_uart1.o
    0x1fffc1f4   COMPRESSED   0x00000004   PAD
    0x1fffc1f8        -       0x00000400   Zero   RW         3710    STACK               startup_hc32f460.o

